:100000000C9424010C9451010C9451010C94510155
:100010000C9451010C9451010C9451010C94510118
:100020000C9451010C9451010C9451010C94510108
:100030000C9451010C9451010C9451010C945101F8
:100040000C9451010C9451010C9451010C945101E8
:100050000C9451010C9451010C9451010C94AB0B74
:100060000C9451010C94110E0C94590F0C945101E5
:100070000C9451010C9451010C9451010C945101B8
:100080000C9451010C9451010C9451010C945101A8
:100090000C94510E0C94980F0C9451010C94510136
:1000A0000C9451010C9451010C9451010C94510188
:1000B0000C9451010C9451010C9451010C94510178
:1000C0000C9451010C9451010C9451010C94910E1B
:1000D0000C94D70F0C9451010C94D10E0C94161063
:1000E0000C94510100002100240027002A002D005B
:1000F0003000330001010000040107010A01000083
:100100002200250028002B002E00310034000201BF
:100110000000050108010B0100002000230026005B
:1001200029002C002F00320000010000030106010D
:10013000090105050505070508080808020202026D
:100140000A0A080804040404010101010101010173
:100150000303030303030303040707070C0C0C0C3E
:100160000C0C0C0C02020202060606060606060627
:100170000B0B0B0B0B0B0B0B0102102020080810B4
:100180002040102040800201020108040201010207
:1001900004081020408080402010080402018004E0
:1001A000020180402010080402010804020101023B
:1001B0000408102040800102040810204080000044
:1001C000090A02080B0C0D070603040100000000D9
:1001D000000000000000000000000000000000001F
:1001E0000000000000000000000011100F000000DF
:1001F00000000000000000000000000000000000FF
:1002000000000000494E46494E4954594E414ECDDA
:10021000CCCC3D0AD7233C17B7D13877CC2B3295BD
:1002200095E6241FB14F0A000020410000C842009B
:10023000401C4620BCBE4CCA1B0E5AAEC59D740065
:10024000530425093F09861111241FBECFEFD1E2C7
:10025000DEBFCDBF00E00CBF14E0A0E0B2E0EEEEE8
:10026000F9E300E00BBF02C007900D92AC38B10774
:10027000D9F71BBE18E0ACE8B4E001C01D92A53A66
:10028000B107E1F712E0C8E4D2E004C02297FE0112
:100290000E94F11CC034D107C9F70E949C0B0C943A
:1002A00057010C940000662777270C94A501F89459
:1002B0000C94F51CFB01DC0102C001900D92415031
:1002C0005040D8F70895FB01DC010D900020E9F7BC
:1002D000119701900D920020E1F70895FB01DC01D8
:1002E00001900D920020E1F70895FB01DC014150DF
:1002F000504048F001900D920020C9F701C01D92B6
:1003000041505040E0F70895FB019F01E8944230CE
:10031000C4F04532B4F44A3029F497FB1EF49095AA
:1003200081959F4F642F77270E946F1C805D8A33D1
:100330000CF0895D8193CB010097A1F716F45DE283
:1003400051931082C9010C941D03A0E0B0E0EBEAC8
:10035000F1E00C94BE1CEC015B016115710519F014
:10036000FB0191838083F9908F2D90E00E94261AE3
:10037000892BC9F7FDE2FF1621F4F990EE24E394EE
:1003800005C02BE2F21609F4F990EE248E0101501B
:100390001040C80164E072E043E050E00E940503B1
:1003A000892B01F58E010E5F1F4FC80167E072E0D7
:1003B00045E050E00E940503892B19F48E01095F86
:1003C0001F4FA114B10419F0F50111830083E0FC63
:1003D00004C070E090E080E814C070E090E080E835
:1003E0006FEF08C1C8016CE072E043E050E00E948A
:1003F0000503892B69F4A114B10429F470E090E09D
:1004000080EC6FE7F7C02296F501D183C083F6CF69
:100410008824992440E050E060E070E0EF2DE05344
:10042000EA30A0F5F2E0EF2A8E2D90E09C012870D2
:100430003070E2FE06C0232B79F50894811C911CD4
:100440002BC0232B19F0089481089108DB01CA0105
:1004500012E0880F991FAA1FBB1F1A95D1F7480FEA
:10046000591F6A1F7B1F440F551F661F771F4E0FB2
:10047000511D611D711D483929E9520729E962079B
:1004800029E1720748F084E0E82A06C0EE3F31F423
:10049000E3FC39C098E0E92AF990C0CFE53311F0C8
:1004A000E53189F529912D3219F4E0E1EE2A05C0F4
:1004B0002B3219F081E090E003C0299182E090E0B6
:1004C000E22FE053EA3018F0C81BD90B1CC020E023
:1004D00030E0FCE020383F075CF4C901880F991F29
:1004E000880F991F280F391F220F331F2E0F311D20
:1004F000E991E053EA3068F3E4FE03C030952195BA
:100500003F4F820E931ECE2CDD24E1FE07C0A114C6
:10051000B10421F02197F501D183C083CB01BA0149
:100520000E94301B7B018C01F3E0CF22DD2423E00D
:10053000C216D10421F417FB109517F91095570135
:100540006801C801B70120E030E040E050E00E94BF
:10055000931A882309F44AC097FE0DC023E2E22EC5
:1005600022E0F22E9094819491089394C0E2D0E01E
:1005700000E010E012C09BE3E92E92E0F92EF6CFE6
:10058000F7012591359145915491C601B5010E941D
:10059000E61B5B016C018C1A9D0A8C169D0684F784
:1005A000D595C7950F5F1F4F0630110529F08CEFC9
:1005B0009FEFE80EF91EF1CFC501D6017C018D0138
:1005C0008C2D880F8D2D881F8F3F51F0C601B501EE
:1005D00020E030E040E050E00E94931A882331F49C
:1005E00082E290E09093A4088093A3087E2D9F2D33
:1005F000802F612F272F392F482F562FB901CA017D
:10060000CDB7DEB7ECE00C94DA1CFB01DC01415005
:10061000504088F08D9181341CF08B350CF4805E55
:10062000659161341CF06B350CF4605E861B6111C2
:1006300071F3990B0895881BFCCFDC01FC01672F37
:1006400071917723E1F7329704C07C916D937083A9
:100650006291AE17BF07C8F308950895CF92DF9255
:10066000EF92FF920F931F93DF93CF93CDB7DEB737
:10067000AF970FB6F894DEBF0FBECDBF7C018E01E1
:100680000F5F1F4FC80160E072E00E941D16C80195
:100690006EE170E00E948D15FE01389688E2DF0160
:1006A0001D928A95E9F78DE598E061E072E00E947D
:1006B000F41360ED77E080E090E00E94F30BD02E21
:1006C000C12EE2E4F0E0EE0EFF1E0BC08DE598E0D7
:1006D0000E940D11682FD7018C938D2D9C2D0E94A7
:1006E000D6158DE598E00E94DC101816190674F3F3
:1006F0008E01085F1F4F8D2D9C2DB80146E050E004
:1007000020E030E00E9446151D86C8010E9453017A
:100710000E94FF1A7B018C0189E198E064E072E09D
:100720000E94F41389E198E06D2D7C2D0E94211523
:1007300089E198E063E172E00E94F41389E198E0B6
:10074000B7014AE050E00E94D51389E198E06EE1DC
:1007500072E00E94F41389E198E0B7014AE050E0AA
:100760000E94D5138D2D9C2D0E943716C701AF9680
:100770000FB6F894DEBF0FBECDBFCF91DF911F91B2
:100780000F91FF90EF90DF90CF900895AF92BF92BE
:10079000CF92DF92EF92FF920F931F93DF93CF934D
:1007A000CDB7DEB7EC970FB6F894DEBF0FBECDBF66
:1007B0006C017E010894E11CF11C87018DE3A82ED9
:1007C000B12CAC0EBD1EC6010E942E03F801819310
:1007D00091938F01EA15FB05B1F789E198E060E09C
:1007E00070E04AE050E00E94D51320E030E0F701CD
:1007F000819191917F01280F391FE017F107B9F717
:10080000C9016EE170E00E94831C162F072FF601CC
:100810006083718389E198E06EE272E00E94F413D4
:10082000F6016081718189E198E04AE050E00E9420
:10083000D51389E198E060E472E00E94F413F601B8
:100840006081718189E198E04AE050E00E94D5130F
:10085000812F902FEC960FB6F894DEBF0FBECDBF60
:10086000CF91DF911F910F91FF90EF90DF90CF908C
:10087000BF90AF9008950F931F938C018DE598E082
:1008800040E056E960E070E00E945510F80117AEB4
:1008900016AE80E090E01F910F9108957093A2042E
:1008A0006093A1040895CF92EF920F938CE894E0A7
:1008B00062E043E024E005E056E0E52E37E0C32E99
:1008C0000E94F4170F91EF90CF9008958CE894E078
:1008D0000E9436170895EF92FF920F931F93DF93B4
:1008E000CF93CDB7DEB765970FB6F894DEBF0FBED6
:1008F000CDBF8B01DE011596EBE4F2E08AE00190BA
:100900000D928150E1F7FE013F9687E0DF011D92D5
:100910008A95E9F780915C0290915D02A0915E0258
:10092000B0915F0289839A83AB83BC838CE894E0A7
:100930000E9436178CE894E060E040E00E940717C0
:10094000C8017E010894E11CF11CB7014AE050E0A7
:100950000E9484018E010B5F1F4FC801B7010E94E6
:1009600063018CE894E0B8010E94F41365960FB619
:10097000F894DEBF0FBECDBFCF91DF911F910F91D5
:10098000FF90EF900895EF92FF920F931F93262F01
:100990007A010CE814E0C80160E0422F0E940717BA
:1009A000C801B7010E94F4131F910F91FF90EF90BF
:1009B0000895EF92FF920F931F93DF93CF93CDB7DC
:1009C000DEB7AC970FB6F894DEBF0FBECDBFDE0129
:1009D0001B96E5ECF2E08DE001900D928150E1F77D
:1009E000188E198E1A8E1B8EDE011196E6EDF2E03E
:1009F00085E001900D928150E1F78CE894E00E942F
:100A000036178CE894E060E040E00E940717E09120
:100A1000A104F091A20460817181828193810E947E
:100A2000FF1ADC01CB017E010894E11CF11CB70127
:100A30004AE050E00E9484018E01055F1F4FC8010B
:100A4000B7010E9463018CE894E0B8010E94F4139E
:100A5000DE015C96EBEDF2E08BE001900D928150AF
:100A6000E1F7FE01B79686E0DF011D928A95E9F76E
:100A7000DE011696ECEEF2E085E001900D928150D9
:100A8000E1F78CE894E060E041E00E940717E09114
:100A9000A104F091A20464817581868197810E94EE
:100AA000FF1ADC01CB0176E0E72EF12CEC0EFD1EE7
:100AB000B7014AE050E00E9484018E01045E1F4F9E
:100AC000C801B7010E9463018CE894E0B8010E945C
:100AD000F413AC960FB6F894DEBF0FBECDBFCF9126
:100AE000DF911F910F91FF90EF900895EF92FF9289
:100AF0000F931F93DF93CF93CDB7DEB7AC970FB6AD
:100B0000F894DEBF0FBECDBFDE011B96E1EFF2E031
:100B10008CE001900D928150E1F7FE01779685E01F
:100B2000DF011D928A95E9F7DE011196E6EDF2E00C
:100B300085E001900D928150E1F78CE894E00E94ED
:100B400036178CE894E060E040E00E940717E091DF
:100B5000A104F091A204848595857E010894E11C8E
:100B6000F11CB7014AE050E00E9484018E01055F4C
:100B70001F4FC801B7010E9463018CE894E0B801DF
:100B80000E94F413DE015C96E2E0F3E08BE001905A
:100B90000D928150E1F7FE01B79686E0DF011D92CC
:100BA0008A95E9F7DE011696ECEEF2E085E0019019
:100BB0000D928150E1F78CE894E060E041E00E9402
:100BC0000717E091A104F091A204A6E0EA2EF12C0F
:100BD000EC0EFD1E86859785B7014AE050E00E9425
:100BE00084018E01045E1F4FC801B7010E9463019A
:100BF0008CE894E0B8010E94F413AC960FB6F89418
:100C0000DEBF0FBECDBFCF91DF911F910F91FF903F
:100C1000EF9008950F931F930CE814E0C80160E172
:100C200042E020E00E943E17C80160E00E94F316F7
:100C30001F910F9108950895CF92DF92EF92FF9246
:100C40000F931F93DF93CF93CDB7DEB7AF970FB658
:100C5000F894DEBF0FBECDBF7C018E010F5F1F4F2A
:100C6000C80163E173E00E941D16C8016EE170E0E7
:100C70000E948D15FE01389688E2DF011D928A954B
:100C8000E9F78FE798E064E173E00E94F41360ED08
:100C900077E080E090E00E94F30BD02EC12E0BC0D5
:100CA0008FE798E00E940D11682FF70184A78D2D22
:100CB0009C2D0E94D6158FE798E00E94DC10181634
:100CC000190674F38E01085F1F4F8D2D9C2DB801FE
:100CD00046E050E020E030E00E9446151D86C80145
:100CE0000E945301162F072FF82EE92E89E198E074
:100CF0006BE173E00E94F41389E198E06D2D7C2D87
:100D00000E94211589E198E06AE273E00E94F413E1
:100D100089E198E0212F302FEF2DFE2DA901BF0191
:100D200022E030E00E94DB148D2D9C2D0E943716AE
:100D3000212F302F4F2D5E2DB901CA01AF960FB66E
:100D4000F894DEBF0FBECDBFCF91DF911F910F9101
:100D5000FF90EF90DF90CF900895CF92DF92EF92C7
:100D6000FF920F931F93CF93DF936C01C0E0D0E00D
:100D70000F2EF0E0EF2EF0E0FF2EF0E00F2FF0E06E
:100D80001F2FF02DC6010E941C069B01AC01C8015B
:100D9000B7010E942F1A7B018C012196CA30D10520
:100DA00089F720E030E040E251E40E94971A7B018D
:100DB0008C01CB01D801F60180839183A283B38398
:100DC00089E198E064E373E00E94F413F601408146
:100DD00051816281738189E198E022E030E00E94D4
:100DE000DB1489E198E066E473E00E94F413F601F5
:100DF00060817181828193810E94FF1A9B01AC0105
:100E000089E198E0B9014AE050E00E94D513B701AA
:100E1000C801DF91CF911F910F91FF90EF90DF906C
:100E2000CF9008958FE798E040E056E960E070E0E9
:100E30000E94551080E090E00895FC01862F6083A9
:100E4000718361E00E94B80C08950F931F938C0189
:100E5000FC01808161E00E94B80CF801808160E0B3
:100E60000E946B0D1F910F9108950F931F938C019A
:100E7000FC01808161E00E94B80CF801808161E092
:100E80000E946B0D1F910F910895FC017183608387
:100E90005383428308950F931F93062F142F862F99
:100EA00061E00E94B80C812F61E00E94B80C802F95
:100EB00061E00E946B0D812F61E00E946B0D812F1C
:100EC00060E00E946B0D1F910F9108951F93CF93C7
:100ED000DF93162F862F60E00E94B80CC0E0D0E0B0
:100EE0006AE070E080E090E00E94F30B812F0E94A6
:100EF0009E0D892B21F02196C436D10589F7DF910B
:100F0000CF911F910895CF92DF92EF92FF920F93AE
:100F10001F93CF93DF93C62ED42E7901C0E0D0E08B
:100F200000E010E017C08D2D61E00E946B0D6AE0BB
:100F300070E080E090E00E94F30BCC0FDD1F8C2D61
:100F40000E949E0DC80FD91F8D2D60E00E946B0D71
:100F50000F5F1F4F0E151F0534F3CE01DF91CF91A8
:100F60001F910F91FF90EF90DF90CF900895AF9277
:100F7000BF92CF92DF92EF92FF920F931F936C017B
:100F8000F62EB72EE42EA52E862F60E00E94B80C18
:100F90008E2D61E00E94B80CC6016F2D7B2D4E2D69
:100FA0005A2D28E030E00E948307182F00E08F2D93
:100FB00061E00E94B80C8F2D61E00E946B0D8F2DB7
:100FC00060E00E946B0D8E2D61E00E946B0D8E2DF6
:100FD00060E00E946B0D8F2D60E00E94B80CC6018E
:100FE0006F2D7B2D4E2D5A2D28E030E00E94830777
:100FF000082B192BC8011F910F91FF90EF90DF90E4
:10100000CF90BF90AF900895FF920F931F93F62E4D
:10101000042F122F842F61E00E94B80C812F61E011
:101020000E94B80C802F61E00E946B0D812F61E05F
:101030000E946B0D802F60E00E946B0D812F60E09D
:101040000E946B0D812F61E00E946B0D802F61E08B
:101050000E946B0D812F60E00E946B0D802F612F2D
:1010600041E02F2D0E94CE0D812F61E00E946B0D7B
:10107000802F60E00E94B80C802F0E949E0D812F6F
:1010800060E00E946B0D802F0E949E0D1F910F91BA
:10109000FF900895CF92DF92EF92FF920F931F93EC
:1010A0006C01FC01408151812281338163E070E059
:1010B0000E940408F60160817181C6010E946607E2
:1010C000F6016081718142815381C6010E94B70798
:1010D0007C01F6016081718142815381C6010E94C9
:1010E0004B070027F7FC0095102FC801B7010E949D
:1010F000321B1F910F91FF90EF90DF90CF900895DA
:101100000E944A080E94FF1A882777FD8095982F31
:101110000E94321B2AE037ED43E25CE30E94E61BAB
:1011200020E030E040E252E40E942E1A08956F92CF
:101130007F928F929F92AF92BF92CF92DF92EF9267
:10114000FF920F931F936C01FC014081518122811A
:10115000338165E070E00E940408F60160817181CE
:10116000C6010E946607F601608171814281538148
:10117000C6010E94B7077C01F6016081718142813E
:101180005381C6010E944B070027F7FC0095102FE2
:10119000C801B7010E94321B7B018C01C6010E946D
:1011A000800820E030E048EC51E40E942E1A5B01F8
:1011B0006C01C801B7012CEA35EC47EA58E30E94FC
:1011C000E61B2AE037ED43E25CE30E942F1A9B0105
:1011D000AC01C601B5010E94E61B3B014C01C801F0
:1011E000B70124E533EE45E25DE30E94E61B20E013
:1011F00030E040E850E40E942E1A5B016C01C80107
:10120000B70122EA37EE4BE356EB0E94E61BA8013A
:1012100097010E94E61B9B01AC01C601B5010E942B
:101220002F1A9B01AC01C401B3010E942F1A1F9118
:101230000F91FF90EF90DF90CF90BF90AF909F9075
:101240008F907F906F900895089583EA94E065E30E
:1012500070E044E350E00E944507089583EA94E07B
:101260000E949708089583EA94E00E9480080895F8
:101270000895FC01E056FF4F1182108208950F93EC
:101280001F9309EA14E08CE1F80111928A95E9F7BD
:1012900085EC94E00E94240986EC94E00E943909D0
:1012A0008CE695E0B8010E944E048DE695E00E9420
:1012B00038098EE695E06FE170E00E941D0780E737
:1012C00095E06EE170E00E941D0782E795E063E221
:1012D00070E00E941D0784E795E060E270E00E94E4
:1012E0001D0786E795E061E270E00E941D0788E730
:1012F00095E062E270E00E941D078AE795E00E9497
:101300002D038FEB95E00E941B061F910F9108950E
:10131000CF93DF938091EE059091EF050196909326
:10132000EF058093EE0585EC94E00E94330960930D
:10133000A9047093AA048093AB049093AC0485EC49
:1013400094E00E942E096093AD047093AE048093E4
:10135000AF049093B00460ED77E080E090E00E94ED
:10136000F30B8CE695E00E94D90485EC94E00E9492
:1013700033096093A9047093AA048093AB049093FB
:10138000AC0485EC94E00E942E096093AD04709348
:10139000AE048093AF049093B00460ED77E080E0FA
:1013A00090E00E94F30B8CE695E00E94D90482E065
:1013B00090E09093BE048093BD046091EE0570911F
:1013C000EF058CE695E040E050E00E946B048091D0
:1013D000EE059091EF0563E070E00E94831C892B7D
:1013E00009F08CC080E795E00E9425071092EF0578
:1013F0001092EE058CE695E00E9466048CE695E07E
:1014000060E070E041E553E00E94C3048CE695E0A3
:1014100061E070E046E553E00E94C30482E795E096
:101420000E94350768E873E180E090E00E94F30BCA
:101430008CE695E00E9466048CE695E060E070E042
:101440004AE653E00E94C3048CE695E061E070E058
:1014500046E553E00E94C3048EE695E00E943507FE
:10146000C0E0D0E08CE695E060E070E04EE753E04D
:101470000E94C3048EE695E00E94250760E47FE1A8
:1014800080E090E00E94F30B8CE695E060E070E075
:101490004AE653E00E94C3048EE695E00E943507B9
:1014A00068EB7BE080E090E00E94F30B2196C53072
:1014B000D105C1F68CE695E00E9466048CE695E0C5
:1014C00060E070E040E953E00E94C3046CE271E028
:1014D00080E090E00E94F30B8EE695E00E942507E5
:1014E00068EE73E080E090E00E94F30B8CE695E0FC
:1014F00061E070E042EA53E00E94C30482E795E0B5
:101500000E9425076091A9047091AA048091AB0400
:101510009091AC0420E030E040ED51E40E94E21BE9
:101520008823C4F08CE695E00E9466048CE695E082
:1015300060E070E044EB53E00E94C3048CE695E069
:1015400061E070E043EC53E00E94C30480E795E063
:101550000E9435076091AD047091AE048091AF0494
:101560009091B00420E030E042E852E40E94E21B97
:101570008823C4F08CE695E00E9466048CE695E032
:1015800060E070E042ED53E00E94C3048CE695E019
:1015900061E070E043EC53E00E94C30480E795E013
:1015A0000E9435076091A9047091AA048091AB0450
:1015B0009091AC0420E030E040ED51E40E94931A99
:1015C000882344F56091AD047091AE048091AF041E
:1015D0009091B00420E030E042E852E40E94931A77
:1015E0008823C4F48CE695E00E9466048CE695E0BE
:1015F00060E070E04EED53E00E94C3048CE695E09D
:1016000061E070E04CEE53E00E94C30480E795E097
:101610000E94250760ED77E080E090E00E94F30BE8
:101620008CE695E00E9466048CE695E060E070E050
:101630004CEF53E00E94C3048CE695E061E070E05B
:1016400048E054E00E94C3048FEB95E00E94AD0691
:101650006091BF057091C0058091C1059091C20550
:101660000E94FF1A7093B8046093B7048CE695E06B
:101670000E9466048CE695E060E070E04AE154E088
:101680000E94C3048CE695E061E070E048E054E01D
:101690000E94C3048AE795E00E94C60380917A0500
:1016A00090917B059093B6048093B5048CE695E009
:1016B0000E94760560ED77E080E090E00E94F30BF9
:1016C000DF91CF9108950F931F930CE615E0C801A9
:1016D0000E940A06C8010E946604C80160E070E02A
:1016E0004CE254E00E94C304C80161E070E04BE3A7
:1016F00054E00E94C304C8010E946604C80160E06F
:1017000070E04AE454E00E94C3048AE795E00E9436
:101710003B048FEB95E00E9412071092EF051092A8
:10172000EE0589E198E040E855E260E070E00E9453
:1017300055101F910F910895CF93DF930E94560C7F
:101740000E94630BC0E1DFE00E9488092097E1F36B
:101750000E94100FF9CF1F920F920FB60F92112413
:101760002F933F938F939F93AF93BF938091F405F3
:101770009091F505A091F605B091F7053091F80527
:101780000196A11DB11D232F2D5F2D3720F02D5760
:101790000196A11DB11D2093F8058093F405909347
:1017A000F505A093F605B093F7058091F0059091AB
:1017B000F105A091F205B091F3050196A11DB11DAF
:1017C0008093F0059093F105A093F205B093F30593
:1017D000BF91AF919F918F913F912F910F900FBE2D
:1017E0000F901F9018959B01AC017FB7F8948091E2
:1017F000F0059091F105A091F205B091F30566B561
:10180000A89B05C06F3F19F00196A11DB11D7FBFB8
:10181000BA2FA92F982F8827860F911DA11DB11DC2
:1018200062E0880F991FAA1FBB1F6A95D1F7BC0100
:101830002DC0FFB7F8948091F0059091F105A0912B
:10184000F205B091F305E6B5A89B05C0EF3F19F08E
:101850000196A11DB11DFFBFBA2FA92F982F882770
:101860008E0F911DA11DB11DE2E0880F991FAA1FC7
:10187000BB1FEA95D1F7861B970B885E9340C8F291
:10188000215030404040504068517C4F2115310577
:101890004105510571F60895019739F0880F991F98
:1018A000880F991F02970197F1F70895789484B5EE
:1018B000826084BD84B5816084BD85B5826085BD4C
:1018C00085B5816085BDEEE6F0E080818160808332
:1018D000E1E8F0E010828081826080838081816015
:1018E0008083E0E8F0E0808181608083E1EBF0E0DC
:1018F000808184608083E0EBF0E080818160808380
:10190000E1E9F0E080818260808380818160808372
:10191000E0E9F0E0808181608083E1EAF0E08081AD
:1019200082608083808181608083E0EAF0E0808152
:1019300081608083E1E2F1E0808182608083808148
:1019400081608083E0E2F1E0808181608083EAE76A
:10195000F0E08081846080838081826080838081E8
:10196000816080838081806880831092C1000895A7
:10197000CF93DF93482F50E0CA0188589E4FFC0157
:1019800034914E5C5E4FFA018491882369F190E0B6
:10199000880F991FFC01EC51FF4FA591B491FC01F8
:1019A000E250FF4FC591D491662351F42FB7F894BC
:1019B0008C91932F909589238C93888189230BC0D8
:1019C000623061F42FB7F8948C91932F909589230E
:1019D0008C938881832B88832FBF06C09FB7F89490
:1019E0008C91832B8C939FBFDF91CF910895893089
:1019F00009F449C08A30A0F4843051F1853040F4B4
:101A0000823079F1833000F5813009F063C026C05F
:101A1000873079F1883098F5863009F05BC025C0B1
:101A20008D3009F442C08E3028F48B30B1F18C3007
:101A3000C0F52DC0803109F442C0813109F445C0A0
:101A40008F3009F047C037C0809180008F7703C086
:101A5000809180008F7D80938000089584B58F777A
:101A600002C084B58F7D84BD08958091B0008F77CA
:101A700003C08091B0008F7D8093B0000895809165
:101A800090008F7707C0809190008F7D03C0809178
:101A90009000877F8093900008958091A0008F77B9
:101AA00007C08091A0008F7D03C08091A000877F38
:101AB0008093A0000895809120018F7703C08091CA
:101AC00020018F7D80932001089580912001877FE0
:101AD000809320010895FF920F931F93F62E482FB5
:101AE00050E0CA0182549E4FFC012491CA018858DB
:101AF0009E4FFC0114914E5C5E4FFA01049100234D
:101B0000C9F0222319F0822F0E94F70CE02FF0E099
:101B1000EE0FFF1FE250FF4FA591B4919FB7F894CD
:101B2000FF2021F48C911095812302C08C91812B90
:101B30008C939FBF1F910F91FF9008950F931F9358
:101B4000482F50E0CA0182549E4FFC012491CA01E3
:101B500088589E4FFC0104914E5C5E4FFA0114912F
:101B6000112319F420E030E015C0222319F0822F50
:101B70000E94F70C812F90E0880F991F885E9E4F7E
:101B8000FC01A591B4918C9120E030E0802311F00C
:101B900021E030E0C9011F910F910895BF92CF92CB
:101BA000DF92EF92FF920F931F93CF93DF93E82E74
:101BB000F62EB42EC7E0D0E0022F10E087E0C82E4A
:101BC000D12CBB2059F4B6016C1B7D0BC80102C09F
:101BD000959587956A95E2F7BC0107C0B8010C2E70
:101BE00002C0759567950A94E2F761708E2D0E9488
:101BF0006B0D8F2D61E00E946B0D8F2D60E00E94B8
:101C00006B0D21979FEFCF3FD907D9F6DF91CF9189
:101C10001F910F91FF90EF90DF90CF90BF900895AC
:101C200008951F920F920FB60F920BB60F921124C8
:101C30002F933F934F938F939F93EF93FF938091B5
:101C4000C00082FD1DC04091C60020913906309130
:101C50003A062F5F3F4F2F73307080913B06909173
:101C60003C062817390771F0E0913906F0913A06E1
:101C7000E750FA4F408330933A062093390602C06A
:101C80008091C600FF91EF919F918F914F913F916D
:101C90002F910F900BBE0F900FBE0F901F901895B5
:101CA00008951F920F920FB60F920BB60F92112448
:101CB0002F933F934F938F939F93EF93FF93809135
:101CC000C80082FD1DC04091CE002091C106309118
:101CD000C2062F5F3F4F2F7330708091C3069091E3
:101CE000C4062817390771F0E091C106F091C206C9
:101CF000EF57F94F40833093C2062093C10602C0CC
:101D00008091CE00FF91EF919F918F914F913F91E4
:101D10002F910F900BBE0F900FBE0F901F90189534
:101D200008951F920F920FB60F920BB60F921124C7
:101D30002F933F934F938F939F93EF93FF938091B4
:101D4000D00082FD1DC04091D600209149073091FE
:101D50004A072F5F3F4F2F73307080914B07909150
:101D60004C072817390771F0E0914907F0914A07AD
:101D7000E75FF84F408330934A072093490702C03A
:101D80008091D600FF91EF919F918F914F913F915C
:101D90002F910F900BBE0F900FBE0F901F901895B4
:101DA00008951F920F920FB60F920BB60F92112447
:101DB0002F933F934F938F939F93EF93FF93809134
:101DC000300182FD1DC0409136012091D107309134
:101DD000D2072F5F3F4F2F7330708091D3079091C0
:101DE000D4072817390771F0E091D107F091D20795
:101DF000EF56F84F40833093D2072093D10702C0AB
:101E000080913601FF91EF919F918F914F913F917A
:101E10002F910F900BBE0F900FBE0F901F90189533
:101E2000E0912508F0912608E05CFF4F81919191A7
:101E300020813181821B930B8F739070892B11F05D
:101E40000E94100EE0914708F0914808E05CFF4FB7
:101E50008191919120813181821B930B8F739070BE
:101E6000892B11F00E94500EE0916908F0916A08E8
:101E7000E05CFF4F8191919120813181821B930B16
:101E80008F739070892B11F00E94900EE0918B0857
:101E9000F0918C08E05CFF4F81919191208131811C
:101EA000821B930B8F739070892B11F00E94D00EC0
:101EB00008951F920F920FB60F920BB60F92112436
:101EC0002F933F938F939F93EF93FF9320917D06E2
:101ED00030917E0680917F06909180062817390701
:101EE00031F48091C1008F7D8093C10014C0E091D6
:101EF0007F06F0918006E35CF94F208180917F0698
:101F00009091800601968F739070909380068093D5
:101F10007F062093C600FF91EF919F918F913F9193
:101F20002F910F900BBE0F900FBE0F901F90189522
:101F30001F920F920FB60F920BB60F9211242F9390
:101F40003F938F939F93EF93FF93209105073091D9
:101F5000060780910707909108072817390731F481
:101F60008091C9008F7D8093C90014C0E09107075C
:101F7000F0910807EB53F94F20818091070790916A
:101F8000080701968F739070909308078093070756
:101F90002093CE00FF91EF919F918F913F912F91D0
:101FA0000F900BBE0F900FBE0F901F9018951F92B1
:101FB0000F920FB60F920BB60F9211242F933F93EF
:101FC0008F939F93EF93FF9320918D0730918E070E
:101FD00080918F07909190072817390731F48091ED
:101FE000D1008F7D8093D10014C0E0918F07F091D4
:101FF0009007E35BF84F208180918F0790919007C5
:1020000001968F7390709093900780938F07209321
:10201000D600FF91EF919F918F913F912F910F905B
:102020000BBE0F900FBE0F901F9018951F920F922E
:102030000FB60F920BB60F9211242F933F938F93ED
:102040009F93EF93FF93209115083091160880918C
:102050001708909118082817390731F48091310139
:102060008F7D8093310114C0E0911708F09118081A
:10207000EB52F84F20818091170890911808019633
:102080008F739070909318088093170820933601EF
:10209000FF91EF919F918F913F912F910F900BBEE8
:1020A0000F900FBE0F901F901895AF92BF92DF92C6
:1020B000EF92FF920F931F93CF93DF93EC017A017E
:1020C0008B01DD24403081EE580780E0680780E016
:1020D000780711F0DD24D39491E0A92EB12CEC897E
:1020E000FD89DD2069F0C50108A002C0880F991F95
:1020F0000A94E2F7808360E079E08DE390E005C028
:10210000108260E874E88EE190E0A80197010E94D7
:10211000961C215030404040504056954795379589
:10212000279580E12030380720F0DD2011F0DD24F4
:10213000D6CFE889F9893083EA89FB89208319A2FF
:10214000EE89FF89408121E030E0C9010C8C02C09A
:10215000880F991F0A94E2F7482B4083EE89FF8984
:102160004081C9010D8C02C0880F991F0A94E2F7C3
:10217000482B4083EE89FF894081C9010E8C02C043
:10218000880F991F0A94E2F7482B4083EE89FF8954
:1021900080810F8C02C0220F331F0A94E2F7209532
:1021A00028232083DF91CF911F910F91FF90EF9013
:1021B000DF90BF90AF900895DC011C96ED91FC91EB
:1021C0001D97E05CFF4F2191319180819181281B07
:1021D000390B2F733070C9010895DC011C96ED9105
:1021E000FC911D97E05CFF4F20813181E054F0406D
:1021F000DF01AE5BBF4F8D919C9111972817390776
:1022000019F42FEF3FEF07C08D919C91E80FF91F54
:102210008081282F30E0C9010895DC011C96ED91E2
:10222000FC911D97E05CFF4F20813181E054F0402C
:10223000DF01AE5BBF4F8D919C9111972817390735
:1022400019F42FEF3FEF10C08D919C911197E80F7B
:10225000F91F20818D919C91119701968F73907039
:1022600011969C938E9330E0C9010895DC019196FC
:102270008C919197882339F05496ED91FC91559764
:10228000808186FFF9CF91961C920895CF93DF93BA
:10229000EC01EE85FF85E05CFF4F20813181E05449
:1022A000F0402F5F3F4F2F733070DF01AE5BBF4FA9
:1022B0008D919C91119728173907D1F3E05CFF4F5E
:1022C00080819181E054F040E80FF91F6083EE8532
:1022D000FF85E05CFF4F31832083EE89FF892081F9
:1022E00081E090E00F8C02C0880F991F0A94E2F7FA
:1022F000282B208381E089A3EC89FD89808180647B
:10230000808381E090E0DF91CF9108951F93109238
:102310001C0810921B0828EE33E040E050E02093A8
:102320001D0830931E0840931F08509320086FE645
:1023300074E070931A086093190889EF95E0909300
:102340002608809325088DE396E0909328088093D3
:10235000270885EC90E090932A088093290884EC64
:1023600090E090932C0880932B0880EC90E0909361
:102370002E0880932D0881EC90E090933008809394
:102380002F0882EC90E0909332088093310886EC1D
:1023900090E0909334088093330814E0109335084C
:1023A000B3E0B0933608A7E0A0933708F5E0F093C8
:1023B0003808E1E0E093390810923E0810923D0899
:1023C00020933F08309340084093410850934208BF
:1023D00070933C0860933B0881E896E0909348082E
:1023E0008093470885EC96E090934A0880934908CB
:1023F0008DEC90E090934C0880934B088CEC90E02F
:1024000090934E0880934D0888EC90E0909350088C
:1024100080934F0889EC90E0909352088093510884
:102420008AEC90E090935408809353088EEC90E0EF
:10243000909356088093550810935708B093580806
:10244000A0935908F0935A08E0935B081092600833
:1024500010925F08209361083093620840936308EC
:102460005093640870935E0860935D0889E097E07C
:1024700090936A08809369088DE497E090936C08C4
:1024800080936B0885ED90E090936E0880936D08C3
:1024900084ED90E09093700880936F0880ED90E059
:1024A000909372088093710881ED90E09093740886
:1024B0008093730882ED90E090937608809375087E
:1024C00086ED90E0909378088093770810937908D0
:1024D000B0937A08A0937B08F0937C08E0937D0882
:1024E0001092820810928108209383083093840808
:1024F00040938508509386087093800860937F0806
:1025000081E997E090938C0880938B0885ED97E0A4
:1025100090938E0880938D0885E391E090939008C6
:1025200080938F0884E391E09093920880939108C0
:1025300080E391E0909394088093930881E391E085
:10254000909396088093950882E391E09093980881
:102550008093970886E391E090939A088093990876
:1025600010939B08B0939C08A0939D08F0939E083D
:10257000E0939F081F910895CF92DF92EF92FF9210
:102580000F931F93CF93DF937C016B018A01C0E00F
:10259000D0E00FC0D6016D916D01D701ED91FC9196
:1025A0000190F081E02DC7011995C80FD91F015086
:1025B00010400115110571F7CE01DF91CF911F91E8
:1025C0000F91FF90EF90DF90CF900895EF92FF92E0
:1025D0000F931F938C01DC01ED91FC910190F08130
:1025E000E02D6DE019957C01D801ED91FC910190F1
:1025F000F081E02DC8016AE019959C012E0D3F1D68
:10260000C9011F910F91FF90EF900895CF93DF9331
:10261000EC016115710519F420E030E00FC0DB0119
:102620000D900020E9F71197A61BB70BE881F981FF
:102630000280F381E02DAD0119959C01C901DF9164
:10264000CF9108954F925F927F928F929F92AF9217
:10265000BF92CF92DF92EF92FF920F931F93DF937F
:10266000CF93CDB7DEB7A1970FB6F894DEBF0FBEFC
:10267000CDBF2C01742ECB01223008F42AE019A220
:1026800031E2C32ED12CCC0EDD1E822E9924AA2439
:10269000BB24672D752FA50194010E94961C79011A
:1026A0008A01C801B701A50194010E94501C472D61
:1026B000461B0894C108D1084A3014F4405D01C09B
:1026C000495CF6014083E114F1040105110521F094
:1026D0007E2C5F2DC801DDCFC201B6010E9406131A
:1026E000A1960FB6F894DEBF0FBECDBFCF91DF919C
:1026F0001F910F91FF90EF90DF90CF90BF90AF9020
:102700009F908F907F905F904F900895DC012115EE
:10271000310541F4ED91FC910190F081E02D642FA1
:10272000199508950E9422130895CF92DF92EF9297
:10273000FF920F931F93CF93DF93EC016A017B010C
:102740002115310541F4E881F9810190F081E02DF6
:10275000642F19951FC02A303105D1F477FF17C0B7
:10276000E881F9810190F081E02D6DE219958C01ED
:1027700044275527BA014C195D096E097F09CE011E
:102780002AE00E9422139801280F391F04C02AE072
:102790000E9422139C01C901DF91CF911F910F91DB
:1027A000FF90EF90DF90CF900895CF92DF92EF925D
:1027B000FF920F931F936C017B019A010027F7FC96
:1027C0000095102FB801A7010E9495138C01C60136
:1027D0000E94E612080F191FC8011F910F91FF9068
:1027E000EF90DF90CF9008950E94061308957F9296
:1027F0008F929F92AF92BF92CF92DF92EF92FF9211
:102800000F931F93CF93DF934C017A018B01722EAC
:10281000CB01BA01A80197010E94491C882321F02D
:10282000C40169E574E021C0C0E0D0E0570168014F
:10283000E894D7F8C601B5012FEF3FEF4FE75FE708
:102840000E94491C882351F4C601B5012FEF3FEFC8
:102850004FE75FE70E94931A181614F0C1E0D0E02A
:10286000219739F0C4016DE574E00E940613EC0174
:1028700093C0C801B7012FEF3FEF4FE75FE40E941D
:10288000E21B181654F0C801B7012FEF3FEF4FE7D6
:102890005FEC0E94931A882324F4C40161E674E07B
:1028A000E4CFC801B70120E030E040E050E00E94F2
:1028B000931A87FD03C0C0E0D0E00EC0D401ED91B3
:1028C000FC910190F081E02DC4016DE21995EC01BD
:1028D00017FB109517F9109520E030E040E05FE31A
:1028E000DD240BC0CA01B90120E030E040E251E430
:1028F0000E94971A9B01AC01D394D71498F3C80196
:10290000B7010E942F1A5B016C010E94041B7B011E
:102910008C01C401B801A7012AE030E00E948613AF
:10292000C80FD91F772039F0C40165E674E00E9412
:102930000613C80FD91FC801B7010E94301B9B01A5
:10294000AC01C601B5010E942E1A24C020E030E07F
:1029500040E251E40E94E61B7B018C010E94FF1AB9
:102960005B016C01CC24B7FCC094DC2CC401B60123
:10297000A5012AE030E00E949513C80FD91FC601B7
:10298000B5010E94321B9B01AC01C801B7010E9436
:102990002E1A7A947720D1F6CE01DF91CF911F9134
:1029A0000F91FF90EF90DF90CF90BF90AF909F90EE
:1029B0008F907F900895EF92FF920F931F937C0169
:1029C0000E94F7138C01C7010E94E612080F191F1D
:1029D000C8011F910F91FF90EF900895AF92BF92A1
:1029E000CF92DF92EF92FF920F931F93CF93DF93DB
:1029F0005C016B01EE24FF24C0E0D0E010C0D501E3
:102A0000ED91FC9100811181C601BE010E94351536
:102A1000682FC501F8011995E80EF91E2196F601F7
:102A200084819581C817D90750F3C701DF91CF91F1
:102A30001F910F91FF90EF90DF90CF90BF90AF90DC
:102A40000895EF92FF920F931F937C010E94EE1462
:102A50008C01C7010E94E6129C01200F311FC901A1
:102A60001F910F91FF90EF900895FC018481958153
:102A70006817790748F40190F081E02D309721F034
:102A8000E60FF71F8081089580E008950F931F934C
:102A9000CF93DF93FC018B0141155105F9F06115CE
:102AA0007105E1F0848195812817390718F0FB0141
:102AB000108214C041505040EC01C21BD30B4C1784
:102AC0005D0708F4EA0160817181620F731FC8011C
:102AD000AE010E947501C00FD11F1882DF91CF9106
:102AE0001F910F9108950F931F93CF93DF93EC01E4
:102AF0008B016F5F7F4F888199810E944C190097ED
:102B000011F480E005C0998388831B830A8381E0E8
:102B1000DF91CF911F910F910895CF93DF93EC0137
:102B200088819981892B29F08A819B818617970753
:102B300060F4CE010E947315882341F08C819D8141
:102B4000892B19F4E881F981108281E0DF91CF911E
:102B50000895EF92FF920F931F93CF93DF93EC01B1
:102B60007B016C817D81E114F104C1F041155105B7
:102B700099F08A01060F171FB8010E948D1588234E
:102B800069F0888199812C813D81820F931FB70163
:102B90000E946E011D830C8381E001C080E0DF9103
:102BA000CF911F910F91FF90EF900895DF93CF93F6
:102BB0000F920F92CDB7DEB769831A82BE016F5FA5
:102BC0007F4F41E050E00E94A9150F900F90CF91E8
:102BD000DF910895CF93DF93EC018881998100976D
:102BE00011F00E94B418198218821D821C821B8267
:102BF0001A82DF91CF910895EF92FF920F931F9366
:102C0000CF93DF93EC017B018A01BA010E948D15FD
:102C1000882321F4CE010E94EA1507C01D830C838E
:102C200088819981B7010E946E01CE01DF91CF9119
:102C30001F910F91FF90EF900895CF93DF93EC01D8
:102C4000198218821B821A821D821C821E826115C3
:102C5000710551F0DB010D900020E9F71197A61BDB
:102C6000B70BAD010E94FC15DF91CF910895FC01D7
:102C7000808191810E94B41808950F931F938C0155
:102C8000FC01868160E00E946B0D81E090E00E9473
:102C90004C0CF801868161E00E946B0D81E090E0B0
:102CA0000E944C0CF801868160E00E946B0D84E666
:102CB00090E00E944C0C1F910F910895CF92DF92EB
:102CC000EF92FF920F931F93CF93DF93D82EC92ECD
:102CD000282F392FC9018C01C0E0D0E0E62EFF2457
:102CE000F801878161E00E94B80CB7010C2E02C088
:102CF000759567950A94E2F76170F80187810E94E3
:102D00006B0D21960F5F1F4FC830D10549F78D2DF0
:102D10009C2D0E943D16DF91CF911F910F91FF9046
:102D2000EF90DF90CF900895CF92DF92EF92FF92D5
:102D30000F931F93CF93DF93D82EC92E282F392FAF
:102D4000C9018C01C0E0D0E0E62EFF24F8018781A4
:102D500061E00E94B80CB7010C2E02C07595679512
:102D60000A94E2F76170F80187810E946B0D219649
:102D70000F5F1F4FC430D10549F78D2D9C2D0E9448
:102D80003D16DF91CF911F910F91FF90EF90DF9053
:102D9000CF9008951F93CF93DF93EC01162F8C8172
:102DA000642F0E946B0D8D818F3F19F060E00E94AF
:102DB0006B0D8F8584FF05C0CE01612F0E945E16CA
:102DC0000EC0612F70E084E0759567958A95E1F7F4
:102DD000CE010E949416CE01612F0E949416DF91BD
:102DE000CF911F91089541E00E94CA1681E090E0C2
:102DF000089540E00E94CA160895FC016089862F5C
:102E00008460808B6C60CF010E94F9160895DF9377
:102E1000CF93CDB7DEB728970FB6F894DEBF0FBEBD
:102E2000CDBF9C01FE013196A3E8B4E088E00D908F
:102E300001928150E1F7F9018389481710F0482F7A
:102E40004150E42FF0E0EE0FFF1FEC0FFD1F8181DA
:102E5000680F6068C9010E94F91628960FB6F894A9
:102E6000DEBF0FBECDBFCF91DF91089561E00E941C
:102E7000F91680ED97E00E944C0C0895CF93DF93F4
:102E8000EC01423018F08F8588608F874B8B1C8A4D
:102E9000222329F0413019F48F8584608F8780E5E3
:102EA00093EC0E944C0C8C8160E00E946B0D8E8133
:102EB00060E00E946B0D8D818F3F19F060E00E94F1
:102EC0006B0D6F8564FD1DC0CE0163E00E949416FA
:102ED00084E991E10E944C0CCE0163E00E949416BB
:102EE00084E991E10E944C0CCE0163E00E949416AB
:102EF00086E990E00E944C0CCE0162E00E9494169C
:102F000016C06062CE010E94F91684E991E10E9428
:102F10004C0C6F856062CE010E94F91686E990E044
:102F20000E944C0C6F856062CE010E94F9166F857D
:102F30006062CE010E94F91684E0888BCE010E9467
:102F4000FD16CE010E94361782E0898BCE0166E025
:102F50000E94F916DF91CF9108956F927F928F9220
:102F6000AF92CF92EF920F931F93DF93CF93CDB792
:102F7000DEB73C01162F842FF3014483258306839B
:102F8000E782C086A18682869E8593879F859487E7
:102F9000988995879989968761E00E94B80CF3011A
:102FA00085818F3F19F061E00E94B80CF3018681A2
:102FB00061E00E94B80C112319F0F301178603C0D9
:102FC00080E1F3018787C30160E141E020E00E94D6
:102FD0003E17CF91DF911F910F91EF90CF90AF905F
:102FE0008F907F906F9008958F92AF92CF92EF92D3
:102FF0000F931F93CF93DF93DC01362F542F722F43
:10300000102FAE2C8C2C13961C921E9212978FE7C9
:1030100094E011969C938E9300D00F92EDB7FEB77B
:103020003196CDB7DEB71982118212821382CD019B
:1030300061E0432F2FEF052FE72EC12E0E94AD1721
:103040000F900F900F900F90DF91CF911F910F91E4
:10305000EF90CF90AF908F9008950F931F93CF93E1
:10306000DF93BC018230910510F462E070E0E091E2
:10307000A108F091A208A0E0B0E040E050E024C038
:103080008081918186179707D0F08617970771F492
:1030900082819381109729F013969C938E931297B7
:1030A0002CC09093A2088093A10827C04115510518
:1030B00019F08417950718F4EF018D01AC01DF01B9
:1030C000828193819C01F9013097D1F64115510518
:1030D000F9F0CA01861B970B8430910580F48A8130
:1030E0009B810115110521F0F8019383828304C0AF
:1030F0009093A2088093A108FE0132962FC0FE0192
:10310000E80FF91F6193719302979983888326C012
:103110008DB79EB78857904020916704309168041E
:1031200028173907C8F4AC01421B530B4617570741
:1031300098F0CB0102964817590770F0820F931F41
:10314000909368048093670490936A048093690461
:10315000F9016193719302C0E0E0F0E0CF01DF91EB
:10316000CF911F910F910895CF93DF939C0100970A
:1031700009F48FC0EC0122971B821A826091A1088A
:103180007091A2086115710581F488819981820F7F
:10319000931F20916704309168042817390739F587
:1031A000D0936804C093670474C0DB0140E050E032
:1031B000AC17BD0708F1BB83AA83FE0121913191B1
:1031C000E20FF31FAE17BF0779F48D919C91119711
:1031D000280F391F2E5F3F4F3983288312968D9118
:1031E0009C9113979B838A834115510571F4D09369
:1031F000A208C093A1084DC012968D919C9113977F
:10320000AD01009711F0DC01D3CFDA011396DC9306
:10321000CE931297FA0121913191E20FF31FCE174D
:10322000DF0769F488819981280F391F2E5F3F4F8E
:10323000FA01318320838A819B8193838283E0E03A
:10324000F0E0DB0112968D919C911397009719F095
:10325000BC01FD01F6CFAB014E5F5F4FDB018D91ED
:103260009C91840F951F2091670430916804281762
:10327000390779F4309729F41092A2081092A10826
:1032800002C013821282425050405093680440930F
:103290006704DF91CF9108956F927F928F929F92F2
:1032A000AF92BF92CF92DF92EF92FF920F931F9354
:1032B000CF93DF938C01009729F4CB010E942D1846
:1032C0008C01B4C08EEFE82E8FEFF82EE00EF11EC9
:1032D0005801A60EB71EAE14BF0408F4A5C0D7014E
:1032E0004D915C91119746175707B8F0453051053D
:1032F00008F49CC0CA0104978617970708F496C083
:1033000042505040461B570BF501419351936D932A
:103310007C93CF010E94B41889C04B01841A950A8E
:103320003801640E751EA091A108B091A208CC24AA
:10333000DD24E0E0F0E047C0A615B705A9F5CD9182
:10334000DC911197CE0102968815990568F1CE019E
:1033500088199909029612962C91129713963C910E
:10336000059758F0F50122833383C819D909D18311
:10337000C083D7016D937C9309C04E5F5F4F4C0FA4
:103380005D1FF70151834083C901FC01C114D104C1
:1033900031F0D6011396FC93EE93129747C0F09349
:1033A000A208E093A10842C08D919C911197E81763
:1033B000F90708F4FC016D0112968C91129713968F
:1033C0009C919C01D901109709F0B6CF80916704B8
:1033D0009091680486159705B1F4E617F70798F4FD
:1033E0008DB79EB788579040A816B906E8F4B092FA
:1033F0006804A0926704B0926A04A0926904F7017D
:103400007183608313C0CB010E942D18EC010097DB
:1034100059F0D7014D915C91B8010E945A01C80141
:103420000E94B4188E0102C000E010E0C801DF91D4
:10343000CF911F910F91FF90EF90DF90CF90BF90B1
:10344000AF909F908F907F906F900895911125C2BB
:10345000803219F089508550D0F708955058BB2715
:10346000AA270ED075C166D130F06BD120F031F4AF
:103470009F3F11F41EF45BC10EF4E095E7FB51C1D0
:10348000E92F77D180F3BA1762077307840795078E
:1034900018F071F49EF58FC10EF4E0950B2EBA2F43
:1034A000A02D0B01B90190010C01CA01A00111244A
:1034B000FF27591B99F0593F50F4503E68F11A16F6
:1034C000F040A22F232F342F4427585FF3CF469587
:1034D00037952795A795F0405395C9F77EF41F16A9
:1034E000BA0B620B730B840BBAF09150A1F0FF0F73
:1034F000BB1F661F771F881FC2F70EC0BA0F621F5F
:10350000731F841F48F4879577956795B795F7954E
:103510009E3F08F0B3CF9395880F08F09927EE0FE0
:10352000979587950895D9D008F481E008950CD037
:103530000FC107D140F0FED030F021F45F3F19F009
:10354000F0C0511139C1F3C014D198F39923C9F3D4
:103550005523B1F3951B550BBB27AA276217730799
:10356000840738F09F5F5F4F220F331F441FAA1F4D
:10357000A9F333D00E2E3AF0E0E830D0915050400D
:10358000E695001CCAF729D0FE2F27D0660F771FBB
:10359000881FBB1F261737074807AB07B0E809F09D
:1035A000BB0B802DBF01FF2793585F4F2AF09E3F32
:1035B000510568F0B6C000C15F3FECF3983EDCF304
:1035C000869577956795B795F7959F5FC9F7880FAB
:1035D000911D9695879597F90895E1E0660F771FFD
:1035E000881FBB1F621773078407BA0720F0621B8E
:1035F000730B840BBA0BEE1F88F7E095089504D087
:103600006894B111D9C00895BCD088F09F5790F04C
:10361000B92F9927B751A0F0D1F0660F771F881FF7
:10362000991F1AF0BA95C9F712C0B13081F0C3D012
:10363000B1E00895C0C0672F782F8827B85F39F0B0
:10364000B93FCCF3869577956795B395D9F73EF456
:1036500090958095709561957F4F8F4F9F4F0895FE
:10366000E89409C097FB3EF490958095709561951C
:103670007F4F8F4F9F4F9923A9F0F92F96E9BB27D2
:103680009395F695879577956795B795F111F8CF4E
:10369000FAF4BB0F11F460FF1BC06F5F7F4F8F4FB9
:1036A0009F4F16C0882311F096E911C0772321F0AF
:1036B0009EE8872F762F05C0662371F096E8862F47
:1036C00070E060E02AF09A95660F771F881FDAF79E
:1036D000880F9695879597F90895990F0008550FCB
:1036E000AA0BE0E8FEEF16161706E807F907C0F088
:1036F00012161306E407F50798F0621B730B840B90
:10370000950B39F40A2661F0232B242B252B21F469
:1037100008950A2609F4A140A6958FEF811D811D09
:10372000089597F99F6780E870E060E008959FEF43
:1037300080EC089500240A94161617061806090648
:10374000089500240A941216130614060506089517
:10375000092E0394000C11F4882352F0BB0F40F49F
:10376000BF2B11F460FF04C06F5F7F4F8F4F9F4FDF
:10377000089557FD9058440F551F59F05F3F71F061
:103780004795880F97FB991F61F09F3F79F08795C8
:103790000895121613061406551FF2CF4695F1DF51
:1037A00008C0161617061806991FF1CF86957105E1
:1037B000610508940895E894BB2766277727CB0115
:1037C00097F908958ADF08F48FEF08950BD0C0CFE2
:1037D000B1DF28F0B6DF18F0952309F0A2CFA7CF0C
:1037E0001124EACFC6DFA0F3959FD1F3950F50E0E7
:1037F000551F629FF001729FBB27F00DB11D639FA3
:10380000AA27F00DB11DAA1F649F6627B00DA11D48
:10381000661F829F2227B00DA11D621F739FB00DEE
:10382000A11D621F839FA00D611D221F749F33275E
:10383000A00D611D231F849F600D211D822F762FF7
:103840006A2F11249F5750408AF0E1F088234AF0F4
:10385000EE0FFF1FBB1F661F771F881F9150504040
:10386000A9F79E3F510570F05CCFA6CF5F3FECF308
:10387000983EDCF3869577956795B795F795E7952C
:103880009F5FC1F7FE2B880F911D9695879597F93D
:10389000089523DF880B990B0895992788270895A9
:1038A000629FD001739FF001829FE00DF11D649F24
:1038B000E00DF11D929FF00D839FF00D749FF00DB0
:1038C000659FF00D9927729FB00DE11DF91F639F51
:1038D000B00DE11DF91FBD01CF0111240895AA1BF0
:1038E000BB1B51E107C0AA1FBB1FA617B70710F0EB
:1038F000A61BB70B881F991F5A95A9F7809590951D
:10390000BC01CD01089597FB092E07260AD077FD4B
:1039100004D0E5DF06D000201AF4709561957F4F42
:103920000895F6F7909581959F4F0895A1E21A2E7C
:10393000AA1BBB1BFD010DC0AA1FBB1FEE1FFF1F53
:10394000A217B307E407F50720F0A21BB30BE40BA3
:10395000F50B661F771F881F991F1A9469F76095EA
:103960007095809590959B01AC01BD01CF010895A4
:103970002F923F924F925F926F927F928F929F927F
:10398000AF92BF92CF92DF92EF92FF920F931F936D
:10399000CF93DF93CDB7DEB7CA1BDB0B0FB6F8941E
:1039A000DEBF0FBECDBF19942A88398848885F844E
:1039B0006E847D848C849B84AA84B984C884DF80CF
:1039C000EE80FD800C811B81AA81B981CE0FD11DB3
:1039D0000FB6F894DEBF0FBECDBFED010895EE0F18
:0E39E000FF1F0590F491E02D1994F894FFCF8D
:1039EE0000720D0053656E736F72737472696E6739
:1039FE003A2000666C6F61742070706D3A00436FF0
:103A0E006E7665727465642050504D3A2000526F88
:103A1E00756E64656420617665726167653A200033
:103A2E0041732028696E74293A2000434F554E5435
:103A3E0045523A2000000000000000000000000087
:103A4E00572E64657074683A200000000000000074
:103A5E0000572E696E636865733A200000000000FF
:103A6E000000454D5054592120004C4F5721200045
:103A7E004E4F524D414C2000544F4F20484947481D
:103A8E0021200057617465722074656D703A2000B4
:103A9E000000000057617465723A200000000000BB
:103AAE000000000000506C616E742074656D703AF9
:103ABE00200000000000000043000048756D69649E
:103ACE006974793A20000000000000000000250013
:103ADE000057617465722050504D3A20000000006E
:103AEE00000057617465722070483A200000000093
:103AFE00000000007232352E300D0053656E736F6C
:103B0E0072737472696E673A2000666C6F6174200E
:103B1E0070483A00526F756E646564206176657206
:103B2E006167653A200041732028696E74293A2036
:103B3E000020202000004165726F4D69737465721C
:103B4E00202020204F4E202000004165726F706FA4
:103B5E006E69632066616E204F4E20200000416525
:103B6E00726F706F6E69632066616E4F464600001D
:103B7E004165726F706F6E69632066612E4F4646A7
:103B8E0000004165726F4D69737465722020204F7D
:103B9E0046460000546F6F20686F7421203E323607
:103BAE004300005374617274696E672066616E2102
:103BBE000000546F6F2068756D69642100005065B8
:103BCE007266656374206E6F772E000053746F708B
:103BDE0070696E672066616E732E000052656164B7
:103BEE00696E6720704800006C6576656C20696EA2
:103BFE002077617465722E2E000052656164696EC5
:103C0E0067206E75747269656E74000043616C692D
:103C1E0062726174696E670020200073656E736F47
:103C2E0072732E2E2E002020200053656E736F723D
:103C3E0073206F6B61792E00006E616E00696E6687
:103C4E00006F7666002E00A5086400000000004696
:103C5E0011BC12DC100D11ED10361100000000F336
:0C3C6E0016BC12000040001400540000BE
:00000001FF
