:100000000C9406010C9433010C9433010C943301CD
:100010000C9433010C9433010C9433010C94330190
:100020000C9433010C9433010C9433010C94330180
:100030000C9433010C9433010C9433010C94330170
:100040000C9433010C9433010C9433010C94330160
:100050000C9433010C9433010C9433010C94D605A9
:100060000C9433010C94CA070C9412090C943301BC
:100070000C9433010C9433010C9433010C94330130
:100080000C9433010C9433010C9433010C94330120
:100090000C940A080C9451090C9433010C9433010C
:1000A0000C9433010C9433010C9433010C94330100
:1000B0000C9433010C9433010C9433010C943301F0
:1000C0000C9433010C9433010C9433010C944A08C2
:1000D0000C9490090C9433010C948A080C94CF0969
:1000E0000C94330100002100240027002A002D0079
:1000F0003000330001010000040107010A01000083
:100100002200250028002B002E00310034000201BF
:100110000000050108010B0100002000230026005B
:1001200029002C002F00320000010000030106010D
:10013000090105050505070508080808020202026D
:100140000A0A080804040404010101010101010173
:100150000303030303030303040707070C0C0C0C3E
:100160000C0C0C0C02020202060606060606060627
:100170000B0B0B0B0B0B0B0B0102102020080810B4
:100180002040102040800201020108040201010207
:1001900004081020408080402010080402018004E0
:1001A000020180402010080402010804020101023B
:1001B0000408102040800102040810204080000044
:1001C000090A02080B0C0D070603040100000000D9
:1001D000000000000000000000000000000000001F
:1001E0000000000000000000000011100F000000DF
:1001F00000000000000000000000000000000000FF
:1002000000000000AB026D047D043F0B11241FBEF3
:10021000CFEFD1E2DEBFCDBF00E00CBF13E0A0E026
:10022000B2E0E6E6F1E200E00BBF02C007900D92FB
:10023000AC39B107D9F71BBE18E0ACE9B3E001C097
:100240001D92A530B107E1F712E0CCE0D2E004C086
:100250002297FE010E94AD10C430D107C9F70E9459
:10026000C7050C9453010C940000FC0188279927C2
:10027000E89421912032E9F3293010F02E30C8F3B0
:100280002B3241F02D3239F4689404C00E94B90138
:10029000820F911D219120532A30C0F31EF49095B6
:1002A00081959F4F0895F8940C94B1104CE953E058
:1002B0000E9466010895FB01DC010D900020E9F722
:1002C000119701900D920020E1F70895009731F405
:1002D000DA018D919C91009709F40EC0DC01FB01BD
:1002E0003D912191222319F03217C9F3FACF33231C
:1002F00031F4DA011D921C928827992708951197ED
:10030000AF93BF93FB013D912191321771F43323D9
:1003100021F488279927119702C01E921196FA019D
:10032000A193B0839F918F910895222369F7EACF1B
:10033000FB019F01E8944230C4F04532B4F44A30E6
:1003400029F497FB1EF4909581959F4F642F772792
:100350000E946210805D8A330CF0895D8193CB012D
:100360000097A1F716F45DE251931082C9010C9435
:10037000C1017AE0979F902D879F802D910D1124C8
:100380000895DC01FC01672F71917723E1F7329723
:1003900004C07C916D9370836291AE17BF07C8F360
:1003A000089508950F931F93DF93CF93CDB7DEB7D2
:1003B0002A970FB6F894DEBF0FBECDBFFC01E05CFC
:1003C000FF4F8081918160E072E00E9456019A8324
:1003D00089838E010F5F1F4F09C080E090E060E0CD
:1003E00072E00E945601F80191838083F8018191A7
:1003F00091918F01892B89F78B819C810E94350116
:100400002A960FB6F894DEBF0FBECDBFCF91DF9115
:100410001F910F910895EF92FF920F931F93CF9327
:10042000DF93EC018C01005C1F4F82E092E0F80149
:100430009183808381EC97E063E072E00E94BB0CC3
:1004400082E4E82EF12CEC0EFD1E10C081EC97E04A
:100450000E94C60AF7018083992787FD9095F801CD
:1004600020813181280F391F3183208381EC97E06F
:100470000E94950A181619064CF3CE010E94D2016B
:10048000DF91CF911F910F91FF90EF900895AF9260
:10049000BF92CF92DF92EF92FF920F931F93DF9361
:1004A000CF93CDB7DEB7EC970FB6F894DEBF0FBE93
:1004B000CDBF6C017E010894E11CF11C87019DE316
:1004C000A92EB12CAC0EBD1EC6010E940B02F80174
:1004D000819391938F01EA15FB05B1F720E030E09D
:1004E000F701819191917F01280F391FE017F107E2
:1004F000B9F7C9016EE170E00E947610CB01F601F8
:1005000060839183EC960FB6F894DEBF0FBECDBF2B
:10051000CF91DF911F910F91FF90EF90DF90CF90DF
:10052000BF90AF9008950F931F938C0181EC97E0DB
:1005300040E056E960E070E00E940E0AF80117AE54
:1005400016AE80E090E01F910F9108957093B40370
:100550006093B3030895CF92EF920F938EE993E0E7
:1005600062E043E024E005E056E0E52E37E0C32EEC
:100570000E94750E0F91EF90CF9008958EE993E051
:100580000E94B70D0895EF92FF920F931F93DF9390
:10059000CF93CDB7DEB765970FB6F894DEBF0FBE29
:1005A000CDBF8B01DE011596E6E0F2E08AE0019016
:1005B0000D928150E1F7FE013F9687E0DF011D9229
:1005C0008A95E9F78091170290911802A09119027B
:1005D000B0911A0289839A83AB83BC838EE993E03E
:1005E0000E94B70D8EE993E060E040E00E94880D24
:1005F000C8017E010894E11CF11CB7014AE050E0FB
:100600000E9498018E010B5F1F4FC801B7010E9425
:100610005B018EE993E0B8010E94BB0C65960FB6B2
:10062000F894DEBF0FBECDBFCF91DF911F910F9128
:10063000FF90EF900895EF92FF920F931F93262F54
:100640007A010EE913E0C80160E0422F0E94880D94
:10065000C801B7010E94BB0C1F910F91FF90EF9052
:100660000895EF92FF920F931F93DF93CF93CDB72F
:10067000DEB7AC970FB6F894DEBF0FBECDBFDE017C
:100680001B96ECEAF2E08CE001900D928150E1F7CC
:10069000FE01779685E0DF011D928A95E9F7DE017C
:1006A0001196E1E9F2E085E001900D928150E1F7C9
:1006B0008EE993E00E94B70D8EE993E060E040E0A0
:1006C0000E94880DE091B303F091B4038485958571
:1006D0007E010894E11CF11CB7014AE050E00E9441
:1006E00098018E01055F1F4FC801B7010E945B0191
:1006F0008EE993E0B8010E94BB0CDE015C96EDEB45
:10070000F2E08BE001900D928150E1F7FE01B79687
:1007100086E0DF011D928A95E9F7DE011696E7EA89
:10072000F2E085E001900D928150E1F78EE993E0CF
:1007300060E041E00E94880DE091B303F091B403C2
:10074000A6E0EA2EF12CEC0EFD1E86859785B701FA
:100750004AE050E00E9498018E01045E1F4FC801DC
:10076000B7010E945B018EE993E0B8010E94BB0CC7
:10077000AC960FB6F894DEBF0FBECDBFCF91DF9120
:100780001F910F91FF90EF9008950F931F930EE923
:1007900013E0C80160E142E020E00E94BF0DC80103
:1007A00060E00E94740D1F910F9108950895EF92DB
:1007B000FF920F931F93CF93DF938C01EC01C458EA
:1007C000DF4F8EEC92E09983888383EE97E06FECA5
:1007D00072E00E94BB0C7E0102581F4F10C083EED6
:1007E00097E00E94C60AF8018083992787FD9095BB
:1007F000F70120813181280F391F3183208383EE57
:1008000097E00E94950A181619064CF38881998181
:100810000E943501AA2797FDA095BA2FBC01CD01F2
:100820000E94AE0FDF91CF911F910F91FF90EF903B
:100830000895CF92DF92EF92FF920F931F93CF9381
:10084000DF936C01C0E0D0E00F2EF0E0EF2EF0E07F
:10085000FF2EF0E00F2FF0E01F2FF02DC6010E94B9
:10086000D7039B01AC01C801B7010E94AF0E7B0109
:100870008C012196CE31D10589F720E030E040EFA0
:1008800051E40E94130F9B01AC01F60120833183D8
:1008900042835383DF91CF911F910F91FF90EF908F
:1008A000DF90CF90089583EE97E040E056E960E056
:1008B00070E00E940E0A80E090E00895FC01862F0F
:1008C0006083718361E00E94E3060895FC017183F7
:1008D0006083538342830895089585EB93E065E335
:1008E00070E044E350E00E94660408950895FC011E
:1008F000E056FF4F1182108208950F931F930BEB68
:1009000013E08CE1F80111928A95E9F787ED93E005
:100910000E946C0488ED93E00E9477048EE794E0D7
:10092000B8010E94A6028FE794E00E94760480E856
:1009300094E06FE170E00E945E0482E894E06EE172
:1009400070E00E945E0484E894E063E270E00E943C
:100950005E0486E894E060E270E00E945E0488E84D
:1009600094E061E270E00E945E048AE894E062E252
:1009700070E00E945E048CE894E00E94D10181ED59
:1009800094E00E94D6031F910F9108958091520523
:10099000909153050196909353058093520564EC12
:1009A00079E080E090E00E941E066091520570910F
:1009B00053058EE794E040E050E00E94C30280912E
:1009C00052059091530564EB70E00E947610892BDC
:1009D00081F510925305109252058EE794E00E9423
:1009E000BE028EE794E060E070E042ED52E00E94CB
:1009F0001B038EE794E061E070E042EE52E00E945B
:100A00001B0380E097E80E9477068EE794E00E943F
:100A1000BE028EE794E060E070E042EF52E00E9498
:100A20001B038EE794E061E070E042E053E00E9437
:100A30001B036091BB037091BC038091BD03909137
:100A4000BE0320E030E040ED51E40E945E108823B8
:100A5000A4F08EE794E00E94BE028EE794E060E08E
:100A600070E042E153E00E941B038EE794E061E0F6
:100A700070E041E253E00E941B036091BF0370915C
:100A8000C0038091C1039091C20320E030E040E7B1
:100A900052E40E945E108823A4F08EE794E00E9446
:100AA000BE028EE794E060E070E040E353E00E9415
:100AB0001B038EE794E061E070E041E253E00E94A6
:100AC0001B0360ED77E080E090E00E941E068CE85A
:100AD00094E00E94470281ED94E00E941904809105
:100AE0008C0490918D049093C8038093C703609108
:100AF000D1047091D2048091D3049091D4040E94C7
:100B00007B0F7093CA036093C9038EE794E00E9441
:100B1000310360ED77E080E090E00E941E060895CA
:100B20000F931F930EE714E0C8010E94C503C8018C
:100B30000E94BE02C80160E070E04CE353E00E94F6
:100B40001B03C80161E070E04BE453E00E941B030B
:100B5000C8010E94BE02C80160E070E04AE553E0AF
:100B60000E941B038CE894E00E94930281ED94E0C4
:100B70000E94530410925305109252058DE797E09E
:100B800069E673E00E94BB0C1F910F910895CF930B
:100B9000DF930E9481060E949005C9ECD8E00E9474
:100BA000C6042097E1F30E94C908F9CF1F920F9263
:100BB0000FB60F9211242F933F938F939F93AF9370
:100BC000BF938091580590915905A0915A05B09115
:100BD0005B0530915C050196A11DB11D232F2D5F92
:100BE0002D3720F02D570196A11DB11D20935C05D6
:100BF0008093580590935905A0935A05B0935B05CF
:100C00008091540590915505A0915605B0915705D6
:100C10000196A11DB11D8093540590935505A09395
:100C20005605B0935705BF91AF919F918F913F911A
:100C30002F910F900FBE0F901F9018959B01AC0144
:100C40007FB7F8948091540590915505A091560571
:100C5000B091570566B5A89B05C06F3F19F0019686
:100C6000A11DB11D7FBFBA2FA92F982F8827860FEE
:100C7000911DA11DB11D62E0880F991FAA1FBB1F06
:100C80006A95D1F7BC012DC0FFB7F8948091540547
:100C900090915505A0915605B0915705E6B5A89BD2
:100CA00005C0EF3F19F00196A11DB11DFFBFBA2F7E
:100CB000A92F982F88278E0F911DA11DB11DE2E04D
:100CC000880F991FAA1FBB1FEA95D1F7861B970BA8
:100CD000885E9340C8F221503040404050406851F7
:100CE0007C4F211531054105510571F60895019795
:100CF00039F0880F991F880F991F02970197F1F714
:100D00000895789484B5826084BD84B5816084BD83
:100D100085B5826085BD85B5816085BDEEE6F0E074
:100D2000808181608083E1E8F0E0108280818260D0
:100D30008083808181608083E0E8F0E08081816051
:100D40008083E1EBF0E0808184608083E0EBF0E081
:100D5000808181608083E1E9F0E08081826080832E
:100D6000808181608083E0E9F0E080818160808320
:100D7000E1EAF0E08081826080838081816080830D
:100D8000E0EAF0E0808181608083E1E2F1E080814F
:100D900082608083808181608083E0E2F1E08081F5
:100DA00081608083EAE7F0E08081846080838081D5
:100DB000826080838081816080838081806880837D
:100DC0001092C1000895CF93DF93482F50E0CA01DD
:100DD00088589E4FFC0134914E5C5E4FFA0184911D
:100DE000882369F190E0880F991FFC01EC51FF4FB7
:100DF000A591B491FC01E250FF4FC591D4916623B7
:100E000051F42FB7F8948C91932F909589238C935C
:100E1000888189230BC0623061F42FB7F8948C91DC
:100E2000932F909589238C938881832B88832FBF60
:100E300006C09FB7F8948C91832B8C939FBFDF9152
:100E4000CF910895893009F449C08A30A0F48430E4
:100E500051F1853040F4823079F1833000F58130F2
:100E600009F063C026C0873079F1883098F5863064
:100E700009F05BC025C08D3009F442C08E3028F4E3
:100E80008B30B1F18C30C0F52DC0803109F442C0F7
:100E9000813109F445C08F3009F047C037C08091D7
:100EA00080008F7703C0809180008F7D80938000C9
:100EB000089584B58F7702C084B58F7D84BD089571
:100EC0008091B0008F7703C08091B0008F7D8093B8
:100ED000B0000895809190008F7707C080919000B6
:100EE0008F7D03C080919000877F8093900008954C
:100EF0008091A0008F7707C08091A0008F7D03C0F4
:100F00008091A000877F8093A000089580912001A8
:100F10008F7703C0809120018F7D809320010895F9
:100F200080912001877F809320010895FF920F9385
:100F30001F93F62E482F50E0CA0182549E4FFC01A9
:100F40002491CA0188589E4FFC0114914E5C5E4F5B
:100F5000FA0104910023C9F0222319F0822F0E9484
:100F60002207E02FF0E0EE0FFF1FE250FF4FA591A8
:100F7000B4919FB7F894FF2021F48C9110958123B0
:100F800002C08C91812B8C939FBF1F910F91FF907A
:100F9000089508951F920F920FB60F920BB60F92FD
:100FA00011242F933F934F938F939F93EF93FF932E
:100FB0008091C00082FD1DC04091C60020919D051A
:100FC00030919E052F5F3F4F2F73307080919F05AA
:100FD0009091A0052817390771F0E0919D05F091D7
:100FE0009E05E35AFA4F408330939E0520939D055A
:100FF00002C08091C600FF91EF919F918F914F9118
:101000003F912F910F900BBE0F900FBE0F901F902E
:10101000189508951F920F920FB60F920BB60F926C
:1010200011242F933F934F938F939F93EF93FF93AD
:101030008091C80082FD1DC04091CE002091250600
:10104000309126062F5F3F4F2F7330708091270617
:10105000909128062817390771F0E0912506F09144
:101060002606EB51FA4F408330932606209325063F
:1010700002C08091CE00FF91EF919F918F914F918F
:101080003F912F910F900BBE0F900FBE0F901F90AE
:10109000189508951F920F920FB60F920BB60F92EC
:1010A00011242F933F934F938F939F93EF93FF932D
:1010B0008091D00082FD1DC04091D6002091AD06E8
:1010C0003091AE062F5F3F4F2F7330708091AF0687
:1010D0009091B0062817390771F0E091AD06F091B4
:1010E000AE06E359F94F40833093AE062093AD0628
:1010F00002C08091D600FF91EF919F918F914F9107
:101100003F912F910F900BBE0F900FBE0F901F902D
:10111000189508951F920F920FB60F920BB60F926B
:1011200011242F933F934F938F939F93EF93FF93AC
:101130008091300182FD1DC040913601209135071C
:10114000309136072F5F3F4F2F73307080913707F4
:10115000909138072817390771F0E0913507F09121
:101160003607EB50F94F408330933607209335070D
:1011700002C080913601FF91EF919F918F914F9125
:101180003F912F910F900BBE0F900FBE0F901F90AD
:101190001895E0918907F0918A07E05CFF4F8191F3
:1011A000919120813181821B930B8F739070892BD9
:1011B00011F00E94C907E091AB07F091AC07E05C29
:1011C000FF4F8191919120813181821B930B8F730D
:1011D0009070892B11F00E940908E091CD07F091E1
:1011E000CE07E05CFF4F8191919120813181821B7C
:1011F000930B8F739070892B11F00E944908E09136
:10120000EF07F091F007E05CFF4F81919191208111
:101210003181821B930B8F739070892B11F00E9488
:10122000890808951F920F920FB60F920BB60F9276
:1012300011242F933F938F939F93EF93FF932091CC
:10124000E1053091E2058091E3059091E4052817CE
:10125000390731F48091C1008F7D8093C10014C0A3
:10126000E091E305F091E405EF55FA4F208180917C
:10127000E3059091E40501968F7390709093E405D7
:101280008093E3052093C600FF91EF919F918F918A
:101290003F912F910F900BBE0F900FBE0F901F909C
:1012A00018951F920F920FB60F920BB60F92112442
:1012B0002F933F938F939F93EF93FF932091690612
:1012C00030916A0680916B0690916C062817390759
:1012D00031F48091C9008F7D8093C90014C0E091E2
:1012E0006B06F0916C06E75DF94F208180916B06EB
:1012F00090916C0601968F73907090936C0680931A
:101300006B062093CE00FF91EF919F918F913F91BB
:101310002F910F900BBE0F900FBE0F901F9018953E
:101320001F920F920FB60F920BB60F9211242F93AC
:101330003F938F939F93EF93FF932091F10630910A
:10134000F2068091F3069091F4062817390731F4DC
:101350008091D1008F7D8093D10014C0E091F3067D
:10136000F091F406EF54F94F20818091F3069091AB
:10137000F40601968F7390709093F4068093F306B1
:101380002093D600FF91EF919F918F913F912F91E4
:101390000F900BBE0F900FBE0F901F9018951F92CD
:1013A0000F920FB60F920BB60F9211242F933F930B
:1013B0008F939F93EF93FF932091790730917A0752
:1013C00080917B0790917C072817390731F4809131
:1013D00031018F7D8093310114C0E0917B07F09142
:1013E0007C07E75CF84F208180917B0790917C0718
:1013F00001968F73907090937C0780937B07209366
:101400003601FF91EF919F918F913F912F910F9016
:101410000BBE0F900FBE0F901F901895AF92BF920A
:10142000DF92EF92FF920F931F93CF93DF93EC0124
:101430007A018B01DD24403081EE580780E0680797
:1014400080E0780711F0DD24D39491E0A92EB12C2F
:10145000EC89FD89DD2069F0C50108A002C0880F74
:10146000991F0A94E2F7808360E079E08DE390E0D1
:1014700005C0108260E874E88EE190E0A801970151
:101480000E94891021503040404050405695479569
:101490003795279580E12030380720F0DD2011F0C6
:1014A000DD24D6CFE889F9893083EA89FB89208356
:1014B00019A2EE89FF89408121E030E0C9010C8C3E
:1014C00002C0880F991F0A94E2F7482B4083EE89E7
:1014D000FF894081C9010D8C02C0880F991F0A94B1
:1014E000E2F7482B4083EE89FF894081C9010E8CC9
:1014F00002C0880F991F0A94E2F7482B4083EE89B7
:10150000FF8980810F8C02C0220F331F0A94E2F7FB
:10151000209528232083DF91CF911F910F91FF9079
:10152000EF90DF90BF90AF900895DC011C96ED9195
:10153000FC911D97E05CFF4F219131918081918159
:10154000281B390B2F733070C9010895DC011C96DC
:10155000ED91FC911D97E05CFF4F20813181E054BB
:10156000F040DF01AE5BBF4F8D919C911197281722
:10157000390719F42FEF3FEF07C08D919C91E80FC9
:10158000F91F8081282F30E0C9010895DC011C96E5
:10159000ED91FC911D97E05CFF4F20813181E0547B
:1015A000F040DF01AE5BBF4F8D919C9111972817E2
:1015B000390719F42FEF3FEF10C08D919C911197CF
:1015C000E80FF91F20818D919C91119701968F73DF
:1015D000907011969C938E9330E0C9010895DC01C0
:1015E00091968C919197882339F05496ED91FC91C6
:1015F0005597808186FFF9CF91961C920895CF93DD
:10160000DF93EC01EE85FF85E05CFF4F20813181A7
:10161000E054F0402F5F3F4F2F733070DF01AE5B1F
:10162000BF4F8D919C91119728173907D1F3E05C3A
:10163000FF4F80819181E054F040E80FF91F6083F3
:10164000EE85FF85E05CFF4F31832083EE89FF89C3
:10165000208181E090E00F8C02C0880F991F0A94CE
:10166000E2F7282B208381E089A3EC89FD89808122
:101670008064808381E090E0DF91CF9108951F9393
:101680001092800710927F0728EE33E040E050E090
:1016900020938107309382074093830750938407F8
:1016A00060E873E070937E0760937D078DE595E0B9
:1016B00090938A078093890781EA95E090938C073D
:1016C00080938B0785EC90E090938E0780938D0735
:1016D00084EC90E09093900780938F0780EC90E0EB
:1016E000909392078093910781EC90E090939407F8
:1016F0008093930782EC90E09093960780939507F0
:1017000086EC90E0909398078093970714E01093ED
:101710009907B3E0B0939A07A7E0A0939B07F5E081
:10172000F0939C07E1E0E0939D071092A2071092CE
:10173000A1072093A3073093A4074093A5075093D4
:10174000A6077093A00760939F0785EE95E090939E
:10175000AC078093AB0789E296E09093AE07809345
:10176000AD078DEC90E09093B0078093AF078CECC1
:1017700090E09093B2078093B10788EC90E090934B
:10178000B4078093B30789EC90E09093B6078093F9
:10179000B5078AEC90E09093B8078093B7078EEC7A
:1017A00090E09093BA078093B9071093BB07B0936A
:1017B000BC07A093BD07F093BE07E093BF0710924C
:1017C000C4071092C3072093C5073093C607409300
:1017D000C7075093C8077093C2076093C1078DE68F
:1017E00096E09093CE078093CD0781EB96E090939F
:1017F000D0078093CF0785ED90E09093D207809338
:10180000D10784ED90E09093D4078093D30780EDC7
:1018100090E09093D6078093D50781ED90E0909368
:10182000D8078093D70782ED90E09093DA078093F2
:10183000D90786ED90E09093DC078093DB07109347
:10184000DD07B093DE07A093DF07F093E007E09396
:10185000E1071092E6071092E5072093E70730931F
:10186000E8074093E9075093EA077093E407609311
:10187000E30785EF96E09093F0078093EF0789E305
:1018800097E09093F2078093F10785E391E09093BE
:10189000F4078093F30784E391E09093F607809335
:1018A000F50780E391E09093F8078093F70781E3D1
:1018B00091E09093FA078093F90782E391E0909387
:1018C000FC078093FB0786E391E09093FE078093EB
:1018D000FD071093FF07B0930008A0930108F09351
:1018E0000208E09303081F910895CF92DF92EF92D0
:1018F000FF920F931F93CF93DF937C016B018A01BB
:10190000C0E0D0E00FC0D6016D916D01D701ED911F
:10191000FC910190F081E02DC7011995C80FD91FE6
:10192000015010400115110571F7CE01DF91CF91E3
:101930001F910F91FF90EF90DF90CF900895CF937C
:10194000DF93EC016115710519F420E030E00FC060
:10195000DB010D900020E9F71197A61BB70BE8817A
:10196000F9810280F381E02DAD0119959C01C90137
:10197000DF91CF9108950E949F0C08950F931F93BC
:101980008C01FC01868160E00E94960781E090E076
:101990000E947706F801868161E00E94960781E047
:1019A00090E00E947706F801868160E00E94960729
:1019B00084E690E00E9477061F910F910895CF92E0
:1019C000DF92EF92FF920F931F93CF93DF93D82E66
:1019D000C92E282F392FC9018C01C0E0D0E0E62E96
:1019E000FF24F801878161E00E94E306B7010C2E15
:1019F00002C0759567950A94E2F76170F8018781D6
:101A00000E94960721960F5F1F4FC830D10549F7F6
:101A10008D2D9C2D0E94BE0CDF91CF911F910F91B7
:101A2000FF90EF90DF90CF900895CF92DF92EF92EA
:101A3000FF920F931F93CF93DF93D82EC92E282F99
:101A4000392FC9018C01C0E0D0E0E62EFF24F80157
:101A5000878161E00E94E306B7010C2E02C07595F4
:101A600067950A94E2F76170F80187810E949607F2
:101A700021960F5F1F4FC430D10549F78D2D9C2D46
:101A80000E94BE0CDF91CF911F910F91FF90EF90BC
:101A9000DF90CF9008951F93CF93DF93EC01162F23
:101AA0008C81642F0E9496078D818F3F19F060E032
:101AB0000E9496078F8584FF05C0CE01612F0E948A
:101AC000DF0C0EC0612F70E084E0759567958A95F4
:101AD000E1F7CE010E94150DCE01612F0E94150D78
:101AE000DF91CF911F91089541E00E944B0D81E05D
:101AF00090E0089540E00E944B0D0895FC0160893C
:101B0000862F8460808B6C60CF010E947A0D0895CF
:101B1000DF93CF93CDB7DEB728970FB6F894DEBF2B
:101B20000FBECDBF9C01FE013196A4E9B3E088E071
:101B30000D9001928150E1F7F9018389481710F067
:101B4000482F4150E42FF0E0EE0FFF1FEC0FFD1F78
:101B50008181680F6068C9010E947A0D28960FB6CE
:101B6000F894DEBF0FBECDBFCF91DF91089561E045
:101B70000E947A0D80ED97E00E9477060895CF933A
:101B8000DF93EC01423018F08F8588608F874B8B94
:101B90001C8A222329F0413019F48F8584608F87B5
:101BA00080E593EC0E9477068C8160E00E949607A6
:101BB0008E8160E00E9496078D818F3F19F060E072
:101BC0000E9496076F8564FD1DC0CE0163E00E94F0
:101BD000150D84E991E10E947706CE0163E00E9431
:101BE000150D84E991E10E947706CE0163E00E9421
:101BF000150D86E990E00E947706CE0162E00E9412
:101C0000150D16C06062CE010E947A0D84E991E143
:101C10000E9477066F856062CE010E947A0D86E988
:101C200090E00E9477066F856062CE010E947A0D77
:101C30006F856062CE010E947A0D84E0888BCE01B0
:101C40000E947E0DCE010E94B70D82E0898BCE01ED
:101C500066E00E947A0DDF91CF9108956F927F9296
:101C60008F92AF92CF92EF920F931F93DF93CF9308
:101C7000CDB7DEB73C01162F842FF30144832583B3
:101C80000683E782C086A18682869E8593879F858C
:101C90009487988995879989968761E00E94E306E1
:101CA000F30185818F3F19F061E00E94E306F301A3
:101CB000868161E00E94E306112319F0F301178683
:101CC00003C080E1F3018787C30160E141E020E0C8
:101CD0000E94BF0DCF91DF911F910F91EF90CF9098
:101CE000AF908F907F906F9008958F92AF92CF9228
:101CF000EF920F931F93CF93DF93DC01362F542F76
:101D0000722F102FAE2C8C2C13961C921E921297B1
:101D100080E993E011969C938E9300D00F92EDB7DB
:101D2000FEB73196CDB7DEB71982118212821382C7
:101D3000CD0161E0432F2FEF052FE72EC12E0E942A
:101D40002E0E0F900F900F900F90DF91CF911F915B
:101D50000F91EF90CF90AF908F9008955058BB2780
:101D6000AA270ED071C162D130F067D120F031F4D2
:101D70009F3F11F41EF457C10EF4E095E7FB4DC1EF
:101D8000E92F73D180F3BA176207730784079507A9
:101D900018F071F49EF58BC10EF4E0950B2EBA2F5E
:101DA000A02D0B01B90190010C01CA01A001112461
:101DB000FF27591B99F0593F50F4503E68F11A160D
:101DC000F040A22F232F342F4427585FF3CF46959E
:101DD00037952795A795F0405395C9F77EF41F16C0
:101DE000BA0B620B730B840BBAF09150A1F0FF0F8A
:101DF000BB1F661F771F881FC2F70EC0BA0F621F76
:101E0000731F841F48F4879577956795B795F79565
:101E10009E3F08F0B3CF9395880F08F09927EE0FF7
:101E20009795879508950CD00FC107D140F0FED04B
:101E300030F021F45F3F19F0F0C0511139C1F3C007
:101E400014D198F39923C9F35523B1F3951B550B7E
:101E5000BB27AA2762177307840738F09F5F5F4F7D
:101E6000220F331F441FAA1FA9F333D00E2E3AF0BE
:101E7000E0E830D091505040E695001CCAF729D0D8
:101E8000FE2F27D0660F771F881FBB1F2617370727
:101E90004807AB07B0E809F0BB0B802DBF01FF2757
:101EA00093585F4F2AF09E3F510568F0B6C000C1BD
:101EB0005F3FECF3983EDCF3869577956795B79591
:101EC000F7959F5FC9F7880F911D9695879597F9AC
:101ED0000895E1E0660F771F881FBB1F6217730725
:101EE0008407BA0720F0621B730B840BBA0BEE1F3A
:101EF00088F7E095089504D06894B111D9C0089589
:101F0000BCD088F09F5790F0B92F9927B751A0F017
:101F1000D1F0660F771F881F991F1AF0BA95C9F77D
:101F200012C0B13081F0C3D0B1E00895C0C0672FB6
:101F3000782F8827B85F39F0B93FCCF3869577952D
:101F40006795B395D9F73EF4909580957095619516
:101F50007F4F8F4F9F4F0895E89409C097FB3EF441
:101F600090958095709561957F4F8F4F9F4F9923E6
:101F7000A9F0F92F96E9BB279395F6958795779564
:101F80006795B795F111F8CFFAF4BB0F11F460FF24
:101F90001BC06F5F7F4F8F4F9F4F16C0882311F07C
:101FA00096E911C0772321F09EE8872F762F05C090
:101FB000662371F096E8862F70E060E02AF09A952B
:101FC000660F771F881FDAF7880F9695879597F920
:101FD0000895990F0008550FAA0BE0E8FEEF1616BA
:101FE0001706E807F907C0F012161306E407F5070D
:101FF00098F0621B730B840B950B39F40A2661F081
:10200000232B242B252B21F408950A2609F4A14023
:10201000A6958FEF811D811D089597F99F6780E830
:1020200070E060E008959FEF80EC089500240A942A
:102030001616170618060906089500240A941216A3
:102040001306140605060895092E0394000C11F4D6
:10205000882352F0BB0F40F4BF2B11F460FF04C083
:102060006F5F7F4F8F4F9F4F089557FD9058440FDC
:10207000551F59F05F3F71F04795880F97FB991FE7
:1020800061F09F3F79F087950895121613061406A4
:10209000551FF2CF4695F1DF08C016161706180631
:1020A000991FF1CF86957105610508940895E8940C
:1020B000BB2766277727CB0197F908958ADF08F4B5
:1020C0008FEF0895AA1BBB1B51E107C0AA1FBB1FBE
:1020D000A617B70710F0A61BB70B881F991F5A95B4
:1020E000A9F780959095BC01CD01089597FB092E25
:1020F00007260AD077FD04D0E5DF06D000201AF4C9
:10210000709561957F4F0895F6F7909581959F4F53
:102110000895A1E21A2EAA1BBB1BFD010DC0AA1F28
:10212000BB1FEE1FFF1FA217B307E407F50720F040
:10213000A21BB30BE40BF50B661F771F881F991FBB
:102140001A9469F760957095809590959B01AC0104
:10215000BD01CF010895EE0FFF1F0590F491E02D12
:062160001994F894FFCF72
:102166002C0000720D00434F554E5445523A200044
:102176000000000000000000000000572E6465709B
:1021860074683A200000000000000000572E696EB7
:10219600636865733A2000000000000000454D505A
:1021A60054592120004C4F572120004E4F524D418B
:1021B6004C2000544F4F2048494748212000576182
:1021C6007465722074656D703A2000000000005737
:1021D600617465723A2000000000000000000000F3
:1021E600506C616E742074656D703A2000000000BA
:1021F60000000043000048756D69646974793A20EF
:102206000000000000000000002500005761746512
:10221600722050504D3A20000000000000576174B3
:1022260065722070483A200000000000000000722D
:102236000D004D6973746572204F4E2020202020BA
:1022460000004D69737465722046616E204F4E2002
:1022560000004D6973746572204F46462020202089
:1022660000004D69737465722046616E204F4646C4
:102276000000546F6F20686F7421203E3236430091
:10228600005374617274696E672066616E21000086
:10229600546F6F2068756D696421000043616C6935
:1022A60062726174696E670020200073656E736FD9
:1022B60072732E2E2E002020200053656E736F72CF
:1022C60073206F6B61792E000057617465724C65DF
:1022D60076656C20696E69742E2E2E000000000053
:1022E600FF0A750C950AC60AA60AEF0A0000000046
:0C22F600740D750C000040001400540032
:00000001FF
