:100000000C9451010C947E010C947E010C947E01A1
:100010000C947E010C947E010C947E010C947E0164
:100020000C947E010C947E010C947E010C947E0154
:100030000C947E010C947E010C947E010C947E0144
:100040000C947E010C947E010C947E010C947E0134
:100050000C947E010C947E010C947E010C948B0B0D
:100060000C947E010C94B30D0C94FB0E0C947E0149
:100070000C947E010C947E010C947E010C947E0104
:100080000C947E010C947E010C947E010C947E01F4
:100090000C94F30D0C943A0F0C947E010C947E0199
:1000A0000C947E010C947E010C947E010C947E01D4
:1000B0000C947E010C947E010C947E010C947E01C4
:1000C0000C947E010C947E010C947E010C94330EF2
:1000D0000C94790F0C947E010C94730E0C94B80F51
:1000E0000C947E0108000000BE922449123EABAA87
:1000F000AA2ABECDCCCC4C3E00000080BEABAAAA42
:10010000AA3E00000000BF000000803F0000000089
:1001100000084178D3BB4387D1133D190E3CC3BDC2
:100120004282AD2B3E68EC8276BED98FE1A93E4C6F
:1001300080EFFFBE01C4FF7F3F0000000000000011
:100140002100240027002A002D0030003300010187
:100150000000040107010A01000022002500280018
:100160002B002E00310034000201000005010801BF
:100170000B01000020002300260029002C002F0086
:100180003200000100000301060109010505050513
:10019000070508080808020202020A0A08080404FF
:1001A000040401010101010101010303030303032D
:1001B0000303040707070C0C0C0C0C0C0C0C0202BC
:1001C000020206060606060606060B0B0B0B0B0BB9
:1001D0000B0B010210202008081020401020408046
:1001E00002010201080402010102040810204080FB
:1001F0008040201008040201800402018040201089
:1002000008040201080402010102040810204080D1
:1002100001020408102040800000090A02080B0CAB
:100220000D070603040100000000000000000000AC
:1002300000000000000000000000000000000000BE
:100240000000000011100F0000000000000000007E
:100250000000000000000000000000000000494E07
:1002600046494E4954594E414ECDCCCC3D0AD72338
:100270003C17B7D13877CC2B329595E6241FB14F78
:100280000A000020410000C84200401C4620BCBEBD
:100290004CCA1B0E5AAEC59D740068064A09F20985
:1002A000281111241FBECFEFD1E2DEBFCDBF00E089
:1002B0000CBF14E0A0E0B2E0E4E3F6E300E00BBF23
:1002C00002C007900D92A430B107D9F71BBE18E009
:1002D000A4E0B4E001C01D92A132B107E1F712E041
:1002E000C2EAD2E004C02297FE010E94141BCA3960
:1002F000D107C9F70E947C0B0C9479030C94000081
:10030000CF93DF93BC018230910510F462E070E07E
:10031000A0911D08B0911E08ED01E0E0F0E040E082
:1003200050E021C0888199818617970769F48A81F6
:100330009B81309719F09383828304C090931E08A9
:1003400080931D08FE0134C06817790738F4411501
:10035000510519F08417950708F4AC01FE018A8154
:100360009B819C01E9012097E9F641155105A9F10E
:10037000CA01861B970B049708F4BA01E0E0F0E08D
:100380002AC08D919C91119784179507F9F46417F1
:10039000750781F412968D919C911397309719F0FF
:1003A0009383828304C090931E0880931D08FD01EF
:1003B00032964CC0CA01861B970BFD01E80FF91F4E
:1003C0006193719302978D939C9340C0FD0182814C
:1003D00093819C01D9011097A1F680911B089091FF
:1003E0001C08892B41F48091DF039091E0039093E6
:1003F0001C0880931B084091E1035091E2034115D2
:10040000510541F44DB75EB78091DD039091DE0355
:10041000481B590B20911B0830911C08CA01821BF4
:10042000930B8617970780F0AB014E5F5F4F8417E1
:10043000950750F0420F531F50931C0840931B0820
:10044000F9016193719302C0E0E0F0E0CF01DF9128
:10045000CF910895CF93DF93009709F450C0EC013A
:1004600022971B821A82A0911D08B0911E08109736
:1004700009F140E050E0AC17BD0708F1BB83AA8347
:10048000FE0121913191E20FF31FAE17BF0779F4FE
:100490008D919C911197280F391F2E5F3F4F398303
:1004A000288312968D919C9113979B838A83411583
:1004B000510571F4D0931E08C0931D0820C01296F8
:1004C0008D919C911397AD01009711F0DC01D3CF72
:1004D000FA01D383C28321913191E20FF31FCE172A
:1004E000DF0769F488819981280F391F2E5F3F4FFC
:1004F000FA01318320838A819B8193838283DF91F8
:10050000CF910895A0E0B0E0E8E8F2E00C94DD1AA5
:100510006C01009729F4CB010E9480016C01C1C0DD
:100520008EEF882E8FEF982E8C0C9D1C8601060F67
:10053000171F0815190508F4B2C0F401A081B18194
:10054000A617B707B8F0A530B10508F4AAC0CD01C9
:1005500004978617970708F4A4C01297A61BB70B39
:10056000F801A193B193D4016D937C93CF010E94C4
:100570002A0297C07B01EA1AFB0AEEEFFFEFEE0EAC
:10058000FF1E36016A0E7B1EC0911D08D0911E0809
:1005900044245524AA24BB244AC0C615D705E1F536
:1005A000488159814E155F05B8F1CA0104978E152F
:1005B0009F05B0F41296A40FB51FF401B183A08378
:1005C0002A813B814114510431F0D20113963C93AE
:1005D0002E93129766C030931E0820931D0861C0A9
:1005E0008A819B81F80193838283425050404E1947
:1005F0005F09518340834114510431F0D2011396B5
:100600001C930E93129704C010931E0800931D08AC
:10061000F4017183608345C088819981A816B90669
:1006200008F45C012E018A819B819C01E9012097DD
:1006300009F0B3CF80911B0890911C08861597058F
:10064000E9F4A616B706D0F42091E1033091E20355
:100650002115310541F42DB73EB78091DD0390910E
:10066000DE03281B390B02171307C8F410931C086C
:1006700000931B08D4016D937C9313C0CB010E949F
:100680008001EC01009759F0F40140815181B601DD
:100690000E948103C6010E942A026E0102C0CC247E
:1006A000DD24C601CDB7DEB7E0E10C94F91A662768
:1006B00077270C940604FC0188279927E894219158
:1006C0002032E9F3293010F02E30C8F32B3241F0FC
:1006D0002D3239F4689404C00E94FE03820F911DEC
:1006E000219120532A30C0F31EF4909581959F4F9D
:1006F0000895F8940C94181B44E054E00E94AB0356
:100700000895FB01DC0102C001900D924150504060
:10071000D8F70895FB01DC010D900020E9F711974F
:1007200001900D920020E1F70895FB01DC0101909A
:100730000D920020E1F70895FB01DC01415050408B
:1007400048F001900D920020C9F701C01D92415060
:100750005040E0F70895009731F4DA018D919C91B3
:10076000009709F40EC0DC01FB013D912191222389
:1007700019F03217C9F3FACF332331F4DA011D929D
:100780001C928827992708951197AF93BF93FB0177
:100790003D912191321771F4332321F48827992751
:1007A000119702C01E921196FA01A193B0839F91F6
:1007B0008F910895222369F7EACFFB019F01E89406
:1007C0004230C4F04532B4F44A3029F497FB1EF4A9
:1007D000909581959F4F642F77270E94921A805D94
:1007E0008A330CF0895D8193CB010097A1F716F451
:1007F0005DE251931082C9010C947E057AE0979FC7
:10080000902D879F802D910D11240895A0E0B0E0D8
:10081000ECE0F4E00C94E11AEC015B016115710568
:1008200019F0FB0191838083F9908F2D90E00E9455
:10083000CF17892BC9F7FDE2FF1621F4F990EE24BA
:10084000E39405C02BE2F21609F4F990EE248E0130
:1008500001501040C8016EE572E043E050E00E9494
:100860006605892B01F58E010E5F1F4FC80161E6F9
:1008700072E045E050E00E946605892B19F48E0174
:10088000095F1F4FA114B10419F0F5011183008312
:10089000E0FC04C070E090E080E814C070E090E0FC
:1008A00080E86FEF08C1C80166E672E043E050E0FF
:1008B0000E946605892B69F4A114B10429F470E043
:1008C00090E080EC6FE7F7C02296F501D183C083FA
:1008D000F6CF8824992440E050E060E070E0EF2DEE
:1008E000E053EA30A0F5F2E0EF2A8E2D90E09C0173
:1008F00028703070E2FE06C0232B79F50894811C25
:10090000911C2BC0232B19F0089481089108DB015E
:10091000CA0112E0880F991FAA1FBB1F1A95D1F7B1
:10092000480F591F6A1F7B1F440F551F661F771FF3
:100930004E0F511D611D711D483929E9520729E9E2
:10094000620729E1720748F084E0E82A06C0EE3F1A
:1009500031F4E3FC39C098E0E92AF990C0CFE533DF
:1009600011F0E53189F529912D3219F4E0E1EE2AF3
:1009700005C02B3219F081E090E003C0299182E09C
:1009800090E0E22FE053EA3018F0C81BD90B1CC0EE
:1009900020E030E0FCE020383F075CF4C901880F1C
:1009A000991F880F991F280F391F220F331F2E0FF1
:1009B000311DE991E053EA3068F3E4FE03C030955D
:1009C00021953F4F820E931ECE2CDD24E1FE07C001
:1009D000A114B10421F02197F501D183C083CB018B
:1009E000BA010E94D9187B018C01F3E0CF22DD24EB
:1009F00023E0C216D10421F417FB109517F91095C6
:100A000057016801C801B70120E030E040E050E044
:100A10000E943C18882309F44AC097FE0DC02DE7B8
:100A2000E22E22E0F22E9094819491089394C0E2F9
:100A3000D0E000E010E012C095E9E92E92E0F92E36
:100A4000F6CFF7012591359145915491C601B50135
:100A50000E94D4195B016C018C1A9D0A8C169D06AC
:100A600084F7D595C7950F5F1F4F0630110529F004
:100A70008CEF9FEFE80EF91EF1CFC501D6017C0186
:100A80008D018C2D880F8D2D881F8F3F51F0C60151
:100A9000B50120E030E040E050E00E943C1888239F
:100AA00031F482E290E09093200880931F087E2D1D
:100AB0009F2D802F612F272F392F482F562FB901B7
:100AC000CA01CDB7DEB7ECE00C94FD1AFB01DC01E6
:100AD0004150504088F08D9181341CF08B350CF4DE
:100AE000805E659161341CF06B350CF4605E861B92
:100AF000611171F3990B0895881BFCCFDC01FC0197
:100B0000672F71917723E1F7329704C07C916D9341
:100B100070836291AE17BF07C8F3089508950F93CD
:100B20001F93DF93CF93CDB7DEB72A970FB6F89414
:100B3000DEBF0FBECDBFFC01E05CFF4F8081918125
:100B400060E072E00E947C039A8389838E010F5FCC
:100B50001F4F09C080E090E060E072E00E947C03DB
:100B6000F80191838083F801819191918F01892B04
:100B700089F78B819C810E945B032A960FB6F894BB
:100B8000DEBF0FBECDBFCF91DF911F910F910895B2
:100B9000EF92FF920F931F93CF93DF93EC018C01A1
:100BA000005C1F4F82E092E0F8019183808387ED23
:100BB00097E063E072E00E94961382E4E82EF12C45
:100BC000EC0EFD1E10C087ED97E00E94AF10F701FC
:100BD0008083992787FD9095F80120813181280F26
:100BE000391F3183208387ED97E00E947E1018160D
:100BF00019064CF3CE010E948F05DF91CF911F9112
:100C00000F91FF90EF900895AF92BF92CF92DF9235
:100C1000EF92FF920F931F93DF93CF93CDB7DEB781
:100C2000EC970FB6F894DEBF0FBECDBF6C017E010E
:100C30000894E11CF11C87019DE3A92EB12CAC0E98
:100C4000BD1EC6010E94C805F801819391938F01D2
:100C5000EA15FB05B1F720E030E0F70181919191B1
:100C60007F01280F391FE017F107B9F7C9016EE1BD
:100C700070E00E94A61ACB01F60160839183EC9686
:100C80000FB6F894DEBF0FBECDBFCF91DF911F919D
:100C90000F91FF90EF90DF90CF90BF90AF900895AD
:100CA0000F931F938C0187ED97E040E056E960E0D9
:100CB00070E00E94F70FF80117AE16AE80E090E0EA
:100CC0001F910F91089570931C0460931B04089565
:100CD000CF92EF920F9386E094E062E043E024E04D
:100CE00005E056E0E52E37E0C32E0E9496170F91DF
:100CF000EF90CF90089586E094E00E94D816089572
:100D0000EF92FF920F931F93DF93CF93CDB7DEB790
:100D100065970FB6F894DEBF0FBECDBF8B01DE0125
:100D20001596E6E0F2E08AE001900D928150E1F73D
:100D3000FE013F9687E0DF011D928A95E9F78091D9
:100D4000170290911802A0911902B0911A0289839A
:100D50009A83AB83BC8386E094E00E94D81686E039
:100D600094E060E040E00E94A916C8017E0108946A
:100D7000E11CF11CB7014AE050E00E94DD038E0146
:100D80000B5F1F4FC801B7010E948A0386E094E001
:100D9000B8010E94961365960FB6F894DEBF0FBE99
:100DA000CDBFCF91DF911F910F91FF90EF900895EC
:100DB000EF92FF920F931F93262F7A0106E014E023
:100DC000C80160E0422F0E94A916C801B7010E9425
:100DD00096131F910F91FF90EF900895EF92FF925D
:100DE0000F931F93DF93CF93CDB7DEB7A6970FB6C0
:100DF000F894DEBF0FBECDBFDE011596EEE5F2E042
:100E00008DE001900D928150E1F71A8A1B8A1C8AAD
:100E10001D8A8091170290911802A0911902B09139
:100E20001A0289839A83AB83BC8386E094E00E9494
:100E3000D81686E094E060E040E00E94A916E091B8
:100E40001B04F0911C0466897789808D918D0E9426
:100E5000A818DC01CB017E010894E11CF11CB7014C
:100E60004AE050E00E94DD038E010B5F1F4FC80176
:100E7000B7010E948A0386E094E0B8010E949613AD
:100E8000DE015696EFE6F2E088E001900D92815087
:100E9000E1F7FE017E9689E0DF011D928A95E9F770
:100EA00086E094E060E041E00E94A916E0911B0416
:100EB000F0911C04848995898130910589F08230F4
:100EC00091051CF4892B39F01BC08230910569F023
:100ED0000397B1F40FC0CE0146966DE372E00EC0E9
:100EE000CE01469665E472E009C0CE0146966BE4F9
:100EF00072E004C0CE01469663E572E00E948A0368
:100F000086E094E0BE016A5E7F4F0E949613A6962B
:100F10000FB6F894DEBF0FBECDBFCF91DF911F910A
:100F20000F91FF90EF900895EF92FF920F931F9310
:100F3000DF93CF93CDB7DEB7AC970FB6F894DEBF93
:100F40000FBECDBFDE011B96ECEAF2E08CE0019013
:100F50000D928150E1F7FE01779685E0DF011D9249
:100F60008A95E9F7DE011196E1E9F2E085E001906A
:100F70000D928150E1F786E094E00E94D81686E059
:100F800094E060E040E00E94A916E0911B04F0911B
:100F90001C04848595857E010894E11CF11CB70131
:100FA0004AE050E00E94DD038E01055F1F4FC8013B
:100FB000B7010E948A0386E094E0B8010E9496136C
:100FC000DE015C96EDEBF2E08BE001900D9281503A
:100FD000E1F7FE01B79686E0DF011D928A95E9F7F9
:100FE000DE011696E7EAF2E085E001900D9281506D
:100FF000E1F786E094E060E041E00E94A916E0910C
:101000001B04F0911C04A6E0EA2EF12CEC0EFD1E50
:1010100086859785B7014AE050E00E94DD038E0186
:10102000045E1F4FC801B7010E948A0386E094E066
:10103000B8010E949613AC960FB6F894DEBF0FBEAF
:10104000CDBFCF91DF911F910F91FF90EF90089549
:101050000F931F9306E014E0C80160E142E020E036
:101060000E94E016C80160E00E9495161F910F9142
:1010700008950895CF92DF92EF92FF920F931F93FE
:10108000DF93CF93CDB7DEB7AF970FB6F894DEBF3F
:101090000FBECDBF7C018E010F5F1F4FC8016EECEC
:1010A00072E00E94BF15C8016EE170E00E942F152A
:1010B000FE01389688E2DF011D928A95E9F789EFF3
:1010C00097E06FEC72E00E94961368EE73E080E0A8
:1010D00090E00E94D30BD02EC12E0BC089EF97E079
:1010E0000E94AF10682FF70184A78D2D9C2D0E94C0
:1010F000781589EF97E00E947E101816190674F390
:101100008E01085F1F4F8D2D9C2DB80146E050E0E9
:1011100020E030E00E94E8141D86C8010E945703B9
:10112000162F072FF82EE92E83E997E062ED72E083
:101130000E94961383E997E06D2D7C2D0E94C314C5
:1011400083E997E061EE72E00E94961383E997E0ED
:10115000212F302FEF2DFE2DA901BF0122E030E01D
:101160000E947D148D2D9C2D0E94D915212F302F8A
:101170004F2D5E2DB901CA01AF960FB6F894DEBFB0
:101180000FBECDBFCF91DF911F910F91FF90EF90D8
:10119000DF90CF900895CF92DF92EF92FF920F935E
:1011A0001F93CF93DF936C01C0E0D0E00F2EF0E0EF
:1011B000EF2EF0E0FF2EF0E00F2FF0E01F2FF02DCC
:1011C000C6010E943A089B01AC01C801B7010E9408
:1011D000D8177B018C012196CA30D10589F720E010
:1011E00030E040E251E40E9440187B018C01CB01C9
:1011F000D801F60180839183A283B38383E997E0CA
:101200006BEE72E00E949613F6014081518162817B
:10121000738183E997E022E030E00E947D1483E946
:1012200097E06DEF72E00E949613F6016081718184
:10123000828193810E94A8189B01AC0183E997E009
:10124000B9014AE050E00E947713B701C801DF916D
:10125000CF911F910F91FF90EF90DF90CF90089565
:1012600089EF97E040E056E960E070E00E94F70FF8
:1012700080E090E00895FC01862F6083718361E037
:101280000E94CC0C0895FC017183608353834283D8
:10129000089508958DE194E065E370E044E350E043
:1012A0000E94430908950895AF92BF92CF92DF92B2
:1012B000EF92FF920F931F93DF93CF93CDB7DEB7DB
:1012C0002A970FB6F894DEBF0FBECDBF5E0108941B
:1012D000A11CB11C65018E01055F1F4F87E30E94B1
:1012E000980CF601819391936F016AE070E080E0C1
:1012F00090E00E94D30BC016D10681F70F2EF0E0CC
:10130000EF2EF0E0FF2EF0E00F2FF0E01F2FF02D7A
:10131000F501619171915F01882777FD8095982F84
:101320000E94DB189B01AC01C801B7010E94D817CD
:101330007B018C01AC14BD0459F720E030E040EA99
:1013400050E40E9440189B01AC0160E070EC8FE714
:1013500094E40E94401820E030E040E85FE30E94FF
:10136000D7179B01AC0160E070E48CE196E40E9429
:10137000401820E030E44CE156E40E9440180E94FE
:10138000941920E030EE46E755E40E9440182FE023
:101390003FEC4BE55BE30E94D8179B01AC0160E09A
:1013A00070E080E89FE30E94401823E333E948E8B7
:1013B00053E40E94D7172A960FB6F894DEBF0FBEEB
:1013C000CDBFCF91DF911F910F91FF90EF90DF90F4
:1013D000CF90BF90AF900895FC01E056FF4F11826F
:1013E000108208950F931F9303E214E08CE1F8013B
:1013F00011928A95E9F78FE394E00E94490980E40D
:1014000094E00E94EC0986EE94E0B8010E94630625
:1014100087EE94E00E94530988EE94E06FE170E05B
:101420000E943B098AEE94E06EE170E00E943B0965
:101430008CEE94E063E270E00E943B098EEE94E053
:1014400060E270E00E943B0980EF94E061E270E0AE
:101450000E943B0982EF94E062E270E00E943B0947
:1014600084EF94E00E948E0589E395E00E9439089C
:101470001F910F91089580916805909169050196DB
:10148000909369058093680587EE94E00E94540963
:101490006093390470933A0480933B0490933C0426
:1014A00086EE94E00E94EE0668EE73E080E090E045
:1014B0000E94D30B64EC79E080E090E00E94D30BB3
:1014C000609168057091690586EE94E040E050E017
:1014D0000E948006809168059091690564EB70E038
:1014E0000E94A61A892B81F5109269051092680551
:1014F00086EE94E00E947B0686EE94E060E070E069
:1015000048E053E00E94D80686EE94E061E070E087
:1015100048E153E00E94D80680E097E80E942C0C36
:1015200086EE94E00E947B0686EE94E060E070E038
:1015300048E253E00E94D80686EE94E061E070E055
:1015400048E353E00E94D80660912304709124047C
:10155000809125049091260420E030E040ED51E494
:101560000E948B198823A4F086EE94E00E947B06EB
:1015700086EE94E060E070E048E453E00E94D80614
:1015800086EE94E061E070E047E553E00E94D80603
:1015900060912704709128048091290490912A0475
:1015A00020E030E040E752E40E948B198823A4F049
:1015B00086EE94E00E947B0686EE94E060E070E0A8
:1015C00046E653E00E94D80686EE94E061E070E0C3
:1015D00047E553E00E94D80660ED77E080E090E0B8
:1015E0000E94D30B86EE94E00E947B0686EE94E088
:1015F00060E070E042E753E00E94D80686EE94E097
:1016000061E070E04EE753E00E94D80689E395E080
:101610000E94CB086091390570913A0580913B0595
:1016200090913C050E94A818709332046093310495
:1016300086EE94E00E947B0686EE94E060E070E027
:1016400040E953E00E94D80686EE94E061E070E045
:101650004EE753E00E94D80684EF94E00E9404060F
:101660008091F4049091F5049093300480932F04BA
:1016700086EE94E00E94940760ED77E080E090E0D1
:101680000E94D30B08950F931F9306EE14E0C80138
:101690000E942808C8010E947B06C80160E070E033
:1016A00042EA53E00E94D806C80161E070E041EBD5
:1016B00053E00E94D806C8010E947B06C80160E082
:1016C00070E040EC53E00E94D80684EF94E00E9462
:1016D000500689E395E00E94300910926905109246
:1016E000680583E997E040E855E260E070E00E9419
:1016F000F70F1F910F910895CF93DF930E94360C3F
:101700000E94430BC2EBDEE00E943B0A2097E1F30C
:101710000E94B20EF9CF1F920F920FB60F921124B2
:101720002F933F938F939F93AF93BF9380916E05B9
:1017300090916F05A0917005B0917105309172057F
:101740000196A11DB11D232F2D5F2D3720F02D57A0
:101750000196A11DB11D2093720580936E05909393
:101760006F05A0937005B093710580916A05909103
:101770006B05A0916C05B0916D050196A11DB11D81
:1017800080936A0590936B05A0936C05B0936D05EB
:10179000BF91AF919F918F913F912F910F900FBE6D
:1017A0000F901F9018959B01AC017FB7F894809122
:1017B0006A0590916B05A0916C05B0916D0566B5B9
:1017C000A89B05C06F3F19F00196A11DB11D7FBFF9
:1017D000BA2FA92F982F8827860F911DA11DB11D03
:1017E00062E0880F991FAA1FBB1F6A95D1F7BC0141
:1017F0002DC0FFB7F89480916A0590916B05A09178
:101800006C05B0916D05E6B5A89B05C0EF3F19F0DA
:101810000196A11DB11DFFBFBA2FA92F982F8827B0
:101820008E0F911DA11DB11DE2E0880F991FAA1F07
:10183000BB1FEA95D1F7861B970B885E9340C8F2D1
:10184000215030404040504068517C4F21153105B7
:101850004105510571F60895019739F0880F991FD8
:10186000880F991F02970197F1F70895789484B52E
:10187000826084BD84B5816084BD85B5826085BD8C
:1018800085B5816085BDEEE6F0E080818160808372
:10189000E1E8F0E010828081826080838081816055
:1018A0008083E0E8F0E0808181608083E1EBF0E01C
:1018B000808184608083E0EBF0E0808181608083C0
:1018C000E1E9F0E0808182608083808181608083B3
:1018D000E0E9F0E0808181608083E1EAF0E08081EE
:1018E00082608083808181608083E0EAF0E0808193
:1018F00081608083E1E2F1E0808182608083808189
:1019000081608083E0E2F1E0808181608083EAE7AA
:10191000F0E0808184608083808182608083808128
:10192000816080838081806880831092C1000895E7
:10193000382F863308F0365320917B00832F86950D
:101940008695869590E08170907043E0880F991F8E
:101950004A95E1F7277F282B20937B0037708091F1
:10196000E3038295880F880F807C832B80937C0013
:1019700080917A00806480937A0080917A0086FD5D
:10198000FCCF2091780040917900942F80E030E0E6
:10199000282B392BC9010895CF93DF93482F50E0AE
:1019A000CA018E529E4FFC01349144575E4FFA019A
:1019B0008491882369F190E0880F991FFC01E25C13
:1019C000FE4FA591B491FC01E85AFE4FC591D49108
:1019D000662351F42FB7F8948C91932F9095892317
:1019E0008C93888189230BC0623061F42FB7F894FF
:1019F0008C91932F909589238C938881832B888356
:101A00002FBF06C09FB7F8948C91832B8C939FBFF8
:101A1000DF91CF910895893009F449C08A30A0F44C
:101A2000843051F1853040F4823079F1833000F513
:101A3000813009F063C026C0873079F1883098F58D
:101A4000863009F05BC025C08D3009F442C08E306D
:101A500028F48B30B1F18C30C0F52DC0803109F401
:101A600042C0813109F445C08F3009F047C037C00A
:101A7000809180008F7703C0809180008F7D80935C
:101A80008000089584B58F7702C084B58F7D84BDB2
:101A900008958091B0008F7703C08091B0008F7D52
:101AA0008093B0000895809190008F7707C0809157
:101AB00090008F7D03C080919000877F809390007D
:101AC00008958091A0008F7707C08091A0008F7D3E
:101AD00003C08091A000877F8093A000089580912B
:101AE00020018F7703C0809120018F7D809320019A
:101AF000089580912001877F809320010895FF92AF
:101B00000F931F93F62E482F50E0CA01885E9D4F19
:101B1000FC012491CA018E529E4FFC01149144573E
:101B20005E4FFA0104910023C9F0222319F0822F9D
:101B30000E940B0DE02FF0E0EE0FFF1FE85AFE4F62
:101B4000A591B4919FB7F894FF2021F48C91109542
:101B5000812302C08C91812B8C939FBF1F910F9189
:101B6000FF90089508951F920F920FB60F920BB633
:101B70000F9211242F933F934F938F939F93EF9343
:101B8000FF938091C00082FD1DC04091C60020914E
:101B9000B3053091B4052F5F3F4F2F7330708091A4
:101BA000B5059091B6052817390771F0E091B30596
:101BB000F091B405ED58FA4F40833093B40520936B
:101BC000B30502C08091C600FF91EF919F918F9164
:101BD0004F913F912F910F900BBE0F900FBE0F9022
:101BE0001F90189508951F920F920FB60F920BB683
:101BF0000F9211242F933F934F938F939F93EF93C3
:101C0000FF938091C80082FD1DC04091CE002091BD
:101C10003B0630913C062F5F3F4F2F733070809111
:101C20003D0690913E062817390771F0E0913B067A
:101C3000F0913C06E550FA4F408330933C062093E8
:101C40003B0602C08091CE00FF91EF919F918F9152
:101C50004F913F912F910F900BBE0F900FBE0F90A1
:101C60001F90189508951F920F920FB60F920BB602
:101C70000F9211242F933F934F938F939F93EF9342
:101C8000FF938091D00082FD1DC04091D60020912D
:101C9000C3063091C4062F5F3F4F2F733070809181
:101CA000C5069091C6062817390771F0E091C30662
:101CB000F091C406ED57F94F40833093C40620934A
:101CC000C30602C08091D600FF91EF919F918F9142
:101CD0004F913F912F910F900BBE0F900FBE0F9021
:101CE0001F90189508951F920F920FB60F920BB682
:101CF0000F9211242F933F934F938F939F93EF93C2
:101D0000FF938091300182FD1DC0409136012091EA
:101D10004B0730914C072F5F3F4F2F7330708091EE
:101D20004D0790914E072817390771F0E0914B0746
:101D3000F0914C07E55FF84F408330934C072093B8
:101D40004B0702C080913601FF91EF919F918F91D7
:101D50004F913F912F910F900BBE0F900FBE0F90A0
:101D60001F901895E0919F07F091A007E05CFF4F4E
:101D70008191919120813181821B930B8F7390709F
:101D8000892B11F00E94B20DE091C107F091C207BA
:101D9000E05CFF4F8191919120813181821B930BF7
:101DA0008F739070892B11F00E94F20DE091E30780
:101DB000F091E407E05CFF4F8191919120813181A6
:101DC000821B930B8F739070892B11F00E94320E3F
:101DD000E0910508F0910608E05CFF4F8191919138
:101DE00020813181821B930B8F739070892B11F0AE
:101DF0000E94720E08951F920F920FB60F920BB6AB
:101E00000F9211242F933F938F939F93EF93FF9300
:101E10002091F7053091F8058091F9059091FA0528
:101E20002817390731F48091C1008F7D8093C1005C
:101E300014C0E091F905F091FA05E954FA4F2081B8
:101E40008091F9059091FA0501968F7390709093A7
:101E5000FA058093F9052093C600FF91EF919F91B9
:101E60008F913F912F910F900BBE0F900FBE0F904F
:101E70001F9018951F920F920FB60F920BB60F92EC
:101E800011242F933F938F939F93EF93FF93209170
:101E90007F063091800680918106909182062817F6
:101EA000390731F48091C9008F7D8093C90014C037
:101EB000E0918106F0918206E15CF94F20818091EA
:101EC00081069091820601968F739070909382069E
:101ED000809381062093CE00FF91EF919F918F9187
:101EE0003F912F910F900BBE0F900FBE0F901F9040
:101EF00018951F920F920FB60F920BB60F921124E6
:101F00002F933F938F939F93EF93FF932091070716
:101F1000309108078091090790910A07281739071F
:101F200031F48091D1008F7D8093D10014C0E09175
:101F30000907F0910A07E953F94F208180910907B9
:101F400090910A0701968F73907090930A0780937F
:101F500009072093D600FF91EF919F918F913F91B8
:101F60002F910F900BBE0F900FBE0F901F901895E2
:101F70001F920F920FB60F920BB60F9211242F9350
:101F80003F938F939F93EF93FF9320918F0730910F
:101F9000900780919107909192072817390731F4A3
:101FA000809131018F7D8093310114C0E0919107C0
:101FB000F0919207E15BF84F208180919107909119
:101FC000920701968F739070909392078093910778
:101FD00020933601FF91EF919F918F913F912F9127
:101FE0000F900BBE0F900FBE0F901F901895AF92E1
:101FF000BF92DF92EF92FF920F931F93CF93DF93E5
:10200000EC017A018B01DD24403081EE580780E03D
:10201000680780E0780711F0DD24D39491E0A92EC1
:10202000B12CEC89FD89DD2069F0C50108A002C052
:10203000880F991F0A94E2F7808360E079E08DE3CE
:1020400090E005C0108260E874E88EE190E0A8019D
:1020500097010E94B91A2150304040405040569597
:1020600047953795279580E12030380720F0DD200F
:1020700011F0DD24D6CFE889F9893083EA89FB891C
:10208000208319A2EE89FF89408121E030E0C90157
:102090000C8C02C0880F991F0A94E2F7482B4083EA
:1020A000EE89FF894081C9010D8C02C0880F991FFC
:1020B0000A94E2F7482B4083EE89FF894081C901E9
:1020C0000E8C02C0880F991F0A94E2F7482B4083B8
:1020D000EE89FF8980810F8C02C0220F331F0A9482
:1020E000E2F7209528232083DF91CF911F910F9154
:1020F000FF90EF90DF90BF90AF900895DC011C96A9
:10210000ED91FC911D97E05CFF4F21913191808111
:102110009181281B390B2F733070C9010895DC01A0
:102120001C96ED91FC911D97E05CFF4F2081318161
:10213000E054F040DF01AE5BBF4F8D919C91119751
:102140002817390719F42FEF3FEF07C08D919C91A5
:10215000E80FF91F8081282F30E0C9010895DC01C4
:102160001C96ED91FC911D97E05CFF4F2081318121
:10217000E054F040DF01AE5BBF4F8D919C91119711
:102180002817390719F42FEF3FEF10C08D919C915C
:102190001197E80FF91F20818D919C91119701965D
:1021A0008F73907011969C938E9330E0C9010895BF
:1021B000DC0191968C919197882339F05496ED919A
:1021C000FC915597808186FFF9CF91961C920895D6
:1021D000CF93DF93EC01EE85FF85E05CFF4F20811C
:1021E0003181E054F0402F5F3F4F2F733070DF019B
:1021F000AE5BBF4F8D919C91119728173907D1F392
:10220000E05CFF4F80819181E054F040E80FF91FBE
:102210006083EE85FF85E05CFF4F31832083EE898C
:10222000FF89208181E090E00F8C02C0880F991F08
:102230000A94E2F7282B208381E089A3EC89FD89A9
:1022400080818064808381E090E0DF91CF91089568
:102250001F93109296071092950728EE33E040E006
:1022600050E0209397073093980740939907509335
:102270009A0768EE73E0709394076093930783E77F
:1022800095E09093A00780939F0787EB95E090934C
:10229000A2078093A10785EC90E09093A407809318
:1022A000A30784EC90E09093A6078093A50780ECA9
:1022B00090E09093A8078093A70781EC90E090931B
:1022C000AA078093A90782EC90E09093AC078093D3
:1022D000AB0786EC90E09093AE078093AD0714E0D7
:1022E0001093AF07B3E0B093B007A7E0A093B10796
:1022F000F5E0F093B207E1E0E093B3071092B8077E
:102300001092B7072093B9073093BA074093BB07E1
:102310005093BC077093B6076093B5078BEF95E0B9
:102320009093C2078093C1078FE396E09093C40710
:102330008093C3078DEC90E09093C6078093C50708
:102340008CEC90E09093C8078093C70788EC90E0EE
:102350009093CA078093C90789EC90E09093CC07CB
:102360008093CB078AEC90E09093CE078093CD07C3
:102370008EEC90E09093D0078093CF071093D10715
:10238000B093D207A093D307F093D407E093D50777
:102390001092DA071092D9072093DB073093DC07FD
:1023A0004093DD075093DE077093D8076093D707FB
:1023B00083E896E09093E4078093E30787EC96E048
:1023C0009093E6078093E50785ED90E09093E8070A
:1023D0008093E70784ED90E09093EA078093E90704
:1023E00080ED90E09093EC078093EB0781ED90E017
:1023F0009093EE078093ED0782ED90E09093F007C5
:102400008093EF0786ED90E09093F2078093F107B9
:102410001093F307B093F407A093F507F093F60732
:10242000E093F7071092FC071092FB072093FD073B
:102430003093FE074093FF07509300087093FA070C
:102440006093F9078BE097E0909306088093050866
:102450008FE497E0909308088093070885E391E064
:1024600090930A088093090884E391E090930C0804
:1024700080930B0880E391E090930E0880930D0801
:1024800081E391E09093100880930F0882E391E03C
:10249000909312088093110886E391E090931408BA
:1024A0008093130810931508B0931608A09317088B
:1024B000F0931808E09319081F910895CF92DF92C6
:1024C000EF92FF920F931F93CF93DF937C016B01E9
:1024D0008A01C0E0D0E00FC0D6016D916D01D70137
:1024E000ED91FC910190F081E02DC7011995C80F85
:1024F000D91F015010400115110571F7CE01DF9170
:10250000CF911F910F91FF90EF90DF90CF900895A2
:10251000EF92FF920F931F938C01DC01ED91FC91E0
:102520000190F081E02D6DE019957C01D801ED91CD
:10253000FC910190F081E02DC8016AE019959C01A1
:102540002E0D3F1DC9011F910F91FF90EF9008952F
:10255000CF93DF93EC016115710519F420E030E0B1
:102560000FC0DB010D900020E9F71197A61BB70BF8
:10257000E881F9810280F381E02DAD0119959C017C
:10258000C901DF91CF9108954F925F927F928F9210
:102590009F92AF92BF92CF92DF92EF92FF920F93F2
:1025A0001F93DF93CF93CDB7DEB7A1970FB6F89403
:1025B000DEBF0FBECDBF2C01742ECB01223008F43C
:1025C0002AE019A231E2C32ED12CCC0EDD1E822EC0
:1025D0009924AA24BB24672D752FA50194010E947C
:1025E000B91A79018A01C801B701A50194010E94B5
:1025F000731A472D461B0894C108D1084A3014F4B9
:10260000405D01C0495CF6014083E114F10401051D
:10261000110521F07E2C5F2DC801DDCFC201B6016E
:102620000E94A812A1960FB6F894DEBF0FBECDBFD0
:10263000CF91DF911F910F91FF90EF90DF90CF909E
:10264000BF90AF909F908F907F905F904F90089534
:10265000DC012115310541F4ED91FC910190F081EF
:10266000E02D642F199508950E94C4120895CF9209
:10267000DF92EF92FF920F931F93CF93DF93EC01C2
:102680006A017B012115310541F4E881F98101904E
:10269000F081E02D642F19951FC02A303105D1F447
:1026A00077FF17C0E881F9810190F081E02D6DE29C
:1026B00019958C0144275527BA014C195D096E09FB
:1026C0007F09CE012AE00E94C4129801280F391F09
:1026D00004C02AE00E94C4129C01C901DF91CF917D
:1026E0001F910F91FF90EF90DF90CF900895CF92C0
:1026F000DF92EF92FF920F931F936C017B019A017F
:102700000027F7FC0095102FB801A7010E9437138E
:102710008C01C6010E948812080F191FC8011F9161
:102720000F91FF90EF90DF90CF9008950E94A81234
:1027300008957F928F929F92AF92BF92CF92DF9235
:10274000EF92FF920F931F93CF93DF934C017A0187
:102750008B01722ECB01BA01A80197010E94371A92
:10276000882321F0C4016FEC73E021C0C0E0D0E009
:1027700057016801E894D7F8C601B5012FEF3FEF84
:102780004FE75FE70E94371A882351F4C601B5016D
:102790002FEF3FEF4FE75FE70E943C18181614F049
:1027A000C1E0D0E0219739F0C40163ED73E00E94ED
:1027B000A812EC0193C0C801B7012FEF3FEF4FE71C
:1027C0005FE40E948B19181654F0C801B7012FEF6F
:1027D0003FEF4FE75FEC0E943C18882324F4C401CC
:1027E00067ED73E0E4CFC801B70120E030E040E0DE
:1027F00050E00E943C1887FD03C0C0E0D0E00EC04E
:10280000D401ED91FC910190F081E02DC4016DE2C5
:102810001995EC0117FB109517F9109520E030E0A1
:1028200040E05FE3DD240BC0CA01B90120E030E0E5
:1028300040E251E40E9440189B01AC01D394D714AC
:1028400098F3C801B7010E94D8175B016C010E9480
:10285000AD187B018C01C401B801A7012AE030E06A
:102860000E942813C80FD91F772039F0C4016BEDDF
:1028700073E00E94A812C80FD91FC801B7010E94B7
:10288000D9189B01AC01C601B5010E94D71724C01D
:1028900020E030E040E251E40E94D4197B018C0139
:1028A0000E94A8185B016C01CC24B7FCC094DC2CFE
:1028B000C401B601A5012AE030E00E943713C80F19
:1028C000D91FC601B5010E94DB189B01AC01C801EC
:1028D000B7010E94D7177A947720D1F6CE01DF9105
:1028E000CF911F910F91FF90EF90DF90CF90BF900D
:1028F000AF909F908F907F900895EF92FF920F93EB
:102900001F937C010E9499138C01C7010E948812B9
:10291000080F191FC8011F910F91FF90EF900895A4
:10292000AF92BF92CF92DF92EF92FF920F931F93DD
:10293000CF93DF935C016B01EE24FF24C0E0D0E075
:1029400010C0D501ED91FC9100811181C601BE013D
:102950000E94D714682FC501F8011995E80EF91ED9
:102960002196F60184819581C817D90750F3C701D4
:10297000DF91CF911F910F91FF90EF90DF90CF905B
:10298000BF90AF900895EF92FF920F931F937C0139
:102990000E9490148C01C7010E9488129C01200F94
:1029A000311FC9011F910F91FF90EF900895FC0115
:1029B000848195816817790748F40190F081E02DB2
:1029C000309721F0E60FF71F8081089580E0089589
:1029D0000F931F93CF93DF93FC018B01411551059A
:1029E000F9F061157105E1F08481958128173907A7
:1029F00018F0FB01108214C041505040EC01C21B82
:102A0000D30B4C175D0708F4EA0160817181620FF6
:102A1000731FC801AE010E949C03C00FD11F188212
:102A2000DF91CF911F910F9108950F931F93CF9333
:102A3000DF93EC018B016F5F7F4F888199810E944A
:102A40008202009711F480E005C0998388831B837C
:102A50000A8381E0DF91CF911F910F910895CF9369
:102A6000DF93EC0188819981892B29F08A819B81F0
:102A70008617970760F4CE010E941515882341F050
:102A80008C819D81892B19F4E881F981108281E084
:102A9000DF91CF910895EF92FF920F931F93CF9301
:102AA000DF93EC017B016C817D81E114F104C1F0C5
:102AB0004115510599F08A01060F171FB8010E94B0
:102AC0002F15882369F0888199812C813D81820F9F
:102AD000931FB7010E9495031D830C8381E001C001
:102AE00080E0DF91CF911F910F91FF90EF900895BB
:102AF000DF93CF930F920F92CDB7DEB769831A821F
:102B0000BE016F5F7F4F41E050E00E944B150F9078
:102B10000F90CF91DF910895CF93DF93EC018881DF
:102B20009981009711F00E942A02198218821D8251
:102B30001C821B821A82DF91CF910895EF92FF923F
:102B40000F931F93CF93DF93EC017B018A01BA01AE
:102B50000E942F15882321F4CE010E948C1507C0F6
:102B60001D830C8388819981B7010E949503CE0152
:102B7000DF91CF911F910F91FF90EF900895CF9328
:102B8000DF93EC01198218821B821A821D821C823B
:102B90001E826115710551F0DB010D900020E9F7EF
:102BA0001197A61BB70BAD010E949E15DF91CF9127
:102BB0000895FC01808191810E942A0208950F935B
:102BC0001F938C01FC01868160E00E947F0D81E0F3
:102BD00090E00E942C0CF801868161E00E947F0D3C
:102BE00081E090E00E942C0CF801868160E00E9458
:102BF0007F0D84E690E00E942C0C1F910F910895A8
:102C0000CF92DF92EF92FF920F931F93CF93DF93B8
:102C1000D82EC92E282F392FC9018C01C0E0D0E051
:102C2000E62EFF24F801878161E00E94CC0CB701F9
:102C30000C2E02C0759567950A94E2F76170F80151
:102C400087810E947F0D21960F5F1F4FC830D105ED
:102C500049F78D2D9C2D0E94DF15DF91CF911F919B
:102C60000F91FF90EF90DF90CF900895CF92DF9279
:102C7000EF92FF920F931F93CF93DF93D82EC92E1D
:102C8000282F392FC9018C01C0E0D0E0E62EFF24A7
:102C9000F801878161E00E94CC0CB7010C2E02C0C4
:102CA000759567950A94E2F76170F80187810E9433
:102CB0007F0D21960F5F1F4FC430D10549F78D2D31
:102CC0009C2D0E94DF15DF91CF911F910F91FF90F6
:102CD000EF90DF90CF9008951F93CF93DF93EC0197
:102CE000162F8C81642F0E947F0D8D818F3F19F0EC
:102CF00060E00E947F0D8F8584FF05C0CE01612FAB
:102D00000E9400160EC0612F70E084E075956795F3
:102D10008A95E1F7CE010E943616CE01612F0E94FE
:102D20003616DF91CF911F91089541E00E946C16F5
:102D300081E090E0089540E00E946C160895FC0147
:102D40006089862F8460808B6C60CF010E949B1607
:102D50000895DF93CF93CDB7DEB728970FB6F894D9
:102D6000DEBF0FBECDBF9C01FE013196ACEFB3E0DC
:102D700088E00D9001928150E1F7F90183894817AD
:102D800010F0482F4150E42FF0E0EE0FFF1FEC0F42
:102D9000FD1F8181680F6068C9010E949B162896FB
:102DA0000FB6F894DEBF0FBECDBFCF91DF9108956F
:102DB00061E00E949B1680ED97E00E942C0C089524
:102DC000CF93DF93EC01423018F08F8588608F87B6
:102DD0004B8B1C8A222329F0413019F48F858460A3
:102DE0008F8780E593EC0E942C0C8C8160E00E9420
:102DF0007F0D8E8160E00E947F0D8D818F3F19F0E5
:102E000060E00E947F0D6F8564FD1DC0CE0163E010
:102E10000E94361684E991E10E942C0CCE0163E0F9
:102E20000E94361684E991E10E942C0CCE0163E0E9
:102E30000E94361686E990E00E942C0CCE0162E0DA
:102E40000E94361616C06062CE010E949B1684E96D
:102E500091E10E942C0C6F856062CE010E949B164E
:102E600086E990E00E942C0C6F856062CE010E9482
:102E70009B166F856062CE010E949B1684E0888B52
:102E8000CE010E949F16CE010E94D81682E0898B47
:102E9000CE0166E00E949B16DF91CF9108956F925C
:102EA0007F928F92AF92CF92EF920F931F93DF9307
:102EB000CF93CDB7DEB73C01162F842FF3014483A7
:102EC00025830683E782C086A18682869E859387B6
:102ED0009F859487988995879989968761E00E9454
:102EE000CC0CF30185818F3F19F061E00E94CC0C7E
:102EF000F301868161E00E94CC0C112319F0F301EB
:102F0000178603C080E1F3018787C30160E141E0D8
:102F100020E00E94E016CF91DF911F910F91EF907A
:102F2000CF90AF908F907F906F9008958F92AF92D7
:102F3000CF92EF920F931F93CF93DF93DC01362F45
:102F4000542F722F102FAE2C8C2C13961C921E9285
:102F5000129788EF93E011969C938E9300D00F9276
:102F6000EDB7FEB73196CDB7DEB719821182128266
:102F70001382CD0161E0432F2FEF052FE72EC12EE5
:102F80000E944F170F900F900F900F90DF91CF91ED
:102F90001F910F91EF90CF90AF908F900895911166
:102FA0006AC2803219F089508550D0F70895505880
:102FB000BB27AA270ED075C166D130F06BD120F0A7
:102FC00031F49F3F11F41EF45BC10EF4E095E7FB72
:102FD00051C1E92F77D180F3BA17620773078407CD
:102FE000950718F071F49EF58FC10EF4E0950B2E45
:102FF000BA2FA02D0B01B90190010C01CA01A0014B
:103000001124FF27591B99F0593F50F4503E68F1A5
:103010001A16F040A22F232F342F4427585FF3CFE6
:10302000469537952795A795F0405395C9F77EF4B7
:103030001F16BA0B620B730B840BBAF09150A1F000
:10304000FF0FBB1F661F771F881FC2F70EC0BA0F86
:10305000621F731F841F48F4879577956795B7950E
:10306000F7959E3F08F0B3CF9395880F08F0992706
:10307000EE0F979587950895D9D008F481E00895CB
:103080000CD00FC107D140F0FED030F021F45F3FEB
:1030900019F0F0C0511139C1F3C014D198F399233C
:1030A000C9F35523B1F3951B550BBB27AA2762170C
:1030B0007307840738F09F5F5F4F220F331F441F51
:1030C000AA1FA9F333D00E2E3AF0E0E830D0915089
:1030D0005040E695001CCAF729D0FE2F27D0660F76
:1030E000771F881FBB1F261737074807AB07B0E8B5
:1030F00009F0BB0B802DBF01FF2793585F4F2AF0CB
:103100009E3F510568F0B6C000C15F3FECF3983EAA
:10311000DCF3869577956795B795F7959F5FC9F727
:10312000880F911D9695879597F90895E1E0660FB0
:10313000771F881FBB1F621773078407BA0720F029
:10314000621B730B840BBA0BEE1F88F7E095089592
:1031500004D06894B111D9C00895BCD088F09F57AD
:1031600090F0B92F9927B751A0F0D1F0660F771FD3
:10317000881F991F1AF0BA95C9F712C0B13081F0B3
:10318000C3D0B1E00895C0C0672F782F8827B85FFB
:1031900039F0B93FCCF3869577956795B395D9F714
:1031A0003EF490958095709561957F4F8F4F9F4F1E
:1031B0000895E89409C097FB3EF49095809570952A
:1031C00061957F4F8F4F9F4F9923A9F0F92F96E973
:1031D000BB279395F695879577956795B795F111E8
:1031E000F8CFFAF4BB0F11F460FF1BC06F5F7F4F85
:1031F0008F4F9F4F16C0882311F096E911C0772397
:1032000021F09EE8872F762F05C0662371F096E89F
:10321000862F70E060E02AF09A95660F771F881F6E
:10322000DAF7880F9695879597F90895990F000812
:10323000550FAA0BE0E8FEEF16161706E807F90788
:10324000C0F012161306E407F50798F0621B730B23
:10325000840B950B39F40A2661F0232B242B252BA4
:1032600021F408950A2609F4A140A6958FEF811D47
:10327000811D089597F99F6780E870E060E00895E8
:103280009FEF80EC089500240A941616170618067E
:103290000906089500240A9412161306140605065A
:1032A0000895092E0394000C11F4882352F0BB0FEB
:1032B00040F4BF2B11F460FF04C06F5F7F4F8F4F4E
:1032C0009F4F089557FD9058440F551F59F05F3F89
:1032D00071F04795880F97FB991F61F09F3F79F038
:1032E00087950895121613061406551FF2CF4695BA
:1032F000F1DF08C0161617061806991FF1CF86953C
:103300007105610508940895E894BB27662777271F
:10331000CB0197F908958ADF08F48FEF08950EF036
:10332000ADC0AECF6894A6CFD5DFC8F39923D1F353
:10333000C6F3DF93CF931F930F93FF92C92FDD271F
:1033400088232AF02197660F771F881FDAF720E07D
:1033500030E040E85FEB9FE3883920F0803E30F0BA
:1033600021968F7725DEE4EEF0E003C021DEE1E177
:10337000F1E094D08B01BE01EC01FB2E6F57710977
:103380007595771F880B990B16DF28E132E741E32B
:103390005FE316D0AF2D9801AE01FF900F911F9102
:1033A000CF91DF9116DE7DCF0BD07BCF6CDF28F085
:1033B00071DF18F0952309F05DCF62CF1124A5CFFE
:1033C00081DFA0F3959FD1F3950F50E0551F629FC9
:1033D000F001729FBB27F00DB11D639FAA27F00D6E
:1033E000B11DAA1F649F6627B00DA11D661F829F95
:1033F0002227B00DA11D621F739FB00DA11D621F7A
:10340000839FA00D611D221F749F3327A00D611D96
:10341000231F849F600D211D822F762F6A2F112478
:103420009F5750408AF0E1F088234AF0EE0FFF1FCB
:10343000BB1F661F771F881F91505040A9F79E3F02
:10344000510570F017CF61CF5F3FECF3983EDCF38E
:10345000869577956795B795F795E7959F5FC1F73F
:10346000FE2B880F911D9695879597F90895DEDEBE
:10347000880B990B08959927882708959F3F49F055
:10348000915028F4869577956795B7959F5F80381A
:103490009F4F880F9695879597F90895DF93CF935F
:1034A0001F930F93FF92EF92DF927B018C01689440
:1034B00005C0DA2EEF0184DFFE01E894A591259185
:1034C000359145915591AEF3EF0183DDFE019701F2
:1034D000A801DA9479F7DF90EF90FF900F911F9198
:1034E000CF91DF910895629FD001739FF001829F79
:1034F000E00DF11D649FE00DF11D929FF00D839F83
:10350000F00D749FF00D659FF00D9927729FB00D1F
:10351000E11DF91F639FB00DE11DF91FBD01CF0132
:1035200011240895AA1BBB1B51E107C0AA1FBB1F92
:10353000A617B70710F0A61BB70B881F991F5A953F
:10354000A9F780959095BC01CD01089597FB092EB0
:1035500007260AD077FD04D0E5DF06D000201AF454
:10356000709561957F4F0895F6F7909581959F4FDF
:103570000895A1E21A2EAA1BBB1BFD010DC0AA1FB4
:10358000BB1FEE1FFF1FA217B307E407F50720F0CC
:10359000A21BB30BE40BF50B661F771F881F991F47
:1035A0001A9469F760957095809590959B01AC0190
:1035B000BD01CF0108952F923F924F925F926F927B
:1035C0007F928F929F92AF92BF92CF92DF92EF92B3
:1035D000FF920F931F93CF93DF93CDB7DEB7CA1B34
:1035E000DB0B0FB6F894DEBF0FBECDBF19942A884F
:1035F000398848885F846E847D848C849B84AA8407
:10360000B984C884DF80EE80FD800C811B81AA8193
:10361000B981CE0FD11D0FB6F894DEBF0FBECDBF5E
:10362000ED010895EE0FFF1F0590F491E02D199420
:04363000F894FFCF3C
:103634002C0000720D00434F554E5445523A200061
:103644000000000000000000000000572E646570B8
:1036540074683A200000000000000000572E696ED4
:10366400636865733A2000000000000000454D5077
:1036740054592120004C4F572120004E4F524D41A8
:103684004C2000544F4F204849474821200057619F
:103694007465722074656D703A2000000000005754
:1036A400617465723A200000000000000000000010
:1036B400506C616E742074656D703A2000000000D7
:1036C40000000043000048756D69646974793A200C
:1036D4000000000000000000002500005761746530
:1036E400722050504D3A20000000000000576174D1
:1036F40065722070483A200000000000000000724B
:103704000D0053656E736F72737472696E673A203D
:1037140000666C6F61742070483A00526F756E6475
:10372400656420617665726167653A2000417320A3
:1037340028696E74293A20004D6973746572204FAC
:103744004E202020202000004D69737465722046AD
:10375400616E204F4E2000004D6973746572204FD6
:1037640046462020202000004D697374657220466F
:10377400616E204F46460000546F6F20686F7421BD
:10378400203E32364300005374617274696E6720C0
:1037940066616E210000546F6F2068756D69642145
:1037A400000052656164696E6720704800006C65B2
:1037B40076656C20696E2077617465722E2E000028
:1037C40052656164696E67206E75747269656E74A2
:1037D400000043616C6962726174696E6700202045
:1037E4000073656E736F72732E2E2E0020202000DE
:1037F40053656E736F7273206F6B61792E00006E68
:10380400616E00696E66006F7666002E00200021EE
:103814000800000100000000E8105E127E10AF10E6
:103824008F10D8100000000095165E1200004000B2
:043834001400540028
:00000001FF
