:100000000C9424010C9451010C9451010C94510155
:100010000C9451010C9451010C9451010C94510118
:100020000C9451010C9451010C9451010C94510108
:100030000C9451010C9451010C9451010C945101F8
:100040000C9451010C9451010C9451010C945101E8
:100050000C9451010C9451010C9451010C94100A10
:100060000C9451010C94040C0C944C0D0C94510103
:100070000C9451010C9451010C9451010C945101B8
:100080000C9451010C9451010C9451010C945101A8
:100090000C94440C0C948B0D0C9451010C94510154
:1000A0000C9451010C9451010C9451010C94510188
:1000B0000C9451010C9451010C9451010C94510178
:1000C0000C9451010C9451010C9451010C94840C2A
:1000D0000C94CA0D0C9451010C94C40C0C94090E90
:1000E0000C94510100002100240027002A002D005B
:1000F0003000330001010000040107010A01000083
:100100002200250028002B002E00310034000201BF
:100110000000050108010B0100002000230026005B
:1001200029002C002F00320000010000030106010D
:10013000090105050505070508080808020202026D
:100140000A0A080804040404010101010101010173
:100150000303030303030303040707070C0C0C0C3E
:100160000C0C0C0C02020202060606060606060627
:100170000B0B0B0B0B0B0B0B0102102020080810B4
:100180002040102040800201020108040201010207
:1001900004081020408080402010080402018004E0
:1001A000020180402010080402010804020101023B
:1001B0000408102040800102040810204080000044
:1001C000090A02080B0C0D070603040100000000D9
:1001D000000000000000000000000000000000001F
:1001E0000000000000000000000011100F000000DF
:1001F00000000000000000000000000000000000FF
:1002000000000000494E46494E4954594E414ECDDA
:10021000CCCC3D0AD7233C17B7D13877CC2B3295BD
:1002200095E6241FB14F0A000020410000C842009B
:10023000401C4620BCBE4CCA1B0E5AAEC59D740065
:100240003B0677088708790F11241FBECFEFD1E254
:10025000DEBFCDBF00E00CBF14E0A0E0B2E0E2EEF4
:10026000F1E300E00BBF02C007900D92A631B10789
:10027000D9F71BBE18E0A6E1B4E001C01D92A3337C
:10028000B107E1F712E0C8E4D2E004C02297FE0112
:100290000E94EB18C034D107C9F70E94010A0C94E0
:1002A0004C030C940000CF93DF93BC018230910586
:1002B00010F462E070E0A0912F08B0913008ED01D9
:1002C000E0E0F0E040E050E021C0888199818617AD
:1002D000970769F48A819B81309719F09383828311
:1002E00004C09093300880932F08FE0134C0681733
:1002F000790738F44115510519F08417950708F46A
:10030000AC01FE018A819B819C01E9012097E9F6FD
:1003100041155105A9F1CA01861B970B049708F4F2
:10032000BA01E0E0F0E02AC08D919C91119784170A
:100330009507F9F46417750781F412968D919C91D5
:100340001397309719F09383828304C090933008F9
:1003500080932F08FD0132964CC0CA01861B970B73
:10036000FD01E80FF91F6193719302978D939C93A0
:1003700040C0FD01828193819C01D9011097A1F6B3
:1003800080912D0890912E08892B41F48091F203E1
:100390009091F30390932E0880932D084091F403DD
:1003A0005091F5034115510541F44DB75EB7809169
:1003B000F0039091F103481B590B20912D083091C7
:1003C0002E08CA01821B930B8617970780F0AB019A
:1003D0004E5F5F4F8417950750F0420F531F5093A5
:1003E0002E0840932D08F9016193719302C0E0E05B
:1003F000F0E0CF01DF91CF910895CF93DF93009785
:1004000009F450C0EC0122971B821A82A0912F0898
:10041000B0913008109709F140E050E0AC17BD07EB
:1004200008F1BB83AA83FE0121913191E20FF31FF2
:10043000AE17BF0779F48D919C911197280F391F42
:100440002E5F3F4F3983288312968D919C9113978D
:100450009B838A834115510571F4D0933008C09372
:100460002F0820C012968D919C911397AD01009793
:1004700011F0DC01D3CFFA01D383C28321913191F2
:10048000E20FF31FCE17DF0769F488819981280FE7
:10049000391F2E5F3F4FFA01318320838A819B8170
:1004A00093838283DF91CF910895A0E0B0E0EBE5E4
:1004B000F2E00C94B4186C01009729F4CB010E946F
:1004C00053016C01C1C08EEF882E8FEF982E8C0CDB
:1004D0009D1C8601060F171F0815190508F4B2C0E8
:1004E000F401A081B181A617B707B8F0A530B10516
:1004F00008F4AAC0CD0104978617970708F4A4C092
:100500001297A61BB70BF801A193B193D4016D9379
:100510007C93CF010E94FD0197C07B01EA1AFB0A80
:10052000EEEFFFEFEE0EFF1E36016A0E7B1EC0914E
:100530002F08D091300844245524AA24BB244AC053
:10054000C615D705E1F5488159814E155F05B8F10B
:10055000CA0104978E159F05B0F41296A40FB51F1B
:10056000F401B183A0832A813B814114510431F00D
:10057000D20113963C932E93129766C030933008A5
:1005800020932F0861C08A819B81F8019383828325
:10059000425050404E195F09518340834114510429
:1005A00031F0D20113961C930E93129704C010934E
:1005B000300800932F08F4017183608345C088815F
:1005C0009981A816B90608F45C012E018A819B81E5
:1005D0009C01E901209709F0B3CF80912D089091FB
:1005E0002E0886159705E9F4A616B706D0F42091D3
:1005F000F4033091F5032115310541F42DB73EB7D1
:100600008091F0039091F103281B390B0217130717
:10061000C8F410932E0800932D08D4016D937C9399
:1006200013C0CB010E945301EC01009759F0F40173
:1006300040815181B6010E945403C6010E94FD0110
:100640006E0102C0CC24DD24C601CDB7DEB7E0E1E7
:100650000C94D018662777270C94D903FC018827BF
:100660009927E89421912032E9F3293010F02E30B7
:10067000C8F32B3241F02D3239F4689404C00E9443
:10068000D103820F911D219120532A30C0F31EF413
:10069000909581959F4F0895F8940C94EF1846E13A
:1006A00054E00E947E030895FB01DC0102C001902A
:1006B0000D9241505040D8F70895FB01DC010D9098
:1006C0000020E9F7119701900D920020E1F70895BD
:1006D000FB01DC0101900D920020E1F70895FB0180
:1006E000DC014150504048F001900D920020C9F7C4
:1006F00001C01D9241505040E0F70895009731F439
:10070000DA018D919C91009709F40EC0DC01FB0188
:100710003D912191222319F03217C9F3FACF3323E7
:1007200031F4DA011D921C928827992708951197B8
:10073000AF93BF93FB013D912191321771F43323A5
:1007400021F488279927119702C01E921196FA0169
:10075000A193B0839F918F910895222369F7EACFE7
:10076000FB019F01E8944230C4F04532B4F44A30B2
:1007700029F497FB1EF4909581959F4F642F77275E
:100780000E946918805D8A330CF0895D8193CB01EA
:100790000097A1F716F45DE251931082C9010C9401
:1007A00051057AE0979F902D879F802D910D112400
:1007B0000895A0E0B0E0EFEDF3E00C94B818EC0180
:1007C0005B016115710519F0FB0191838083F9903C
:1007D0008F2D90E00E942016892BC9F7FDE2FF16AD
:1007E00021F4F990EE24E39405C02BE2F21609F40B
:1007F000F990EE248E0101501040C80164E072E0CF
:1008000043E050E00E943905892B01F58E010E5F0F
:100810001F4FC80167E072E045E050E00E943905D3
:10082000892B19F48E01095F1F4FA114B10419F02F
:10083000F50111830083E0FC04C070E090E080E8E3
:1008400014C070E090E080E86FEF08C1C8016CE070
:1008500072E043E050E00E943905892B69F4A1144D
:10086000B10429F470E090E080EC6FE7F7C02296C5
:10087000F501D183C083F6CF8824992440E050E06D
:1008800060E070E0EF2DE053EA30A0F5F2E0EF2AEF
:100890008E2D90E09C0128703070E2FE06C0232B64
:1008A00079F50894811C911C2BC0232B19F0089416
:1008B00081089108DB01CA0112E0880F991FAA1F65
:1008C000BB1F1A95D1F7480F591F6A1F7B1F440F92
:1008D000551F661F771F4E0F511D611D711D483931
:1008E00029E9520729E9620729E1720748F084E003
:1008F000E82A06C0EE3F31F4E3FC39C098E0E92A6B
:10090000F990C0CFE53311F0E53189F529912D3209
:1009100019F4E0E1EE2A05C02B3219F081E090E0F5
:1009200003C0299182E090E0E22FE053EA3018F012
:10093000C81BD90B1CC020E030E0FCE020383F078A
:100940005CF4C901880F991F880F991F280F391F60
:10095000220F331F2E0F311DE991E053EA3068F367
:10096000E4FE03C0309521953F4F820E931ECE2C9E
:10097000DD24E1FE07C0A114B10421F02197F501A7
:10098000D183C083CB01BA010E942A177B018C015D
:10099000F3E0CF22DD2423E0C216D10421F417FBBB
:1009A000109517F9109557016801C801B70120E0AB
:1009B00030E040E050E00E948D16882309F44AC0E0
:1009C00097FE0DC023E2E22E22E0F22E9094819455
:1009D00091089394C0E2D0E000E010E012C09BE3E5
:1009E000E92E92E0F92EF6CFF70125913591459148
:1009F0005491C601B5010E94E0175B016C018C1A8D
:100A00009D0A8C169D0684F7D595C7950F5F1F4FDD
:100A10000630110529F08CEF9FEFE80EF91EF1CF9B
:100A2000C501D6017C018D018C2D880F8D2D881F6D
:100A30008F3F51F0C601B50120E030E040E050E0CA
:100A40000E948D16882331F482E290E09093320860
:100A5000809331087E2D9F2D802F612F272F392FD6
:100A6000482F562FB901CA01CDB7DEB7ECE00C9480
:100A7000D418FB01DC014150504088F08D91813445
:100A80001CF08B350CF4805E659161341CF06B3585
:100A90000CF4605E861B611171F3990B0895881B3D
:100AA000FCCFDC01FC01672F71917723E1F73297CE
:100AB00004C07C916D9370836291AE17BF07C8F339
:100AC000089508950F931F93DF93CF93CDB7DEB7AB
:100AD0002A970FB6F894DEBF0FBECDBFFC01E05CD5
:100AE000FF4F8081918160E072E00E944F039A8302
:100AF00089838E010F5F1F4F09C080E090E060E0A6
:100B000072E00E944F03F80191838083F801819184
:100B100091918F01892B89F78B819C810E942E03F3
:100B20002A960FB6F894DEBF0FBECDBFCF91DF91EE
:100B30001F910F910895EF92FF920F931F93CF9300
:100B4000DF93EC018C01005C1F4F82E092E0F80122
:100B50009183808389EE97E063E072E00E94E71161
:100B600082E4E82EF12CEC0EFD1E10C089EE97E019
:100B70000E94000FF7018083992787FD9095F80167
:100B800020813181280F391F3183208389EE97E03E
:100B90000E94CF0E181619064CF3CE010E94620572
:100BA000DF91CF911F910F91FF90EF900895AF9239
:100BB000BF92CF92DF92EF92FF920F931F93DF933A
:100BC000CF93CDB7DEB7EC970FB6F894DEBF0FBE6C
:100BD000CDBF6C017E010894E11CF11C87019DE3EF
:100BE000A92EB12CAC0EBD1EC6010E949B05F801BA
:100BF000819391938F01EA15FB05B1F720E030E076
:100C0000F701819191917F01280F391FE017F107BA
:100C1000B9F7C9016EE170E00E947D18CB01F601C1
:100C200060839183EC960FB6F894DEBF0FBECDBF04
:100C3000CF91DF911F910F91FF90EF90DF90CF90B8
:100C4000BF90AF9008950F931F938C0189EE97E0AA
:100C500040E056E960E070E00E94480EF80117AEEF
:100C600016AE80E090E01F910F91089570932E04CE
:100C700060932D040895CF92EF920F9388E194E052
:100C800062E043E024E005E056E0E52E37E0C32EC5
:100C90000E94E7150F91EF90CF90089588E194E0BE
:100CA0000E9429150895EF92FF920F931F93DF93EF
:100CB000CF93CDB7DEB765970FB6F894DEBF0FBE02
:100CC000CDBF8B01DE011596E6E0F2E08AE00190EF
:100CD0000D928150E1F7FE013F9687E0DF011D9202
:100CE0008A95E9F78091170290911802A091190254
:100CF000B0911A0289839A83AB83BC8388E194E024
:100D00000E94291588E194E060E040E00E94FA1416
:100D1000C8017E010894E11CF11CB7014AE050E0D3
:100D20000E94B0038E010B5F1F4FC801B7010E94E4
:100D30005D0388E194E0B8010E94E71165960FB663
:100D4000F894DEBF0FBECDBFCF91DF911F910F9101
:100D5000FF90EF900895EF92FF920F931F93262F2D
:100D60007A0108E114E0C80160E0422F0E94FA1401
:100D7000C801B7010E94E7111F910F91FF90EF90FA
:100D80000895EF92FF920F931F93DF93CF93CDB708
:100D9000DEB7AC970FB6F894DEBF0FBECDBFDE0155
:100DA0001B96ECEAF2E08CE001900D928150E1F7A5
:100DB000FE01779685E0DF011D928A95E9F7DE0155
:100DC0001196E1E9F2E085E001900D928150E1F7A2
:100DD00088E194E00E94291588E194E060E040E019
:100DE0000E94FA14E0912D04F0912E0484859585DB
:100DF0007E010894E11CF11CB7014AE050E00E941A
:100E0000B0038E01055F1F4FC801B7010E945D034B
:100E100088E194E0B8010E94E711DE015C96EDEBF9
:100E2000F2E08BE001900D928150E1F7FE01B79660
:100E300086E0DF011D928A95E9F7DE011696E7EA62
:100E4000F2E085E001900D928150E1F788E194E0B5
:100E500060E041E00E94FA14E0912D04F0912E042C
:100E6000A6E0EA2EF12CEC0EFD1E86859785B701D3
:100E70004AE050E00E94B0038E01045E1F4FC8019B
:100E8000B7010E945D0388E194E0B8010E94E71178
:100E9000AC960FB6F894DEBF0FBECDBFCF91DF91F9
:100EA0001F910F91FF90EF9008950F931F9308E10A
:100EB00014E0C80160E142E020E00E943115C80161
:100EC00060E00E94E6141F910F9108950895CF925B
:100ED000DF92EF92FF920F931F93DF93CF93CDB7E3
:100EE000DEB7AF970FB6F894DEBF0FBECDBF7C0163
:100EF0008E010F5F1F4FC8016EEC72E00E9410144C
:100F0000C8016EE170E00E948013FE01389688E20D
:100F1000DF011D928A95E9F78BE098E06FEC72E0B3
:100F20000E94E71168EE73E080E090E00E94580AAA
:100F3000D02EC12E0BC08BE098E00E94000F682FCE
:100F4000F70184A78D2D9C2D0E94C9138BE098E09A
:100F50000E94CF0E1816190674F38E01085F1F4FFA
:100F60008D2D9C2DB80146E050E020E030E00E943D
:100F700039131D86C8010E942A03162F072FF82E49
:100F8000E92E85EA97E062ED72E00E94E71185EABA
:100F900097E06D2D7C2D0E94141385EA97E061EE99
:100FA00072E00E94E71185EA97E0212F302FEF2DA4
:100FB000FE2DA901BF0122E030E00E94CE128D2D4E
:100FC0009C2D0E942A14212F302F4F2D5E2DB90108
:100FD000CA01AF960FB6F894DEBF0FBECDBFCF915A
:100FE000DF911F910F91FF90EF90DF90CF900895C8
:100FF000CF92DF92EF92FF920F931F93CF93DF93E5
:101000006C01C0E0D0E00F2EF0E0EF2EF0E0FF2EFC
:10101000F0E00F2FF0E01F2FF02DC6010E946707B0
:101020009B01AC01C801B7010E9429167B018C010C
:101030002196CA30D10589F720E030E040E251E442
:101040000E9491167B018C01CB01D801F6018083AF
:101050009183A283B38385EA97E06BEE72E00E94EE
:10106000E711F601408151816281738185EA97E041
:1010700022E030E00E94CE1285EA97E06DEF72E048
:101080000E94E711F60160817181828193810E9443
:10109000F9169B01AC0185EA97E0B9014AE050E0FE
:1010A0000E94C811B701C801DF91CF911F910F9124
:1010B000FF90EF90DF90CF9008958BE098E040E0B4
:1010C00056E960E070E00E94480E80E090E00895EC
:1010D000FC01862F6083718361E00E941D0B0895DF
:1010E000FC017183608353834283089508958FE2E6
:1010F00094E065E370E044E350E00E9470080895D6
:101100000895FC01E056FF4F1182108208950F935D
:101110001F9305E314E08CE1F80111928A95E9F739
:1011200081E594E00E94760882E594E00E948108BF
:1011300088EF94E0B8010E94360689EF94E00E949F
:1011400080088AEF94E06FE170E00E9468088CEFFD
:1011500094E06EE170E00E9468088EEF94E063E234
:1011600070E00E94680880E095E060E270E00E9414
:10117000680882E095E061E270E00E94680884E01F
:1011800095E062E270E00E94680886E095E00E94C7
:1011900061058BE495E00E9466071F910F91089509
:1011A00080917A0590917B05019690937B058093C1
:1011B0007A0564EC79E080E090E00E94580A609142
:1011C0007A0570917B0588EF94E040E050E00E9442
:1011D000530680917A0590917B0564EB70E00E9444
:1011E0007D18892B81F510927B0510927A0588EF86
:1011F00094E00E944E0688EF94E060E070E048E0E2
:1012000053E00E94AB0688EF94E061E070E048E1B3
:1012100053E00E94AB0680E097E80E94B10A88EF95
:1012200094E00E944E0688EF94E060E070E048E2AF
:1012300053E00E94AB0688EF94E061E070E048E381
:1012400053E00E94AB0660913504709136048091A2
:1012500037049091380420E030E040ED51E40E94E2
:10126000DC178823A4F088EF94E00E944E0688EFF4
:1012700094E060E070E048E453E00E94AB0688EF41
:1012800094E061E070E047E553E00E94AB066091B6
:10129000390470913A0480913B0490913C0420E021
:1012A00030E040E752E40E94DC178823A4F088EF86
:1012B00094E00E944E0688EF94E060E070E046E61D
:1012C00053E00E94AB0688EF94E061E070E047E5F0
:1012D00053E00E94AB0660ED77E080E090E00E9472
:1012E000580A88EF94E00E944E0688EF94E060E090
:1012F00070E042E753E00E94AB0688EF94E061E0C3
:1013000070E04EE753E00E94AB068BE495E00E944C
:10131000F80760914B0570914C0580914D059091B7
:101320004E050E94F916709344046093430488EFBD
:1013300094E00E944E0688EF94E060E070E040E99F
:1013400053E00E94AB0688EF94E061E070E04EE766
:1013500053E00E94AB0686E095E00E94D70580919D
:10136000060590910705909342048093410488EF0D
:1013700094E00E94C10660ED77E080E090E00E947A
:10138000580A08950F931F9308EF14E0C8010E94B4
:101390005507C8010E944E06C80160E070E042EAAD
:1013A00053E00E94AB06C80161E070E041EB53E0FE
:1013B0000E94AB06C8010E944E06C80160E070E0C2
:1013C00040EC53E00E94AB0686E095E00E942306C5
:1013D0008BE495E00E945D0810927B0510927A05DF
:1013E00005EA17E0C80140E855E260E070E00E94BD
:1013F000480EC8016FEC73E00E94E7111F910F9136
:101400000895CF93DF930E94BB0A0E94C209C3E0F4
:10141000DDE00E94D0082097E1F30E94030DF9CF90
:101420001F920F920FB60F9211242F933F938F9319
:101430009F93AF93BF938091800590918105A09178
:101440008205B0918305309184050196A11DB11DDF
:10145000232F2D5F2D3720F02D570196A11DB11D93
:10146000209384058093800590938105A093820545
:10147000B093830580917C0590917D05A0917E05B8
:10148000B0917F050196A11DB11D80937C059093BD
:101490007D05A0937E05B0937F05BF91AF919F918D
:1014A0008F913F912F910F900FBE0F901F90189525
:1014B0009B01AC017FB7F89480917C0590917D05EC
:1014C000A0917E05B0917F0566B5A89B05C06F3FD2
:1014D00019F00196A11DB11D7FBFBA2FA92F982F1A
:1014E0008827860F911DA11DB11D62E0880F991FED
:1014F000AA1FBB1F6A95D1F7BC012DC0FFB7F89496
:1015000080917C0590917D05A0917E05B0917F052D
:10151000E6B5A89B05C0EF3F19F00196A11DB11DCE
:10152000FFBFBA2FA92F982F88278E0F911DA11DBD
:10153000B11DE2E0880F991FAA1FBB1FEA95D1F7E2
:10154000861B970B885E9340C8F221503040404084
:10155000504068517C4F211531054105510571F608
:101560000895019739F0880F991F880F991F0297E6
:101570000197F1F70895789484B5826084BD84B5AD
:10158000816084BD85B5826085BD85B5816085BD7E
:10159000EEE6F0E0808181608083E1E8F0E0108297
:1015A000808182608083808181608083E0E8F0E0D8
:1015B000808181608083E1EBF0E0808184608083C2
:1015C000E0EBF0E0808181608083E1E9F0E0808100
:1015D00082608083808181608083E0E9F0E08081A7
:1015E00081608083E1EAF0E0808182608083808195
:1015F00081608083E0EAF0E0808181608083E1E2C5
:10160000F1E0808182608083808181608083E0E27C
:10161000F1E0808181608083EAE7F0E0808184608E
:1016200080838081826080838081816080838081EB
:10163000806880831092C1000895CF93DF93482F74
:1016400050E0CA0188589E4FFC0134914E5C5E4FB9
:10165000FA018491882369F190E0880F991FFC01B9
:10166000EC51FF4FA591B491FC01E250FF4FC591A1
:10167000D491662351F42FB7F8948C91932F9095C1
:1016800089238C93888189230BC0623061F42FB742
:10169000F8948C91932F909589238C938881832B38
:1016A00088832FBF06C09FB7F8948C91832B8C93AF
:1016B0009FBFDF91CF910895893009F449C08A30E6
:1016C000A0F4843051F1853040F4823079F18330D8
:1016D00000F5813009F063C026C0873079F1883089
:1016E00098F5863009F05BC025C08D3009F442C002
:1016F0008E3028F48B30B1F18C30C0F52DC08031A4
:1017000009F442C0813109F445C08F3009F047C067
:1017100037C0809180008F7703C0809180008F7DDB
:1017200080938000089584B58F7702C084B58F7D43
:1017300084BD08958091B0008F7703C08091B00080
:101740008F7D8093B0000895809190008F7707C0BF
:10175000809190008F7D03C080919000877F80935F
:10176000900008958091A0008F7707C08091A0001D
:101770008F7D03C08091A000877F8093A000089593
:10178000809120018F7703C0809120018F7D80930D
:101790002001089580912001877F80932001089582
:1017A000FF920F931F93F62E482F50E0CA018254E8
:1017B0009E4FFC012491CA0188589E4FFC01149150
:1017C0004E5C5E4FFA0104910023C9F0222319F008
:1017D000822F0E945C0BE02FF0E0EE0FFF1FE25023
:1017E000FF4FA591B4919FB7F894FF2021F48C91FD
:1017F0001095812302C08C91812B8C939FBF1F91E8
:101800000F91FF90089508951F920F920FB60F92B7
:101810000BB60F9211242F933F934F938F939F9367
:10182000EF93FF938091C00082FD1DC04091C600E0
:101830002091C5053091C6052F5F3F4F2F73307043
:101840008091C7059091C8052817390771F0E0917C
:10185000C505F091C605EB57FA4F40833093C60596
:101860002093C50502C08091C600FF91EF919F9122
:101870008F914F913F912F910F900BBE0F900FBE04
:101880000F901F90189508951F920F920FB60F9208
:101890000BB60F9211242F933F934F938F939F93E7
:1018A000EF93FF938091C80082FD1DC04091CE0050
:1018B00020914D0630914E062F5F3F4F2F733070B1
:1018C00080914F06909150062817390771F0E091EA
:1018D0004D06F0914E06E35FF94F408330934E067C
:1018E00020934D0602C08091CE00FF91EF919F9111
:1018F0008F914F913F912F910F900BBE0F900FBE84
:101900000F901F90189508951F920F920FB60F9287
:101910000BB60F9211242F933F934F938F939F9366
:10192000EF93FF938091D00082FD1DC04091D600BF
:101930002091D5063091D6062F5F3F4F2F73307020
:101940008091D7069091D8062817390771F0E09159
:10195000D506F091D606EB56F94F40833093D60664
:101960002093D50602C08091D600FF91EF919F9100
:101970008F914F913F912F910F900BBE0F900FBE03
:101980000F901F90189508951F920F920FB60F9207
:101990000BB60F9211242F933F934F938F939F93E6
:1019A000EF93FF938091300182FD1DC0409136017D
:1019B00020915D0730915E072F5F3F4F2F7330708E
:1019C00080915F07909160072817390771F0E091C7
:1019D0005D07F0915E07E35EF84F408330935E074A
:1019E00020935D0702C080913601FF91EF919F9196
:1019F0008F914F913F912F910F900BBE0F900FBE83
:101A00000F901F901895E091B107F091B207E05C3C
:101A1000FF4F8191919120813181821B930B8F73B4
:101A20009070892B11F00E94030CE091D307F09184
:101A3000D407E05CFF4F8191919120813181821B1D
:101A4000930B8F739070892B11F00E94430CE091DF
:101A5000F507F091F607E05CFF4F819191912081AD
:101A60003181821B930B8F739070892B11F00E9430
:101A7000830CE0911708F0911808E05CFF4F81910A
:101A8000919120813181821B930B8F739070892BF0
:101A900011F00E94C30C08951F920F920FB60F927F
:101AA0000BB60F9211242F933F938F939F93EF9335
:101AB000FF932091090630910A0680910B069091C0
:101AC0000C062817390731F48091C1008F7D80936F
:101AD000C10014C0E0910B06F0910C06E753FA4FD9
:101AE000208180910B0690910C0601968F73907067
:101AF00090930C0680930B062093C600FF91EF9104
:101B00009F918F913F912F910F900BBE0F900FBE21
:101B10000F901F9018951F920F920FB60F920BB651
:101B20000F9211242F933F938F939F93EF93FF93E3
:101B3000209191063091920680919306909194069F
:101B40002817390731F48091C9008F7D8093C9002F
:101B500014C0E0919306F0919406EF5AF94F20815A
:101B6000809193069091940601968F739070909354
:101B70009406809393062093CE00FF91EF919F915E
:101B80008F913F912F910F900BBE0F900FBE0F9032
:101B90001F9018951F920F920FB60F920BB60F92CF
:101BA00011242F933F938F939F93EF93FF93209153
:101BB000190730911A0780911B0790911C0728176D
:101BC000390731F48091D1008F7D8093D10014C00A
:101BD000E0911B07F0911C07E752F94F208180919B
:101BE0001B0790911C0701968F73907090931C07B0
:101BF00080931B072093D600FF91EF919F918F91C7
:101C00003F912F910F900BBE0F900FBE0F901F9022
:101C100018951F920F920FB60F920BB60F921124C8
:101C20002F933F938F939F93EF93FF932091A1075F
:101C30003091A2078091A3079091A4072817390734
:101C400031F4809131018F7D8093310114C0E09196
:101C5000A307F091A407EF59F84F20818091A307C3
:101C60009091A40701968F7390709093A40780932E
:101C7000A30720933601FF91EF919F918F913F91A0
:101C80002F910F900BBE0F900FBE0F901F901895C5
:101C9000AF92BF92DF92EF92FF920F931F93CF9379
:101CA000DF93EC017A018B01DD24403081EE58078F
:101CB00080E0680780E0780711F0DD24D39491E09C
:101CC000A92EB12CEC89FD89DD2069F0C50108A0A1
:101CD00002C0880F991F0A94E2F7808360E079E0E0
:101CE0008DE390E005C0108260E874E88EE190E03A
:101CF000A80197010E949018215030404040504068
:101D0000569547953795279580E12030380720F084
:101D1000DD2011F0DD24D6CFE889F9893083EA8906
:101D2000FB89208319A2EE89FF89408121E030E000
:101D3000C9010C8C02C0880F991F0A94E2F7482B46
:101D40004083EE89FF894081C9010D8C02C0880F54
:101D5000991F0A94E2F7482B4083EE89FF8940815E
:101D6000C9010E8C02C0880F991F0A94E2F7482B14
:101D70004083EE89FF8980810F8C02C0220F331FC0
:101D80000A94E2F7209528232083DF91CF911F91B9
:101D90000F91FF90EF90DF90BF90AF900895DC011E
:101DA0001C96ED91FC911D97E05CFF4F21913191C4
:101DB00080819181281B390B2F733070C9010895E0
:101DC000DC011C96ED91FC911D97E05CFF4F20819A
:101DD0003181E054F040DF01AE5BBF4F8D919C91AB
:101DE00011972817390719F42FEF3FEF07C08D918E
:101DF0009C91E80FF91F8081282F30E0C9010895D8
:101E0000DC011C96ED91FC911D97E05CFF4F208159
:101E10003181E054F040DF01AE5BBF4F8D919C916A
:101E200011972817390719F42FEF3FEF10C08D9144
:101E30009C911197E80FF91F20818D919C9111972A
:101E400001968F73907011969C938E9330E0C90128
:101E50000895DC0191968C919197882339F05496DE
:101E6000ED91FC915597808186FFF9CF91961C9258
:101E70000895CF93DF93EC01EE85FF85E05CFF4F83
:101E800020813181E054F0402F5F3F4F2F7330703D
:101E9000DF01AE5BBF4F8D919C91119728173907D9
:101EA000D1F3E05CFF4F80819181E054F040E80F76
:101EB000F91F6083EE85FF85E05CFF4F318320834F
:101EC000EE89FF89208181E090E00F8C02C0880FAD
:101ED000991F0A94E2F7282B208381E089A3EC89DB
:101EE000FD8980818064808381E090E0DF91CF91E3
:101EF00008951F931092A8071092A70728EE33E0C9
:101F000040E050E02093A9073093AA074093AB0725
:101F10005093AC076AEF73E07093A6076093A50730
:101F200085E895E09093B2078093B10789EC95E03E
:101F30009093B4078093B30785EC90E09093B60735
:101F40008093B50784EC90E09093B8078093B7072F
:101F500080EC90E09093BA078093B90781EC90E011
:101F60009093BC078093BB0782EC90E09093BE07F0
:101F70008093BD0786EC90E09093C0078093BF07E5
:101F800014E01093C107B3E0B093C207A7E0A09399
:101F9000C307F5E0F093C407E1E0E093C5071092B2
:101FA000CA071092C9072093CB073093CC07409300
:101FB000CD075093CE077093C8076093C7078DE095
:101FC00096E09093D4078093D30781E596E09093B1
:101FD000D6078093D5078DEC90E09093D807809337
:101FE000D7078CEC90E09093DA078093D90788ECC0
:101FF00090E09093DC078093DB0789EC90E090936E
:10200000DE078093DD078AEC90E09093E0078093F1
:10201000DF078EEC90E09093E2078093E107109346
:10202000E307B093E407A093E507F093E607E09396
:10203000E7071092EC071092EB072093ED0730931F
:10204000EE074093EF075093F0077093EA07609311
:10205000E90785E996E09093F6078093F50789ED07
:1020600096E09093F8078093F70785ED90E09093C2
:10207000FA078093F90784ED90E09093FC07809332
:10208000FB0780ED90E09093FE078093FD0781EDC4
:1020900090E0909300088093FF0782ED90E090938A
:1020A00002088093010886ED90E0909304088093E5
:1020B000030810930508B0930608A0930708F0934F
:1020C0000808E093090810920E0810920D0820935A
:1020D0000F08309310084093110850931208709322
:1020E0000C0860930B088DE197E09093180880939B
:1020F000170881E697E090931A088093190885E302
:1021000091E090931C0880931B0884E391E09093E6
:102110001E0880931D0880E391E09093200880932F
:102120001F0881E391E0909322088093210882E3C5
:1021300091E0909324088093230886E391E09093A4
:1021400026088093250810932708B0932808A093A9
:102150002908F0932A08E0932B081F910895CF9245
:10216000DF92EF92FF920F931F93CF93DF937C0147
:102170006B018A01C0E0D0E00FC0D6016D916D0106
:10218000D701ED91FC910190F081E02DC7011995E7
:10219000C80FD91F015010400115110571F7CE016C
:1021A000DF91CF911F910F91FF90EF90DF90CF9033
:1021B0000895EF92FF920F931F938C01DC01ED9134
:1021C000FC910190F081E02D6DE019957C01D80122
:1021D000ED91FC910190F081E02DC8016AE0199524
:1021E0009C012E0D3F1DC9011F910F91FF90EF9093
:1021F0000895CF93DF93EC016115710519F420E088
:1022000030E00FC0DB010D900020E9F71197A61B0D
:10221000B70BE881F9810280F381E02DAD011995BA
:102220009C01C901DF91CF9108954F925F927F92F7
:102230008F929F92AF92BF92CF92DF92EF92FF92D6
:102240000F931F93DF93CF93CDB7DEB7A1970FB650
:10225000F894DEBF0FBECDBF2C01742ECB0122300F
:1022600008F42AE019A231E2C32ED12CCC0EDD1ED7
:10227000822E9924AA24BB24672D752FA5019401D1
:102280000E94901879018A01C801B701A501940143
:102290000E944A18472D461B0894C108D1084A30AD
:1022A00014F4405D01C0495CF6014083E114F1047F
:1022B0000105110521F07E2C5F2DC801DDCFC20183
:1022C000B6010E94F910A1960FB6F894DEBF0FBEBA
:1022D000CDBFCF91DF911F910F91FF90EF90DF90D5
:1022E000CF90BF90AF909F908F907F905F904F90D6
:1022F0000895DC012115310541F4ED91FC91019027
:10230000F081E02D642F199508950E94151108950C
:10231000CF92DF92EF92FF920F931F93CF93DF93B1
:10232000EC016A017B012115310541F4E881F98155
:102330000190F081E02D642F19951FC02A303105DE
:10234000D1F477FF17C0E881F9810190F081E02D89
:102350006DE219958C0144275527BA014C195D0986
:102360006E097F09CE012AE00E9415119801280FFD
:10237000391F04C02AE00E9415119C01C901DF9198
:10238000CF911F910F91FF90EF90DF90CF90089524
:10239000CF92DF92EF92FF920F931F936C017B011C
:1023A0009A010027F7FC0095102FB801A7010E94A1
:1023B00088118C01C6010E94D910080F191FC8018D
:1023C0001F910F91FF90EF90DF90CF9008950E94A2
:1023D000F91008957F928F929F92AF92BF92CF9201
:1023E000DF92EF92FF920F931F93CF93DF934C01F5
:1023F0007A018B01722ECB01BA01A80197010E94CC
:102400004318882321F0C40162EE73E021C0C0E0CC
:10241000D0E057016801E894D7F8C601B5012FEF65
:102420003FEF4FE75FE70E944318882351F4C6014E
:10243000B5012FEF3FEF4FE75FE70E948D161816AB
:1024400014F0C1E0D0E0219739F0C40166EE73E0EA
:102450000E94F910EC0193C0C801B7012FEF3FEFC4
:102460004FE75FE40E94DC17181654F0C801B7016B
:102470002FEF3FEF4FE75FEC0E948D16882324F487
:10248000C4016AEE73E0E4CFC801B70120E030E098
:1024900040E050E00E948D1687FD03C0C0E0D0E010
:1024A0000EC0D401ED91FC910190F081E02DC401AA
:1024B0006DE21995EC0117FB109517F9109520E0C6
:1024C00030E040E05FE3DD240BC0CA01B90120E049
:1024D00030E040E251E40E9491169B01AC01D3949C
:1024E000D71498F3C801B7010E9429165B016C014B
:1024F0000E94FE167B018C01C401B801A7012AE0ED
:1025000030E00E947911C80FD91F772039F0C4013B
:102510006EEE73E00E94F910C80FD91FC801B70111
:102520000E942A179B01AC01C601B5010E94281622
:1025300024C020E030E040E251E40E94E0177B013B
:102540008C010E94F9165B016C01CC24B7FCC0948D
:10255000DC2CC401B601A5012AE030E00E948811FC
:10256000C80FD91FC601B5010E942C179B01AC01F1
:10257000C801B7010E9428167A947720D1F6CE01BF
:10258000DF91CF911F910F91FF90EF90DF90CF904F
:10259000BF90AF909F908F907F900895EF92FF92A1
:1025A0000F931F937C010E94EA118C01C7010E94C6
:1025B000D910080F191FC8011F910F91FF90EF90BC
:1025C0000895AF92BF92CF92DF92EF92FF920F9356
:1025D0001F93CF93DF935C016B01EE24FF24C0E0D7
:1025E000D0E010C0D501ED91FC9100811181C601B0
:1025F000BE010E942813682FC501F8011995E80E45
:10260000F91E2196F60184819581C817D90750F3E8
:10261000C701DF91CF911F910F91FF90EF90DF9055
:10262000CF90BF90AF900895EF92FF920F931F93BA
:102630007C010E94E1128C01C7010E94D9109C010B
:10264000200F311FC9011F910F91FF90EF90089546
:10265000FC01848195816817790748F40190F08125
:10266000E02D309721F0E60FF71F8081089580E07C
:1026700008950F931F93CF93DF93FC018B014115B6
:102680005105F9F061157105E1F0848195812817F4
:10269000390718F0FB01108214C041505040EC0182
:1026A000C21BD30B4C175D0708F4EA0160817181EE
:1026B000620F731FC801AE010E946F03C00FD11FCC
:1026C0001882DF91CF911F910F9108950F931F935F
:1026D000CF93DF93EC018B016F5F7F4F88819981EE
:1026E0000E945502009711F480E005C09983888309
:1026F0001B830A8381E0DF91CF911F910F91089591
:10270000CF93DF93EC0188819981892B29F08A810D
:102710009B818617970760F4CE010E946613882379
:1027200041F08C819D81892B19F4E881F981108217
:1027300081E0DF91CF910895EF92FF920F931F9365
:10274000CF93DF93EC017B016C817D81E114F10477
:10275000C1F04115510599F08A01060F171FB80104
:102760000E948013882369F0888199812C813D81A2
:10277000820F931FB7010E9468031D830C8381E0C1
:1027800001C080E0DF91CF911F910F91FF90EF90FA
:102790000895DF93CF930F920F92CDB7DEB7698381
:1027A0001A82BE016F5F7F4F41E050E00E949C1390
:1027B0000F900F90CF91DF910895CF93DF93EC01AD
:1027C00088819981009711F00E94FD011982188279
:1027D0001D821C821B821A82DF91CF910895EF9295
:1027E000FF920F931F93CF93DF93EC017B018A013C
:1027F000BA010E948013882321F4CE010E94DD13C8
:1028000007C01D830C8388819981B7010E946803EA
:10281000CE01DF91CF911F910F91FF90EF9008951E
:10282000CF93DF93EC01198218821B821A821D82DA
:102830001C821E826115710551F0DB010D90002094
:10284000E9F71197A61BB70BAD010E94EF13DF91BB
:10285000CF910895FC01808191810E94FD0108952E
:102860000F931F938C01FC01868160E00E94D00BC6
:1028700081E090E00E94B10AF801868161E00E9447
:10288000D00B81E090E00E94B10AF801868160E0FF
:102890000E94D00B84E690E00E94B10A1F910F9134
:1028A0000895CF92DF92EF92FF920F931F93CF93F1
:1028B000DF93D82EC92E282F392FC9018C01C0E0F3
:1028C000D0E0E62EFF24F801878161E00E941D0B15
:1028D000B7010C2E02C0759567950A94E2F76170F6
:1028E000F80187810E94D00B21960F5F1F4FC830DF
:1028F000D10549F78D2D9C2D0E943014DF91CF9189
:102900001F910F91FF90EF90DF90CF900895CF929D
:10291000DF92EF92FF920F931F93CF93DF93D82E06
:10292000C92E282F392FC9018C01C0E0D0E0E62E36
:10293000FF24F801878161E00E941D0BB7010C2E76
:1029400002C0759567950A94E2F76170F801878176
:102950000E94D00B21960F5F1F4FC430D10549F75D
:102960008D2D9C2D0E943014DF91CF911F910F91DE
:10297000FF90EF90DF90CF9008951F93CF93DF9358
:10298000EC01162F8C81642F0E94D00B8D818F3F1C
:1029900019F060E00E94D00B8F8584FF05C0CE0146
:1029A000612F0E9451140EC0612F70E084E0759574
:1029B00067958A95E1F7CE010E948714CE01612FB9
:1029C0000E948714DF91CF911F91089541E00E94EA
:1029D000BD1481E090E0089540E00E94BD14089588
:1029E000FC016089862F8460808B6C60CF010E941F
:1029F000EC140895DF93CF93CDB7DEB728970FB6C9
:102A0000F894DEBF0FBECDBF9C01FE013196AEE053
:102A1000B4E088E00D9001928150E1F7F9018389DB
:102A2000481710F0482F4150E42FF0E0EE0FFF1F41
:102A3000EC0FFD1F8181680F6068C9010E94EC14D2
:102A400028960FB6F894DEBF0FBECDBFCF91DF91B1
:102A5000089561E00E94EC1480ED97E00E94B10AB5
:102A60000895CF93DF93EC01423018F08F85886092
:102A70008F874B8B1C8A222329F0413019F48F85D4
:102A800084608F8780E593EC0E94B10A8C8160E0BE
:102A90000E94D00B8E8160E00E94D00B8D818F3F11
:102AA00019F060E00E94D00B6F8564FD1DC0CE015F
:102AB00063E00E94871484E991E10E94B10ACE018B
:102AC00063E00E94871484E991E10E94B10ACE017B
:102AD00063E00E94871486E990E00E94B10ACE016B
:102AE00062E00E94871416C06062CE010E94EC145E
:102AF00084E991E10E94B10A6F856062CE010E9473
:102B0000EC1486E990E00E94B10A6F856062CE0104
:102B10000E94EC146F856062CE010E94EC1484E088
:102B2000888BCE010E94F014CE010E94291582E00C
:102B3000898BCE0166E00E94EC14DF91CF9108955D
:102B40006F927F928F92AF92CF92EF920F931F93DB
:102B5000DF93CF93CDB7DEB73C01162F842FF3015F
:102B6000448325830683E782C086A18682869E856C
:102B700093879F859487988995879989968761E03F
:102B80000E941D0BF30185818F3F19F061E00E94C7
:102B90001D0BF301868161E00E941D0B112319F0CA
:102BA000F301178603C080E1F3018787C30160E169
:102BB00041E020E00E943115CF91DF911F910F91EC
:102BC000EF90CF90AF908F907F906F9008958F92FD
:102BD000AF92CF92EF920F931F93CF93DF93DC01CD
:102BE000362F542F722F102FAE2C8C2C13961C9234
:102BF0001E9212978AE094E011969C938E9300D0D7
:102C00000F92EDB7FEB73196CDB7DEB719821182BC
:102C100012821382CD0161E0432F2FEF052FE72EA3
:102C2000C12E0E94A0150F900F900F900F90DF9172
:102C3000CF911F910F91EF90CF90AF908F9008950B
:102C4000911125C2803219F089508550D0F708952E
:102C50005058BB27AA270ED075C166D130F06BD172
:102C600020F031F49F3F11F41EF45BC10EF4E095A7
:102C7000E7FB51C1E92F77D180F3BA1762077307D9
:102C80008407950718F071F49EF58FC10EF4E09556
:102C90000B2EBA2FA02D0B01B90190010C01CA0116
:102CA000A0011124FF27591B99F0593F50F4503EC1
:102CB00068F11A16F040A22F232F342F4427585FB3
:102CC000F3CF469537952795A795F0405395C9F7CB
:102CD0007EF41F16BA0B620B730B840BBAF0915083
:102CE000A1F0FF0FBB1F661F771F881FC2F70EC022
:102CF000BA0F621F731F841F48F4879577956795F5
:102D0000B795F7959E3F08F0B3CF9395880F08F0DD
:102D10009927EE0F979587950895D9D008F481E00B
:102D200008950CD00FC107D140F0FED030F021F44F
:102D30005F3F19F0F0C0511139C1F3C014D198F3BD
:102D40009923C9F35523B1F3951B550BBB27AA272C
:102D500062177307840738F09F5F5F4F220F331F9E
:102D6000441FAA1FA9F333D00E2E3AF0E0E830D06A
:102D700091505040E695001CCAF729D0FE2F27D06D
:102D8000660F771F881FBB1F261737074807AB073B
:102D9000B0E809F0BB0B802DBF01FF2793585F4FB0
:102DA0002AF09E3F510568F0B6C000C15F3FECF3CA
:102DB000983EDCF3869577956795B795F7959F5F75
:102DC000C9F7880F911D9695879597F90895E1E0C9
:102DD000660F771F881FBB1F621773078407BA0728
:102DE00020F0621B730B840BBA0BEE1F88F7E09583
:102DF000089504D06894B111D9C00895BCD088F06A
:102E00009F5790F0B92F9927B751A0F0D1F0660FD6
:102E1000771F881F991F1AF0BA95C9F712C0B130F1
:102E200081F0C3D0B1E00895C0C0672F782F882704
:102E3000B85F39F0B93FCCF3869577956795B39530
:102E4000D9F73EF490958095709561957F4F8F4F9F
:102E50009F4F0895E89409C097FB3EF490958095A4
:102E6000709561957F4F8F4F9F4F9923A9F0F92F50
:102E700096E9BB279395F695879577956795B795CE
:102E8000F111F8CFFAF4BB0F11F460FF1BC06F5FB4
:102E90007F4F8F4F9F4F16C0882311F096E911C0C6
:102EA000772321F09EE8872F762F05C0662371F0E7
:102EB00096E8862F70E060E02AF09A95660F771FFB
:102EC000881FDAF7880F9695879597F90895990FD7
:102ED0000008550FAA0BE0E8FEEF16161706E807E4
:102EE000F907C0F012161306E407F50798F0621B05
:102EF000730B840B950B39F40A2661F0232B242BDA
:102F0000252B21F408950A2609F4A140A6958FEFF8
:102F1000811D811D089597F99F6780E870E060E04A
:102F200008959FEF80EC089500240A941616170662
:102F300018060906089500240A94121613061406AA
:102F400005060895092E0394000C11F4882352F00D
:102F5000BB0F40F4BF2B11F460FF04C06F5F7F4FC5
:102F60008F4F9F4F089557FD9058440F551F59F0AC
:102F70005F3F71F04795880F97FB991F61F09F3F66
:102F800079F087950895121613061406551FF2CF8F
:102F90004695F1DF08C0161617061806991FF1CFDF
:102FA00086957105610508940895E894BB27662706
:102FB0007727CB0197F908958ADF08F48FEF0895FA
:102FC0000BD0C0CFB1DF28F0B6DF18F0952309F0A1
:102FD000A2CFA7CF1124EACFC6DFA0F3959FD1F3EC
:102FE000950F50E0551F629FF001729FBB27F00DB7
:102FF000B11D639FAA27F00DB11DAA1F649F66270C
:10300000B00DA11D661F829F2227B00DA11D621F5A
:10301000739FB00DA11D621F839FA00D611D221F14
:10302000749F3327A00D611D231F849F600D211DF8
:10303000822F762F6A2F11249F5750408AF0E1F09B
:1030400088234AF0EE0FFF1FBB1F661F771F881FE4
:1030500091505040A9F79E3F510570F05CCFA6CF2C
:103060005F3FECF3983EDCF3869577956795B795CF
:10307000F795E7959F5FC1F7FE2B880F911D9695F9
:10308000879597F9089523DF880B990B0895992761
:1030900088270895629FD001739FF001829FE00D01
:1030A000F11D649FE00DF11D929FF00D839FF00DC7
:1030B000749FF00D659FF00D9927729FB00DE11D73
:1030C000F91F639FB00DE11DF91FBD01CF01112450
:1030D0000895AA1BBB1B51E107C0AA1FBB1FA6175F
:1030E000B70710F0A61BB70B881F991F5A95A9F7B1
:1030F00080959095BC01CD01089597FB092E072678
:103100000AD077FD04D0E5DF06D000201AF47095D0
:1031100061957F4F0895F6F7909581959F4F08959B
:10312000A1E21A2EAA1BBB1BFD010DC0AA1FBB1FCB
:10313000EE1FFF1FA217B307E407F50720F0A21B3D
:10314000B30BE40BF50B661F771F881F991F1A94AA
:1031500069F760957095809590959B01AC01BD01D4
:10316000CF0108952F923F924F925F926F927F927C
:103170008F929F92AF92BF92CF92DF92EF92FF9287
:103180000F931F93CF93DF93CDB7DEB7CA1BDB0B33
:103190000FB6F894DEBF0FBECDBF19942A883988C8
:1031A00048885F846E847D848C849B84AA84B984DF
:1031B000C884DF80EE80FD800C811B81AA81B981EB
:1031C000CE0FD11D0FB6F894DEBF0FBECDBFED01FF
:1031D0000895EE0FFF1F0590F491E02D1994F894D7
:0231E000FFCF1F
:1031E2002C0000720D00434F554E5445523A2000B8
:1031F2000000000000000000000000572E6465700F
:1032020074683A200000000000000000572E696E2A
:10321200636865733A2000000000000000454D50CD
:1032220054592120004C4F572120004E4F524D41FE
:103232004C2000544F4F20484947482120005761F5
:103242007465722074656D703A20000000000057AA
:10325200617465723A200000000000000000000066
:10326200506C616E742074656D703A20000000002D
:1032720000000043000048756D69646974793A2062
:103282000000000000000000002500005761746586
:10329200722050504D3A2000000000000057617427
:1032A20065722070483A20000000000000000072A1
:1032B2000D0053656E736F72737472696E673A2094
:1032C20000666C6F61742070483A00526F756E64CC
:1032D200656420617665726167653A2000417320FA
:1032E20028696E74293A20004D6973746572204F03
:1032F2004E202020202000004D6973746572204604
:10330200616E204F4E2000004D6973746572204F2C
:1033120046462020202000004D69737465722046C5
:10332200616E204F46460000546F6F20686F742113
:10333200203E32364300005374617274696E672016
:1033420066616E210000546F6F2068756D6964219B
:10335200000052656164696E6720704800006C6508
:1033620076656C20696E2077617465722E2E00007E
:1033720052656164696E67206E75747269656E74F8
:10338200000043616C6962726174696E670020209B
:103392000073656E736F72732E2E2E002020200034
:1033A20053656E736F7273206F6B61792E000057D5
:1033B200617465724C6576656C20696E69742E2E37
:1033C2002E006E616E00696E66006F7666002E00DA
:1033D20020003308000000000000390FAF10CF0EAC
:1033E200000FE00E290F00000000E614AF100000ED
:0633F2004000140054002D
:00000001FF
