:100000000C9424010C9451010C9451010C94510155
:100010000C9451010C9451010C9451010C94510118
:100020000C9451010C9451010C9451010C94510108
:100030000C9451010C9451010C9451010C945101F8
:100040000C9451010C9451010C9451010C945101E8
:100050000C9451010C9451010C9451010C94930D8A
:100060000C9451010C94F90F0C9441110C94510112
:100070000C9451010C9451010C9451010C945101B8
:100080000C9451010C9451010C9451010C945101A8
:100090000C9439100C9480110C9451010C94510162
:1000A0000C9451010C9451010C9451010C94510188
:1000B0000C9451010C9451010C9451010C94510178
:1000C0000C9451010C9451010C9451010C94791031
:1000D0000C94BF110C9451010C94B9100C94FE11A6
:1000E0000C94510100002100240027002A002D005B
:1000F0003000330001010000040107010A01000083
:100100002200250028002B002E00310034000201BF
:100110000000050108010B0100002000230026005B
:1001200029002C002F00320000010000030106010D
:10013000090105050505070508080808020202026D
:100140000A0A080804040404010101010101010173
:100150000303030303030303040707070C0C0C0C3E
:100160000C0C0C0C02020202060606060606060627
:100170000B0B0B0B0B0B0B0B0102102020080810B4
:100180002040102040800201020108040201010207
:1001900004081020408080402010080402018004E0
:1001A000020180402010080402010804020101023B
:1001B0000408102040800102040810204080000044
:1001C000090A02080B0C0D070603040100000000D9
:1001D000000000000000000000000000000000001F
:1001E0000000000000000000000011100F000000DF
:1001F00000000000000000000000000000000000FF
:1002000000000000494E46494E4954594E414ECDDA
:10021000CCCC3D0AD7233C17B7D13877CC2B3295BD
:1002200095E6241FB14F0A000020410000C842009B
:10023000401C4620BCBE4CCA1B0E5AAEC59D740065
:100240003B060D0B270B6E1311241FBECFEFD1E21F
:10025000DEBFCDBF00E00CBF14E0A0E0B2E0ECECEC
:10026000F9E300E00BBF02C007900D92A434B10780
:10027000D9F71BBE18E0A4E4B4E001C01D92A1367A
:10028000B107E1F712E0C8E4D2E004C02297FE0112
:100290000E94E01CC034D107C9F70E94840D0C9461
:1002A0004C030C940000CF93DF93BC018230910586
:1002B00010F462E070E0A0915D08B0915E08ED017D
:1002C000E0E0F0E040E050E021C0888199818617AD
:1002D000970769F48A819B81309719F09383828311
:1002E00004C090935E0880935D08FE0134C06817D7
:1002F000790738F44115510519F08417950708F46A
:10030000AC01FE018A819B819C01E9012097E9F6FD
:1003100041155105A9F1CA01861B970B049708F4F2
:10032000BA01E0E0F0E02AC08D919C91119784170A
:100330009507F9F46417750781F412968D919C91D5
:100340001397309719F09383828304C090935E08CB
:1003500080935D08FD0132964CC0CA01861B970B45
:10036000FD01E80FF91F6193719302978D939C93A0
:1003700040C0FD01828193819C01D9011097A1F6B3
:1003800080915B0890915C08892B41F48091200456
:100390009091210490935C0880935B084091220423
:1003A000509123044115510541F44DB75EB780913A
:1003B0001E0490911F04481B590B20915B0830913B
:1003C0005C08CA01821B930B8617970780F0AB016C
:1003D0004E5F5F4F8417950750F0420F531F5093A5
:1003E0005C0840935B08F9016193719302C0E0E0FF
:1003F000F0E0CF01DF91CF910895CF93DF93009785
:1004000009F450C0EC0122971B821A82A0915D086A
:10041000B0915E08109709F140E050E0AC17BD07BD
:1004200008F1BB83AA83FE0121913191E20FF31FF2
:10043000AE17BF0779F48D919C911197280F391F42
:100440002E5F3F4F3983288312968D919C9113978D
:100450009B838A834115510571F4D0935E08C09344
:100460005D0820C012968D919C911397AD01009765
:1004700011F0DC01D3CFFA01D383C28321913191F2
:10048000E20FF31FCE17DF0769F488819981280FE7
:10049000391F2E5F3F4FFA01318320838A819B8170
:1004A00093838283DF91CF910895A0E0B0E0EBE5E4
:1004B000F2E00C94A91C6C01009729F4CB010E9476
:1004C00053016C01C1C08EEF882E8FEF982E8C0CDB
:1004D0009D1C8601060F171F0815190508F4B2C0E8
:1004E000F401A081B181A617B707B8F0A530B10516
:1004F00008F4AAC0CD0104978617970708F4A4C092
:100500001297A61BB70BF801A193B193D4016D9379
:100510007C93CF010E94FD0197C07B01EA1AFB0A80
:10052000EEEFFFEFEE0EFF1E36016A0E7B1EC0914E
:100530005D08D0915E0844245524AA24BB244AC0F7
:10054000C615D705E1F5488159814E155F05B8F10B
:10055000CA0104978E159F05B0F41296A40FB51F1B
:10056000F401B183A0832A813B814114510431F00D
:10057000D20113963C932E93129766C030935E0877
:1005800020935D0861C08A819B81F80193838283F7
:10059000425050404E195F09518340834114510429
:1005A00031F0D20113961C930E93129704C010934E
:1005B0005E0800935D08F4017183608345C0888103
:1005C0009981A816B90608F45C012E018A819B81E5
:1005D0009C01E901209709F0B3CF80915B089091CD
:1005E0005C0886159705E9F4A616B706D0F42091A5
:1005F0002204309123042115310541F42DB73EB773
:1006000080911E0490911F04281B390B02171307B9
:10061000C8F410935C0800935B08D4016D937C933D
:1006200013C0CB010E945301EC01009759F0F40173
:1006300040815181B6010E945403C6010E94FD0110
:100640006E0102C0CC24DD24C601CDB7DEB7E0E1E7
:100650000C94C51C662777270C94D903FC018827C6
:100660009927E89421912032E9F3293010F02E30B7
:10067000C8F32B3241F02D3239F4689404C00E9443
:10068000D103820F911D219120532A30C0F31EF413
:10069000909581959F4F0895F8940C94E41C44E440
:1006A00054E00E947E030895FB01DC0102C001902A
:1006B0000D9241505040D8F70895FB01DC010D9098
:1006C0000020E9F7119701900D920020E1F70895BD
:1006D000FB01DC0101900D920020E1F70895FB0180
:1006E000DC014150504048F001900D920020C9F7C4
:1006F00001C01D9241505040E0F70895009731F439
:10070000DA018D919C91009709F40EC0DC01FB0188
:100710003D912191222319F03217C9F3FACF3323E7
:1007200031F4DA011D921C928827992708951197B8
:10073000AF93BF93FB013D912191321771F43323A5
:1007400021F488279927119702C01E921196FA0169
:10075000A193B0839F918F910895222369F7EACFE7
:10076000FB019F01E8944230C4F04532B4F44A30B2
:1007700029F497FB1EF4909581959F4F642F77275E
:100780000E945E1C805D8A330CF0895D8193CB01F1
:100790000097A1F716F45DE251931082C9010C9401
:1007A00051057AE0979F902D879F802D910D112400
:1007B0000895A0E0B0E0EFEDF3E00C94AD1CEC0187
:1007C0005B016115710519F0FB0191838083F9903C
:1007D0008F2D90E00E94151A892BC9F7FDE2FF16B4
:1007E00021F4F990EE24E39405C02BE2F21609F40B
:1007F000F990EE248E0101501040C80164E072E0CF
:1008000043E050E00E943905892B01F58E010E5F0F
:100810001F4FC80167E072E045E050E00E943905D3
:10082000892B19F48E01095F1F4FA114B10419F02F
:10083000F50111830083E0FC04C070E090E080E8E3
:1008400014C070E090E080E86FEF08C1C8016CE070
:1008500072E043E050E00E943905892B69F4A1144D
:10086000B10429F470E090E080EC6FE7F7C02296C5
:10087000F501D183C083F6CF8824992440E050E06D
:1008800060E070E0EF2DE053EA30A0F5F2E0EF2AEF
:100890008E2D90E09C0128703070E2FE06C0232B64
:1008A00079F50894811C911C2BC0232B19F0089416
:1008B00081089108DB01CA0112E0880F991FAA1F65
:1008C000BB1F1A95D1F7480F591F6A1F7B1F440F92
:1008D000551F661F771F4E0F511D611D711D483931
:1008E00029E9520729E9620729E1720748F084E003
:1008F000E82A06C0EE3F31F4E3FC39C098E0E92A6B
:10090000F990C0CFE53311F0E53189F529912D3209
:1009100019F4E0E1EE2A05C02B3219F081E090E0F5
:1009200003C0299182E090E0E22FE053EA3018F012
:10093000C81BD90B1CC020E030E0FCE020383F078A
:100940005CF4C901880F991F880F991F280F391F60
:10095000220F331F2E0F311DE991E053EA3068F367
:10096000E4FE03C0309521953F4F820E931ECE2C9E
:10097000DD24E1FE07C0A114B10421F02197F501A7
:10098000D183C083CB01BA010E941F1B7B018C0164
:10099000F3E0CF22DD2423E0C216D10421F417FBBB
:1009A000109517F9109557016801C801B70120E0AB
:1009B00030E040E050E00E94821A882309F44AC0E7
:1009C00097FE0DC023E2E22E22E0F22E9094819455
:1009D00091089394C0E2D0E000E010E012C09BE3E5
:1009E000E92E92E0F92EF6CFF70125913591459148
:1009F0005491C601B5010E94D51B5B016C018C1A94
:100A00009D0A8C169D0684F7D595C7950F5F1F4FDD
:100A10000630110529F08CEF9FEFE80EF91EF1CF9B
:100A2000C501D6017C018D018C2D880F8D2D881F6D
:100A30008F3F51F0C601B50120E030E040E050E0CA
:100A40000E94821A882331F482E290E09093600839
:100A500080935F087E2D9F2D802F612F272F392FA8
:100A6000482F562FB901CA01CDB7DEB7ECE00C9480
:100A7000C91CFB01DC014150504088F08D9181344C
:100A80001CF08B350CF4805E659161341CF06B3585
:100A90000CF4605E861B611171F3990B0895881B3D
:100AA000FCCFDC01FC01672F71917723E1F73297CE
:100AB00004C07C916D9370836291AE17BF07C8F339
:100AC000089508950F931F93DF93CF93CDB7DEB7AB
:100AD0002A970FB6F894DEBF0FBECDBFFC01E05CD5
:100AE000FF4F8081918160E072E00E944F039A8302
:100AF00089838E010F5F1F4F09C080E090E060E0A6
:100B000072E00E944F03F80191838083F801819184
:100B100091918F01892B89F78B819C810E942E03F3
:100B20002A960FB6F894DEBF0FBECDBFCF91DF91EE
:100B30001F910F910895EF92FF920F931F93CF9300
:100B4000DF93EC018C01005C1F4F82E092E0F80122
:100B50009183808387E198E063E072E00E94DC1576
:100B600082E4E82EF12CEC0EFD1E10C087E198E027
:100B70000E94F512F7018083992787FD9095F8016F
:100B800020813181280F391F3183208387E198E04C
:100B90000E94C412181619064CF3CE010E94620579
:100BA000DF91CF911F910F91FF90EF900895AF9239
:100BB000BF92CF92DF92EF92FF920F931F93DF933A
:100BC000CF93CDB7DEB7EC970FB6F894DEBF0FBE6C
:100BD000CDBF6C017E010894E11CF11C87019DE3EF
:100BE000A92EB12CAC0EBD1EC6010E949B05F801BA
:100BF000819391938F01EA15FB05B1F720E030E076
:100C0000F701819191917F01280F391FE017F107BA
:100C1000B9F7C9016EE170E00E94721CCB01F601C8
:100C200060839183EC960FB6F894DEBF0FBECDBF04
:100C3000CF91DF911F910F91FF90EF90DF90CF90B8
:100C4000BF90AF9008950F931F938C0187E198E0B8
:100C500040E056E960E070E00E943D12F80117AEF6
:100C600016AE80E090E01F910F91089570935C04A0
:100C700060935B040895CF92EF920F9386E494E023
:100C800062E043E024E005E056E0E52E37E0C32EC5
:100C90000E94DC190F91EF90CF90089586E494E0C4
:100CA0000E941E190895EF92FF920F931F93DF93F6
:100CB000CF93CDB7DEB765970FB6F894DEBF0FBE02
:100CC000CDBF8B01DE011596E6E0F2E08AE00190EF
:100CD0000D928150E1F7FE013F9687E0DF011D9202
:100CE0008A95E9F78091170290911802A091190254
:100CF000B0911A0289839A83AB83BC8386E494E023
:100D00000E941E1986E494E060E040E00E94EF1823
:100D1000C8017E010894E11CF11CB7014AE050E0D3
:100D20000E94B0038E010B5F1F4FC801B7010E94E4
:100D30005D0386E494E0B8010E94DC1565960FB669
:100D4000F894DEBF0FBECDBFCF91DF911F910F9101
:100D5000FF90EF900895EF92FF920F931F93262F2D
:100D60007A0106E414E0C80160E0422F0E94EF1807
:100D7000C801B7010E94DC151F910F91FF90EF9001
:100D80000895EF92FF920F931F93DF93CF93CDB708
:100D9000DEB7AC970FB6F894DEBF0FBECDBFDE0155
:100DA0001B96E0E8F2E08DE001900D928150E1F7B2
:100DB000188E198E1A8E1B8EDE011196E1E9F2E073
:100DC00085E001900D928150E1F786E494E00E9465
:100DD0001E1986E494E060E040E00E94EF18E09184
:100DE0005B04F0915C0460817181828193810E9437
:100DF000EE1ADC01CB017E010894E11CF11CB70165
:100E00004AE050E00E94B0038E01055F1F4FC80109
:100E1000B7010E945D0386E494E0B8010E94DC15EE
:100E2000DE015C96E6E9F2E08BE001900D928150E4
:100E3000E1F7FE01B79686E0DF011D928A95E9F79A
:100E4000DE011696E7EAF2E085E001900D9281500E
:100E5000E1F786E494E060E041E00E94EF18E09161
:100E60005B04F0915C0464817581868197810E94A6
:100E7000EE1ADC01CB0176E0E72EF12CEC0EFD1E24
:100E8000B7014AE050E00E94B0038E01045E1F4F9C
:100E9000C801B7010E945D0386E494E0B8010E9496
:100EA000DC15AC960FB6F894DEBF0FBECDBFCF9168
:100EB000DF911F910F91FF90EF900895EF92FF92B5
:100EC0000F931F93DF93CF93CDB7DEB7AC970FB6D9
:100ED000F894DEBF0FBECDBFDE011B96ECEAF2E058
:100EE0008CE001900D928150E1F7FE01779685E04C
:100EF000DF011D928A95E9F7DE011196E1E9F2E042
:100F000085E001900D928150E1F786E494E00E9423
:100F10001E1986E494E060E040E00E94EF18E09142
:100F20005B04F0915C04848595857E010894E11C46
:100F3000F11CB7014AE050E00E94B0038E01055F4A
:100F40001F4FC801B7010E945D0386E494E0B80119
:100F50000E94DC15DE015C96EDEBF2E08BE0019087
:100F60000D928150E1F7FE01B79686E0DF011D92F8
:100F70008A95E9F7DE011696E7EAF2E085E001904E
:100F80000D928150E1F786E494E060E041E00E9438
:100F9000EF18E0915B04F0915C04A6E0EA2EF12CDE
:100FA000EC0EFD1E86859785B7014AE050E00E9451
:100FB000B0038E01045E1F4FC801B7010E945D039C
:100FC00086E494E0B8010E94DC15AC960FB6F89464
:100FD000DEBF0FBECDBFCF91DF911F910F91FF906C
:100FE000EF9008950F931F9306E414E0C80160E1A9
:100FF00042E020E00E942619C80160E00E94DB1850
:101000001F910F9108950895CF92DF92EF92FF9272
:101010000F931F93DF93CF93CDB7DEB7AF970FB684
:10102000F894DEBF0FBECDBF7C018E010F5F1F4F56
:10103000C8016EEC72E00E940518C8016EE170E014
:101040000E947517FE01389688E2DF011D928A958D
:10105000E9F789E398E06FEC72E00E94DC1568EE36
:1010600073E080E090E00E94DB0DD02EC12E0BC01B
:1010700089E398E00E94F512682FF70184A78D2D6F
:101080009C2D0E94BE1789E398E00E94C412181696
:10109000190674F38E01085F1F4F8D2D9C2DB8012A
:1010A00046E050E020E030E00E942E171D86C80187
:1010B0000E942A03162F072FF82EE92E83ED97E0C2
:1010C00062ED72E00E94DC1583ED97E06D2D7C2DC2
:1010D0000E94091783ED97E061EE72E00E94DC1533
:1010E00083ED97E0212F302FEF2DFE2DA901BF01B9
:1010F00022E030E00E94C3168D2D9C2D0E941F1807
:10110000212F302F4F2D5E2DB901CA01AF960FB69A
:10111000F894DEBF0FBECDBFCF91DF911F910F912D
:10112000FF90EF90DF90CF900895CF92DF92EF92F3
:10113000FF920F931F93CF93DF936C01C0E0D0E039
:101140000F2EF0E0EF2EF0E0FF2EF0E00F2FF0E09A
:101150001F2FF02DC6010E9404089B01AC01C8019D
:10116000B7010E941E1A7B018C012196CA30D1055D
:1011700089F720E030E040E251E40E94861A7B01CA
:101180008C01CB01D801F60180839183A283B383C4
:1011900083ED97E06BEE72E00E94DC15F601408172
:1011A00051816281738183ED97E022E030E00E94FB
:1011B000C31683ED97E06DEF72E00E94DC15F60137
:1011C00060817181828193810E94EE1A9B01AC0142
:1011D00083ED97E0B9014AE050E00E94BD15B701E8
:1011E000C801DF91CF911F910F91FF90EF90DF9099
:1011F000CF90089589E398E040E056E960E070E020
:101200000E943D1280E090E00895FC01862F6083EB
:10121000718361E00E94A00E08950F931F938C01CB
:10122000FC01808161E00E94A00EF801808160E0F5
:101230000E94530F1F910F9108950F931F938C01DC
:10124000FC01808161E00E94A00EF801808161E0D4
:101250000E94530F1F910F910895FC0171836083C9
:101260005383428308950F931F93062F142F862FC5
:1012700061E00E94A00E812F61E00E94A00E802FED
:1012800061E00E94530F812F61E00E94530F812F74
:1012900060E00E94530F1F910F9108951F93CF9309
:1012A000DF93162F862F60E00E94A00EC0E0D0E0F2
:1012B0006AE070E080E090E00E94DB0D812F0E94E8
:1012C000860F892B21F02196C436D10589F7DF914D
:1012D000CF911F910895CF92DF92EF92FF920F93DB
:1012E0001F93CF93DF93C62ED42E7901C0E0D0E0B8
:1012F00000E010E017C08D2D61E00E94530F6AE0FE
:1013000070E080E090E00E94DB0DCC0FDD1F8C2DA3
:101310000E94860FC80FD91F8D2D60E00E94530FC9
:101320000F5F1F4F0E151F0534F3CE01DF91CF91D4
:101330001F910F91FF90EF90DF90CF900895AF92A3
:10134000BF92CF92DF92EF92FF920F931F936C01A7
:10135000F62EB72EE42EA52E862F60E00E94A00E5A
:101360008E2D61E00E94A00EC6016F2D7B2D4E2DAB
:101370005A2D28E030E00E946B09182F00E08F2DD5
:1013800061E00E94A00E8F2D61E00E94530F8F2D0F
:1013900060E00E94530F8E2D61E00E94530F8E2D4E
:1013A00060E00E94530F8F2D60E00E94A00EC601E6
:1013B0006F2D7B2D4E2D5A2D28E030E00E946B09B9
:1013C000082B192BC8011F910F91FF90EF90DF9010
:1013D000CF90BF90AF900895FF920F931F93F62E7A
:1013E000042F122F842F61E00E94A00E812F61E054
:1013F0000E94A00E802F61E00E94530F812F61E0B8
:101400000E94530F802F60E00E94530F812F60E0F5
:101410000E94530F812F61E00E94530F802F61E0E3
:101420000E94530F812F60E00E94530F802F612F85
:1014300041E02F2D0E94B60F812F61E00E94530FD3
:10144000802F60E00E94A00E802F0E94860F812FC7
:1014500060E00E94530F802F0E94860F1F910F9112
:10146000FF900895CF92DF92EF92FF920F931F9318
:101470006C01FC01408151812281338163E070E085
:101480000E94EC09F60160817181C6010E944E093B
:10149000F6016081718142815381C6010E949F09DA
:1014A0007C01F6016081718142815381C6010E94F5
:1014B00033090027F7FC0095102FC801B7010E94DF
:1014C000211B1F910F91FF90EF90DF90CF90089517
:1014D0000E94320A0E94EE1A882777FD8095982F85
:1014E0000E94211B2AE037ED43E25CE30E94D51BFA
:1014F00020E030E040E252E40E941D1A08956F920D
:101500007F928F929F92AF92BF92CF92DF92EF9293
:10151000FF920F931F936C01FC0140815181228146
:10152000338165E070E00E94EC09F6016081718111
:10153000C6010E944E09F60160817181428153818A
:10154000C6010E949F097C01F60160817181428180
:101550005381C6010E9433090027F7FC0095102F24
:10156000C801B7010E94211B7B018C01C6010E94AA
:10157000680A20E030E048EC51E40E941D1A5B014B
:101580006C01C801B7012CEA35EC47EA58E30E9428
:10159000D51B2AE037ED43E25CE30E941E1A9B0153
:1015A000AC01C601B5010E94D51B3B014C01C8012D
:1015B000B70124E533EE45E25DE30E94D51B20E050
:1015C00030E040E850E40E941D1A5B016C01C80144
:1015D000B70122EA37EE4BE356EB0E94D51BA80178
:1015E00097010E94D51B9B01AC01C601B5010E9469
:1015F0001E1A9B01AC01C401B3010E941E1A1F9167
:101600000F91FF90EF90DF90CF90BF90AF909F90A1
:101610008F907F906F90089508958DE594E065E335
:1016200070E044E350E00E942D0908958DE594E0B8
:101630000E947F0A08958DE594E00E94680A08954B
:101640000895FC01E056FF4F1182108208950F9318
:101650001F9303E614E08CE1F80111928A95E9F7F3
:101660008FE794E00E940C0B80E894E00E94210B2D
:1016700086E295E0B8010E94360687E295E00E9476
:10168000200B88E295E06FE170E00E9405098AE294
:1016900095E06EE170E00E9405098CE295E063E25E
:1016A00070E00E9405098EE295E060E270E00E9421
:1016B000050980E395E061E270E00E94050982E39C
:1016C00095E062E270E00E94050984E395E00E94E3
:1016D000610589E795E00E9403081F910F91089525
:1016E000CF93DF938091A8059091A90501969093DF
:1016F000A9058093A8058FE794E00E941B0B6093D7
:1017000063047093640480936504909366048FE788
:1017100094E00E94160B60936704709368048093B2
:10172000690490936A0460ED77E080E090E00E94A5
:10173000DB0D86E295E00E94C1068FE794E00E94EF
:101740001B0B60936304709364048093650490930F
:1017500066048FE794E00E94160B60936704709311
:1017600068048093690490936A0460ED77E080E0F8
:1017700090E00E94DB0D86E295E00E94C10682E0C7
:1017800090E090937804809377046091A80570911D
:10179000A90586E295E040E050E00E945306809162
:1017A000A8059091A90563E070E00E94721C892B46
:1017B00009F08CC08AE295E00E940D091092A905FB
:1017C0001092A80586E295E00E944E0686E295E01A
:1017D00060E070E048E053E00E94AB0686E295E0EE
:1017E00061E070E04DE053E00E94AB068CE295E0D2
:1017F0000E941D0968E873E180E090E00E94DB0D23
:1018000086E295E00E944E0686E295E060E070E098
:1018100041E253E00E94AB0686E295E061E070E0B1
:101820004DE053E00E94AB0688E295E00E941D095E
:10183000C0E0D0E086E295E060E070E045E353E090
:101840000E94AB0688E295E00E940D0960E47FE10A
:1018500080E090E00E94DB0D86E295E060E070E0C1
:1018600041E253E00E94AB0688E295E00E941D0928
:1018700068EB7BE080E090E00E94DB0D2196C530B4
:10188000D105C1F686E295E00E944E0686E295E01B
:1018900060E070E047E453E00E94AB066CE271E068
:1018A00080E090E00E94DB0D88E295E00E940D0947
:1018B00068EE73E080E090E00E94DB0D86E295E048
:1018C00061E070E049E553E00E94AB068CE295E0F0
:1018D0000E940D0960916304709164048091650415
:1018E0009091660420E030E040ED51E40E94D11B6D
:1018F0008823C4F086E295E00E944E0686E295E0D9
:1019000060E070E04BE653E00E94AB0686E295E0B3
:1019100061E070E04AE753E00E94AB068AE295E09E
:101920000E941D09609167047091680480916904A8
:1019300090916A0420E030E042E852E40E94D11B1A
:101940008823C4F086E295E00E944E0686E295E088
:1019500060E070E049E853E00E94AB0686E295E063
:1019600061E070E04AE753E00E94AB068AE295E04E
:101970000E941D0960916304709164048091650464
:101980009091660420E030E040ED51E40E94821A1C
:10199000882344F56091670470916804809169041C
:1019A00090916A0420E030E042E852E40E94821AFA
:1019B0008823C4F486E295E00E944E0686E295E014
:1019C00060E070E045E953E00E94AB0686E295E0F6
:1019D00061E070E043EA53E00E94AB068AE295E0E2
:1019E0000E940D0960ED77E080E090E00E94DB0D41
:1019F00086E295E00E944E0686E295E060E070E0A7
:101A000043EB53E00E94AB0686E295E061E070E0B4
:101A10004FEB53E00E94AB0689E795E00E949508E2
:101A20006091790570917A0580917B0590917C0594
:101A30000E94EE1A709372046093710486E295E03E
:101A40000E944E0686E295E060E070E041ED53E0D2
:101A50000E94AB0686E295E061E070E04FEB53E058
:101A60000E94AB0684E395E00E94D705809134057F
:101A7000909135059093700480936F0486E295E011
:101A80000E945E0760ED77E080E090E00E94DB0D51
:101A9000DF91CF9108950F931F9306E215E0C801DF
:101AA0000E94F207C8010E944E06C80160E070E083
:101AB00043EE53E00E94AB06C80161E070E042EFE4
:101AC00053E00E94AB06C8010E944E06C80160E0C8
:101AD00070E041E054E00E94AB0684E395E00E9490
:101AE000230689E795E00E94FA081092A905109252
:101AF000A80583ED97E040E855E260E070E00E94C1
:101B00003D121F910F910895CF93DF930E943E0ED7
:101B10000E944B0DC8EFD0E10E94700B2097E1F3BB
:101B20000E94F810F9CF1F920F920FB60F92112456
:101B30002F933F938F939F93AF93BF938091AE0565
:101B40009091AF05A091B005B091B1053091B2056B
:101B50000196A11DB11D232F2D5F2D3720F02D578C
:101B60000196A11DB11D2093B2058093AE059093FF
:101B7000AF05A093B005B093B1058091AA059091EF
:101B8000AB05A091AC05B091AD050196A11DB11DAD
:101B90008093AA059093AB05A093AC05B093AD05D7
:101BA000BF91AF919F918F913F912F910F900FBE59
:101BB0000F901F9018959B01AC017FB7F89480910E
:101BC000AA059091AB05A091AC05B091AD0566B5A5
:101BD000A89B05C06F3F19F00196A11DB11D7FBFE5
:101BE000BA2FA92F982F8827860F911DA11DB11DEF
:101BF00062E0880F991FAA1FBB1F6A95D1F7BC012D
:101C00002DC0FFB7F8948091AA059091AB05A091E3
:101C1000AC05B091AD05E6B5A89B05C0EF3F19F046
:101C20000196A11DB11DFFBFBA2FA92F982F88279C
:101C30008E0F911DA11DB11DE2E0880F991FAA1FF3
:101C4000BB1FEA95D1F7861B970B885E9340C8F2BD
:101C5000215030404040504068517C4F21153105A3
:101C60004105510571F60895019739F0880F991FC4
:101C7000880F991F02970197F1F70895789484B51A
:101C8000826084BD84B5816084BD85B5826085BD78
:101C900085B5816085BDEEE6F0E08081816080835E
:101CA000E1E8F0E010828081826080838081816041
:101CB0008083E0E8F0E0808181608083E1EBF0E008
:101CC000808184608083E0EBF0E0808181608083AC
:101CD000E1E9F0E08081826080838081816080839F
:101CE000E0E9F0E0808181608083E1EAF0E08081DA
:101CF00082608083808181608083E0EAF0E080817F
:101D000081608083E1E2F1E0808182608083808174
:101D100081608083E0E2F1E0808181608083EAE796
:101D2000F0E0808184608083808182608083808114
:101D3000816080838081806880831092C1000895D3
:101D4000CF93DF93482F50E0CA0188589E4FFC0183
:101D500034914E5C5E4FFA018491882369F190E0E2
:101D6000880F991FFC01EC51FF4FA591B491FC0124
:101D7000E250FF4FC591D491662351F42FB7F894E8
:101D80008C91932F909589238C93888189230BC004
:101D9000623061F42FB7F8948C91932F909589233A
:101DA0008C938881832B88832FBF06C09FB7F894BC
:101DB0008C91832B8C939FBFDF91CF9108958930B5
:101DC00009F449C08A30A0F4843051F1853040F4E0
:101DD000823079F1833000F5813009F063C026C08C
:101DE000873079F1883098F5863009F05BC025C0DE
:101DF0008D3009F442C08E3028F48B30B1F18C3034
:101E0000C0F52DC0803109F442C0813109F445C0CC
:101E10008F3009F047C037C0809180008F7703C0B2
:101E2000809180008F7D80938000089584B58F77A6
:101E300002C084B58F7D84BD08958091B0008F77F6
:101E400003C08091B0008F7D8093B0000895809191
:101E500090008F7707C0809190008F7D03C08091A4
:101E60009000877F8093900008958091A0008F77E5
:101E700007C08091A0008F7D03C08091A000877F64
:101E80008093A0000895809120018F7703C08091F6
:101E900020018F7D80932001089580912001877F0C
:101EA000809320010895FF920F931F93F62E482FE1
:101EB00050E0CA0182549E4FFC012491CA01885807
:101EC0009E4FFC0114914E5C5E4FFA010491002379
:101ED000C9F0222319F0822F0E94DF0EE02FF0E0DC
:101EE000EE0FFF1FE250FF4FA591B4919FB7F894FA
:101EF000FF2021F48C911095812302C08C91812BBD
:101F00008C939FBF1F910F91FF9008950F931F9384
:101F1000482F50E0CA0182549E4FFC012491CA010F
:101F200088589E4FFC0104914E5C5E4FFA0114915B
:101F3000112319F420E030E015C0222319F0822F7C
:101F40000E94DF0E812F90E0880F991F885E9E4FC0
:101F5000FC01A591B4918C9120E030E0802311F038
:101F600021E030E0C9011F910F910895BF92CF92F7
:101F7000DF92EF92FF920F931F93CF93DF93E82EA0
:101F8000F62EB42EC7E0D0E0022F10E087E0C82E76
:101F9000D12CBB2059F4B6016C1B7D0BC80102C0CB
:101FA000959587956A95E2F7BC0107C0B8010C2E9C
:101FB00002C0759567950A94E2F761708E2D0E94B4
:101FC000530F8F2D61E00E94530F8F2D60E00E9410
:101FD000530F21979FEFCF3FD907D9F6DF91CF91CC
:101FE0001F910F91FF90EF90DF90CF90BF900895D9
:101FF00008951F920F920FB60F920BB60F921124F5
:102000002F933F934F938F939F93EF93FF938091E1
:10201000C00082FD1DC04091C6002091F3053091A3
:10202000F4052F5F3F4F2F7330708091F50590912D
:10203000F6052817390771F0E091F305F091F405E2
:10204000ED54FA4F40833093F4052093F30502C01A
:102050008091C600FF91EF919F918F914F913F9199
:102060002F910F900BBE0F900FBE0F901F901895E1
:1020700008951F920F920FB60F920BB60F92112474
:102080002F933F934F938F939F93EF93FF93809161
:10209000C80082FD1DC04091CE0020917B0630918A
:1020A0007C062F5F3F4F2F73307080917D0690919B
:1020B0007E062817390771F0E0917B06F0917C06C7
:1020C000E55CF94F408330937C0620937B0602C089
:1020D0008091CE00FF91EF919F918F914F913F9111
:1020E0002F910F900BBE0F900FBE0F901F90189561
:1020F00008951F920F920FB60F920BB60F921124F4
:102100002F933F934F938F939F93EF93FF938091E0
:10211000D00082FD1DC04091D60020910307309170
:1021200004072F5F3F4F2F73307080910507909108
:1021300006072817390771F0E0910307F0910407AB
:10214000ED53F94F4083309304072093030702C0F7
:102150008091D600FF91EF919F918F914F913F9188
:102160002F910F900BBE0F900FBE0F901F901895E0
:1021700008951F920F920FB60F920BB60F92112473
:102180002F933F934F938F939F93EF93FF93809160
:10219000300182FD1DC04091360120918B073091A6
:1021A0008C072F5F3F4F2F73307080918D07909178
:1021B0008E072817390771F0E0918B07F0918C0793
:1021C000E55BF84F408330938C0720938B0702C068
:1021D00080913601FF91EF919F918F914F913F91A7
:1021E0002F910F900BBE0F900FBE0F901F90189560
:1021F000E091DF07F091E007E05CFF4F8191919162
:1022000020813181821B930B8F739070892B11F089
:102210000E94F80FE0910108F0910208E05CFF4F86
:102220008191919120813181821B930B8F739070EA
:10223000892B11F00E943810E0912308F0912408B6
:10224000E05CFF4F8191919120813181821B930B42
:102250008F739070892B11F00E947810E0914508DF
:10226000F0914608E05CFF4F81919191208131818E
:10227000821B930B8F739070892B11F00E94B81002
:1022800008951F920F920FB60F920BB60F92112462
:102290002F933F938F939F93EF93FF932091370654
:1022A000309138068091390690913A0628173907FF
:1022B00031F48091C1008F7D8093C10014C0E09102
:1022C0003906F0913A06E950FA4F2081809139069B
:1022D00090913A0601968F73907090933A0680938E
:1022E00039062093C600FF91EF919F918F913F9106
:1022F0002F910F900BBE0F900FBE0F901F9018954F
:102300001F920F920FB60F920BB60F9211242F93BC
:102310003F938F939F93EF93FF932091BF0630914C
:10232000C0068091C1069091C2062817390731F482
:102330008091C9008F7D8093C90014C0E091C106CF
:10234000F091C206E158F94F20818091C106909129
:10235000C20601968F7390709093C2068093C10657
:102360002093CE00FF91EF919F918F913F912F91FC
:102370000F900BBE0F900FBE0F901F9018951F92DD
:102380000F920FB60F920BB60F9211242F933F931B
:102390008F939F93EF93FF932091470730914807C6
:1023A0008091490790914A072817390731F48091A5
:1023B000D1008F7D8093D10014C0E0914907F09146
:1023C0004A07E95FF84F20818091490790914A07B9
:1023D00001968F73907090934A07809349072093DA
:1023E000D600FF91EF919F918F913F912F910F9088
:1023F0000BBE0F900FBE0F901F9018951F920F925B
:102400000FB60F920BB60F9211242F933F938F9319
:102410009F93EF93FF932091CF073091D007809146
:10242000D1079091D2072817390731F480913101F3
:102430008F7D8093310114C0E091D107F091D207D4
:10244000E157F84F20818091D1079091D2070196F2
:102450008F7390709093D2078093D10720933601A9
:10246000FF91EF919F918F913F912F910F900BBE14
:102470000F900FBE0F901F901895AF92BF92DF92F2
:10248000EF92FF920F931F93CF93DF93EC017A01AA
:102490008B01DD24403081EE580780E0680780E042
:1024A000780711F0DD24D39491E0A92EB12CEC89AA
:1024B000FD89DD2069F0C50108A002C0880F991FC1
:1024C0000A94E2F7808360E079E08DE390E005C054
:1024D000108260E874E88EE190E0A80197010E9404
:1024E000851C2150304040405040569547953795C7
:1024F000279580E12030380720F0DD2011F0DD2421
:10250000D6CFE889F9893083EA89FB89208319A22B
:10251000EE89FF89408121E030E0C9010C8C02C0C6
:10252000880F991F0A94E2F7482B4083EE89FF89B0
:102530004081C9010D8C02C0880F991F0A94E2F7EF
:10254000482B4083EE89FF894081C9010E8C02C06F
:10255000880F991F0A94E2F7482B4083EE89FF8980
:1025600080810F8C02C0220F331F0A94E2F720955E
:1025700028232083DF91CF911F910F91FF90EF903F
:10258000DF90BF90AF900895DC011C96ED91FC9117
:102590001D97E05CFF4F2191319180819181281B33
:1025A000390B2F733070C9010895DC011C96ED9131
:1025B000FC911D97E05CFF4F20813181E054F04099
:1025C000DF01AE5BBF4F8D919C91119728173907A2
:1025D00019F42FEF3FEF07C08D919C91E80FF91F81
:1025E0008081282F30E0C9010895DC011C96ED910F
:1025F000FC911D97E05CFF4F20813181E054F04059
:10260000DF01AE5BBF4F8D919C9111972817390761
:1026100019F42FEF3FEF10C08D919C911197E80FA7
:10262000F91F20818D919C91119701968F73907065
:1026300011969C938E9330E0C9010895DC01919628
:102640008C919197882339F05496ED91FC91559790
:10265000808186FFF9CF91961C920895CF93DF93E6
:10266000EC01EE85FF85E05CFF4F20813181E05475
:10267000F0402F5F3F4F2F733070DF01AE5BBF4FD5
:102680008D919C91119728173907D1F3E05CFF4F8A
:1026900080819181E054F040E80FF91F6083EE855E
:1026A000FF85E05CFF4F31832083EE89FF89208125
:1026B00081E090E00F8C02C0880F991F0A94E2F726
:1026C000282B208381E089A3EC89FD8980818064A7
:1026D000808381E090E0DF91CF9108951F93109265
:1026E000D6071092D50728EE33E040E050E0209363
:1026F000D7073093D8074093D9075093DA0768E299
:1027000074E07093D4076093D30783EB95E09093C4
:10271000E0078093DF0787EF95E09093E2078093CF
:10272000E10785EC90E09093E4078093E30784EC65
:1027300090E09093E6078093E50780EC90E090931B
:10274000E8078093E70781EC90E09093EA07809395
:10275000E90782EC90E09093EC078093EB0786EC1E
:1027600090E09093EE078093ED0714E01093EF074D
:10277000B3E0B093F007A7E0A093F107F5E0F09382
:10278000F207E1E0E093F3071092F8071092F707E1
:102790002093F9073093FA074093FB075093FC0707
:1027A0007093F6076093F5078BE396E09093020829
:1027B000809301088FE796E09093040880930308C4
:1027C0008DEC90E090930608809305088CEC90E0E7
:1027D000909308088093070888EC90E090930A088B
:1027E0008093090889EC90E090930C0880930B0883
:1027F0008AEC90E090930E0880930D088EEC90E0A8
:102800009093100880930F0810931108B09312084A
:10281000A0931308F0931408E093150810921A0877
:102820001092190820931B0830931C0840931D0830
:1028300050931E08709318086093170883EC96E075
:10284000909324088093230887E097E090932608CC
:102850008093250885ED90E09093280880932708C1
:1028600084ED90E090932A088093290880ED90E011
:1028700090932C0880932B0881ED90E090932E0884
:1028800080932D0882ED90E09093300880932F087C
:1028900086ED90E0909332088093310810933308CE
:1028A000B0933408A0933508F0933608E0933708C6
:1028B00010923C0810923B0820933D0830933E084C
:1028C00040933F085093400870933A08609339084A
:1028D0008BE497E090934608809345088FE897E053
:1028E000909348088093470885E391E090934A08C5
:1028F0008093490884E391E090934C0880934B08BF
:1029000080E391E090934E0880934D0881E391E03D
:102910009093500880934F0882E391E0909352087F
:102920008093510886E391E0909354088093530874
:1029300010935508B0935608A0935708F093580881
:10294000E09359081F910895CF92DF92EF92FF9282
:102950000F931F93CF93DF937C016B018A01C0E03B
:10296000D0E00FC0D6016D916D01D701ED91FC91C2
:102970000190F081E02DC7011995C80FD91F0150B2
:1029800010400115110571F7CE01DF91CF911F9114
:102990000F91FF90EF90DF90CF900895EF92FF920C
:1029A0000F931F938C01DC01ED91FC910190F0815C
:1029B000E02D6DE019957C01D801ED91FC9101901D
:1029C000F081E02DC8016AE019959C012E0D3F1D94
:1029D000C9011F910F91FF90EF900895CF93DF935E
:1029E000EC016115710519F420E030E00FC0DB0146
:1029F0000D900020E9F71197A61BB70BE881F9812C
:102A00000280F381E02DAD0119959C01C901DF9190
:102A1000CF9108954F925F927F928F929F92AF9243
:102A2000BF92CF92DF92EF92FF920F931F93DF93AB
:102A3000CF93CDB7DEB7A1970FB6F894DEBF0FBE28
:102A4000CDBF2C01742ECB01223008F42AE019A24C
:102A500031E2C32ED12CCC0EDD1E822E9924AA2465
:102A6000BB24672D752FA50194010E94851C790157
:102A70008A01C801B701A50194010E943F1C472D9E
:102A8000461B0894C108D1084A3014F4405D01C0C7
:102A9000495CF6014083E114F1040105110521F0C0
:102AA0007E2C5F2DC801DDCFC201B6010E94EE145D
:102AB000A1960FB6F894DEBF0FBECDBFCF91DF91C8
:102AC0001F910F91FF90EF90DF90CF90BF90AF904C
:102AD0009F908F907F905F904F900895DC0121151B
:102AE000310541F4ED91FC910190F081E02D642FCE
:102AF000199508950E940A150895CF92DF92EF92DA
:102B0000FF920F931F93CF93DF93EC016A017B0138
:102B10002115310541F4E881F9810190F081E02D22
:102B2000642F19951FC02A303105D1F477FF17C0E3
:102B3000E881F9810190F081E02D6DE219958C0119
:102B400044275527BA014C195D096E097F09CE014A
:102B50002AE00E940A159801280F391F04C02AE0B4
:102B60000E940A159C01C901DF91CF911F910F911D
:102B7000FF90EF90DF90CF900895CF92DF92EF9289
:102B8000FF920F931F936C017B019A010027F7FCC2
:102B90000095102FB801A7010E947D158C01C60178
:102BA0000E94CE14080F191FC8011F910F91FF90AA
:102BB000EF90DF90CF9008950E94EE1408957F92D9
:102BC0008F929F92AF92BF92CF92DF92EF92FF923D
:102BD0000F931F93CF93DF934C017A018B01722ED9
:102BE000CB01BA01A80197010E94381C882321F06B
:102BF000C40160E174E021C0C0E0D0E05701680189
:102C0000E894D7F8C601B5012FEF3FEF4FE75FE734
:102C10000E94381C882351F4C601B5012FEF3FEF05
:102C20004FE75FE70E94821A181614F0C1E0D0E067
:102C3000219739F0C40164E174E00E94EE14EC01C4
:102C400093C0C801B7012FEF3FEF4FE75FE40E9449
:102C5000D11B181654F0C801B7012FEF3FEF4FE713
:102C60005FEC0E94821A882324F4C40168E174E0B6
:102C7000E4CFC801B70120E030E040E050E00E941E
:102C8000821A87FD03C0C0E0D0E00EC0D401ED91F0
:102C9000FC910190F081E02DC4016DE21995EC01E9
:102CA00017FB109517F9109520E030E040E05FE346
:102CB000DD240BC0CA01B90120E030E040E251E45C
:102CC0000E94861A9B01AC01D394D71498F3C801D3
:102CD000B7010E941E1A5B016C010E94F31A7B016E
:102CE0008C01C401B801A7012AE030E00E946E15F2
:102CF000C80FD91F772039F0C4016CE174E00E943D
:102D0000EE14C80FD91FC801B7010E941F1B9B01F9
:102D1000AC01C601B5010E941D1A24C020E030E0BC
:102D200040E251E40E94D51B7B018C010E94EE1A07
:102D30005B016C01CC24B7FCC094DC2CC401B6014F
:102D4000A5012AE030E00E947D15C80FD91FC601F9
:102D5000B5010E94211B9B01AC01C801B7010E9473
:102D60001D1A7A947720D1F6CE01DF91CF911F9171
:102D70000F91FF90EF90DF90CF90BF90AF909F901A
:102D80008F907F900895EF92FF920F931F937C0195
:102D90000E94DF158C01C7010E94CE14080F191F75
:102DA000C8011F910F91FF90EF900895AF92BF92CD
:102DB000CF92DF92EF92FF920F931F93CF93DF9307
:102DC0005C016B01EE24FF24C0E0D0E010C0D5010F
:102DD000ED91FC9100811181C601BE010E941D1779
:102DE000682FC501F8011995E80EF91E2196F60124
:102DF00084819581C817D90750F3C701DF91CF911E
:102E00001F910F91FF90EF90DF90CF90BF90AF9008
:102E10000895EF92FF920F931F937C010E94D616A4
:102E20008C01C7010E94CE149C01200F311FC901E3
:102E30001F910F91FF90EF900895FC01848195817F
:102E40006817790748F40190F081E02D309721F060
:102E5000E60FF71F8081089580E008950F931F9378
:102E6000CF93DF93FC018B0141155105F9F06115FA
:102E70007105E1F0848195812817390718F0FB016D
:102E8000108214C041505040EC01C21BD30B4C17B0
:102E90005D0708F4EA0160817181620F731FC80148
:102EA000AE010E946F03C00FD11F1882DF91CF9136
:102EB0001F910F9108950F931F93CF93DF93EC0110
:102EC0008B016F5F7F4F888199810E945502009727
:102ED00011F480E005C0998388831B830A8381E015
:102EE000DF91CF911F910F910895CF93DF93EC0164
:102EF00088819981892B29F08A819B818617970780
:102F000060F4CE010E945B17882341F08C819D8183
:102F1000892B19F4E881F981108281E0DF91CF914A
:102F20000895EF92FF920F931F93CF93DF93EC01DD
:102F30007B016C817D81E114F104C1F041155105E3
:102F400099F08A01060F171FB8010E947517882390
:102F500069F0888199812C813D81820F931FB7018F
:102F60000E9468031D830C8381E001C080E0DF9133
:102F7000CF911F910F91FF90EF900895DF93CF9322
:102F80000F920F92CDB7DEB769831A82BE016F5FD1
:102F90007F4F41E050E00E9491170F900F90CF912A
:102FA000DF910895CF93DF93EC0188819981009799
:102FB00011F00E94FD01198218821D821C821B8261
:102FC0001A82DF91CF910895EF92FF920F931F9392
:102FD000CF93DF93EC017B018A01BA010E94751740
:102FE000882321F4CE010E94D21707C01D830C83D1
:102FF00088819981B7010E946803CE01DF91CF914A
:103000001F910F91FF90EF900895CF93DF93EC0104
:10301000198218821B821A821D821C821E826115EF
:10302000710551F0DB010D900020E9F71197A61B07
:10303000B70BAD010E94E417DF91CF910895FC0119
:10304000808191810E94FD0108950F931F938C014F
:10305000FC01868160E00E94530F81E090E00E94B5
:10306000340EF801868161E00E94530F81E090E008
:103070000E94340EF801868160E00E94530F84E6BE
:1030800090E00E94340E1F910F910895CF92DF922D
:10309000EF92FF920F931F93CF93DF93D82EC92EF9
:1030A000282F392FC9018C01C0E0D0E0E62EFF2483
:1030B000F801878161E00E94A00EB7010C2E02C0CA
:1030C000759567950A94E2F76170F80187810E940F
:1030D000530F21960F5F1F4FC830D10549F78D2D33
:1030E0009C2D0E942518DF91CF911F910F91FF9089
:1030F000EF90DF90CF900895CF92DF92EF92FF9202
:103100000F931F93CF93DF93D82EC92E282F392FDB
:10311000C9018C01C0E0D0E0E62EFF24F8018781D0
:1031200061E00E94A00EB7010C2E02C07595679554
:103130000A94E2F76170F80187810E94530F21968B
:103140000F5F1F4FC430D10549F78D2D9C2D0E9474
:103150002518DF91CF911F910F91FF90EF90DF9095
:10316000CF9008951F93CF93DF93EC01162F8C819E
:10317000642F0E94530F8D818F3F19F060E00E94F1
:10318000530F8F8584FF05C0CE01612F0E94461822
:103190000EC0612F70E084E0759567958A95E1F720
:1031A000CE010E947C18CE01612F0E947C18DF9115
:1031B000CF911F91089541E00E94B21881E090E004
:1031C000089540E00E94B2180895FC016089862F9E
:1031D0008460808B6C60CF010E94E1180895DF93BA
:1031E000CF93CDB7DEB728970FB6F894DEBF0FBEEA
:1031F000CDBF9C01FE013196ACE3B4E088E00D90B8
:1032000001928150E1F7F9018389481710F0482FA6
:103210004150E42FF0E0EE0FFF1FEC0FFD1F818106
:10322000680F6068C9010E94E11828960FB6F894EB
:10323000DEBF0FBECDBFCF91DF91089561E00E9448
:10324000E11880ED97E00E94340E0895CF93DF934C
:10325000EC01423018F08F8588608F874B8B1C8A79
:10326000222329F0413019F48F8584608F8780E50F
:1032700093EC0E94340E8C8160E00E94530F8E818B
:1032800060E00E94530F8D818F3F19F060E00E9433
:10329000530F6F8564FD1DC0CE0163E00E947C1852
:1032A00084E991E10E94340ECE0163E00E947C1813
:1032B00084E991E10E94340ECE0163E00E947C1803
:1032C00086E990E00E94340ECE0162E00E947C18F4
:1032D00016C06062CE010E94E11884E991E10E946B
:1032E000340E6F856062CE010E94E11886E990E09D
:1032F0000E94340E6F856062CE010E94E1186F85D6
:103300006062CE010E94E11884E0888BCE010E94A9
:10331000E518CE010E941E1982E0898BCE0166E07D
:103320000E94E118DF91CF9108956F927F928F9262
:10333000AF92CF92EF920F931F93DF93CF93CDB7BE
:10334000DEB73C01162F842FF301448325830683C7
:10335000E782C086A18682869E8593879F85948713
:10336000988995879989968761E00E94A00EF3015C
:1033700085818F3F19F061E00E94A00EF3018681E4
:1033800061E00E94A00E112319F0F301178603C01B
:1033900080E1F3018787C30160E141E020E00E9402
:1033A0002619CF91DF911F910F91EF90CF90AF90A1
:1033B0008F907F906F9008958F92AF92CF92EF92FF
:1033C0000F931F93CF93DF93DC01362F542F722F6F
:1033D000102FAE2C8C2C13961C921E92129788E301
:1033E00094E011969C938E9300D00F92EDB7FEB7A8
:1033F0003196CDB7DEB71982118212821382CD01C8
:1034000061E0432F2FEF052FE72EC12E0E94951963
:103410000F900F900F900F90DF91CF911F910F9110
:10342000EF90CF90AF908F900895911125C2803288
:1034300019F089508550D0F708955058BB27AA2716
:103440000ED075C166D130F06BD120F031F49F3FC2
:1034500011F41EF45BC10EF4E095E7FB51C1E92FB6
:1034600077D180F3BA17620773078407950718F0BE
:1034700071F49EF58FC10EF4E0950B2EBA2FA02D9E
:103480000B01B90190010C01CA01A0011124FF2711
:10349000591B99F0593F50F4503E68F11A16F0400C
:1034A000A22F232F342F4427585FF3CF469537950B
:1034B0002795A795F0405395C9F77EF41F16BA0BD0
:1034C000620B730B840BBAF09150A1F0FF0FBB1F7E
:1034D000661F771F881FC2F70EC0BA0F621F731FC7
:1034E000841F48F4879577956795B795F7959E3F24
:1034F00008F0B3CF9395880F08F09927EE0F9795B2
:1035000087950895D9D008F481E008950CD00FC1B3
:1035100007D140F0FED030F021F45F3F19F0F0C049
:10352000511139C1F3C014D198F39923C9F355232C
:10353000B1F3951B550BBB27AA27621773078407A6
:1035400038F09F5F5F4F220F331F441FAA1FA9F35C
:1035500033D00E2E3AF0E0E830D091505040E6954E
:10356000001CCAF729D0FE2F27D0660F771F881FAF
:10357000BB1F261737074807AB07B0E809F0BB0B9E
:10358000802DBF01FF2793585F4F2AF09E3F5105C2
:1035900068F0B6C000C15F3FECF3983EDCF386955F
:1035A00077956795B795F7959F5FC9F7880F911D38
:1035B0009695879597F90895E1E0660F771F881F24
:1035C000BB1F621773078407BA0720F0621B730BD7
:1035D000840BBA0BEE1F88F7E095089504D0689429
:1035E000B111D9C00895BCD088F09F5790F0B92F81
:1035F0009927B751A0F0D1F0660F771F881F991F48
:103600001AF0BA95C9F712C0B13081F0C3D0B1E059
:103610000895C0C0672F782F8827B85F39F0B93F69
:10362000CCF3869577956795B395D9F73EF4909549
:103630008095709561957F4F8F4F9F4F0895E894C7
:1036400009C097FB3EF490958095709561957F4FEA
:103650008F4F9F4F9923A9F0F92F96E9BB27939598
:10366000F695879577956795B795F111F8CFFAF4A8
:10367000BB0F11F460FF1BC06F5F7F4F8F4F9F4FD9
:1036800016C0882311F096E911C0772321F09EE837
:10369000872F762F05C0662371F096E8862F70E09D
:1036A00060E02AF09A95660F771F881FDAF7880F77
:1036B0009695879597F90895990F0008550FAA0BCD
:1036C000E0E8FEEF16161706E807F907C0F0121635
:1036D0001306E407F50798F0621B730B840B950B38
:1036E00039F40A2661F0232B242B252B21F408958D
:1036F0000A2609F4A140A6958FEF811D811D08952A
:1037000097F99F6780E870E060E008959FEF80EC94
:10371000089500240A941616170618060906089537
:1037200000240A9412161306140605060895092E9D
:103730000394000C11F4882352F0BB0F40F4BF2B0C
:1037400011F460FF04C06F5F7F4F8F4F9F4F08954C
:1037500057FD9058440F551F59F05F3F71F0479542
:10376000880F97FB991F61F09F3F79F08795089527
:10377000121613061406551FF2CF4695F1DF08C046
:10378000161617061806991FF1CF86957105610563
:1037900008940895E894BB2766277727CB0197F90B
:1037A00008958ADF08F48FEF08950BD0C0CFB1DF02
:1037B00028F0B6DF18F0952309F0A2CFA7CF112487
:1037C000EACFC6DFA0F3959FD1F3950F50E0551FC8
:1037D000629FF001729FBB27F00DB11D639FAA2766
:1037E000F00DB11DAA1F649F6627B00DA11D661FB5
:1037F000829F2227B00DA11D621F739FB00DA11DD6
:10380000621F839FA00D611D221F749F3327A00D8F
:10381000611D231F849F600D211D822F762F6A2F2B
:1038200011249F5750408AF0E1F088234AF0EE0FB0
:10383000FF1FBB1F661F771F881F91505040A9F7BD
:103840009E3F510570F05CCFA6CF5F3FECF3983EF2
:10385000DCF3869577956795B795F795E7959F5F24
:10386000C1F7FE2B880F911D9695879597F90895BE
:1038700023DF880B990B0895992788270895629F65
:10388000D001739FF001829FE00DF11D649FE00D58
:10389000F11D929FF00D839FF00D749FF00D659FB9
:1038A000F00D9927729FB00DE11DF91F639FB00DB8
:1038B000E11DF91FBD01CF0111240895AA1BBB1BF7
:1038C00051E107C0AA1FBB1FA617B70710F0A61B20
:1038D000B70B881F991F5A95A9F780959095BC0141
:1038E000CD01089597FB092E07260AD077FD04D055
:1038F000E5DF06D000201AF4709561957F4F08959A
:10390000F6F7909581959F4F0895A1E21A2EAA1B74
:10391000BB1BFD010DC0AA1FBB1FEE1FFF1FA2177F
:10392000B307E407F50720F0A21BB30BE40BF50B7C
:10393000661F771F881F991F1A9469F76095709505
:10394000809590959B01AC01BD01CF0108952F9208
:103950003F924F925F926F927F928F929F92AF921F
:10396000BF92CF92DF92EF92FF920F931F93CF936C
:10397000DF93CDB7DEB7CA1BDB0B0FB6F894DEBF03
:103980000FBECDBF19942A88398848885F846E8419
:103990007D848C849B84AA84B984C884DF80EE8073
:1039A000FD800C811B81AA81B981CE0FD11D0FB67C
:1039B000F894DEBF0FBECDBFED010895EE0FFF1FDF
:0C39C0000590F491E02D1994F894FFCFCD
:1039CC002C0000720D00434F554E5445523A2000C6
:1039DC000000000000000000000000572E6465701D
:1039EC0074683A200000000000000000572E696E39
:1039FC00636865733A2000000000000000454D50DC
:103A0C0054592120004C4F572120004E4F524D410C
:103A1C004C2000544F4F2048494748212000576103
:103A2C007465722074656D703A20000000000057B8
:103A3C00617465723A200000000000000000000074
:103A4C00506C616E742074656D703A20000000003B
:103A5C0000000043000048756D69646974793A2070
:103A6C000000000000000000002500005761746594
:103A7C00722050504D3A2000000000000057617435
:103A8C0065722070483A20000000000000000072AF
:103A9C000D0053656E736F72737472696E673A20A2
:103AAC0000666C6F61742070483A00526F756E64DA
:103ABC00656420617665726167653A200041732008
:103ACC0028696E74293A200020202000004165727C
:103ADC006F4D6973746572202020204F4E2020009A
:103AEC00004165726F706F6E69632066616E204F66
:103AFC004E202000004165726F706F6E6963206606
:103B0C00616E4F464600004165726F706F6E69635F
:103B1C002066612E4F464600004165726F4D6973F9
:103B2C007465722020204F46460000546F6F206849
:103B3C006F7421203E3236430000537461727469F5
:103B4C006E672066616E210000546F6F2068756D82
:103B5C00696421000050657266656374206E6F772E
:103B6C002E000053746F7070696E672066616E73FF
:103B7C002E000052656164696E6720704800006C0D
:103B8C006576656C20696E2077617465722E2E00E7
:103B9C000052656164696E67206E75747269656E3A
:103BAC0074000043616C6962726174696E67002015
:103BBC00200073656E736F72732E2E2E00202020E2
:103BCC000053656E736F7273206F6B61792E0000FA
:103BDC006E616E00696E66006F7666002E002000C6
:103BEC0061080000000000002E13A414C412F5128A
:103BFC00D5121E1300000000DB18A41400004000B6
:043C0C00140054004C
:00000001FF
